{
  "_format": "hh-sol-artifact-1",
  "contractName": "EduCertificateNFT",
  "sourceName": "contracts/EduCertificateNFT.sol",
  "abi": [
    {
      "inputs": [],
      "stateMutability": "nonpayable",
      "type": "constructor"
    },
    {
      "anonymous": false,
      "inputs": [
        {
          "indexed": true,
          "internalType": "address",
          "name": "owner",
          "type": "address"
        },
        {
          "indexed": true,
          "internalType": "address",
          "name": "approved",
          "type": "address"
        },
        {
          "indexed": true,
          "internalType": "uint256",
          "name": "tokenId",
          "type": "uint256"
        }
      ],
      "name": "Approval",
      "type": "event"
    },
    {
      "anonymous": false,
      "inputs": [
        {
          "indexed": true,
          "internalType": "address",
          "name": "owner",
          "type": "address"
        },
        {
          "indexed": true,
          "internalType": "address",
          "name": "operator",
          "type": "address"
        },
        {
          "indexed": false,
          "internalType": "bool",
          "name": "approved",
          "type": "bool"
        }
      ],
      "name": "ApprovalForAll",
      "type": "event"
    },
    {
      "anonymous": false,
      "inputs": [
        {
          "indexed": false,
          "internalType": "uint256",
          "name": "_fromTokenId",
          "type": "uint256"
        },
        {
          "indexed": false,
          "internalType": "uint256",
          "name": "_toTokenId",
          "type": "uint256"
        }
      ],
      "name": "BatchMetadataUpdate",
      "type": "event"
    },
    {
      "anonymous": false,
      "inputs": [
        {
          "indexed": true,
          "internalType": "uint256",
          "name": "tokenId",
          "type": "uint256"
        }
      ],
      "name": "CertificateBurned",
      "type": "event"
    },
    {
      "anonymous": false,
      "inputs": [
        {
          "indexed": true,
          "internalType": "address",
          "name": "student",
          "type": "address"
        },
        {
          "indexed": true,
          "internalType": "uint256",
          "name": "tokenId",
          "type": "uint256"
        },
        {
          "indexed": false,
          "internalType": "string",
          "name": "uri",
          "type": "string"
        }
      ],
      "name": "CertificateMinted",
      "type": "event"
    },
    {
      "anonymous": false,
      "inputs": [
        {
          "indexed": false,
          "internalType": "uint256",
          "name": "_tokenId",
          "type": "uint256"
        }
      ],
      "name": "MetadataUpdate",
      "type": "event"
    },
    {
      "anonymous": false,
      "inputs": [
        {
          "indexed": true,
          "internalType": "bytes32",
          "name": "role",
          "type": "bytes32"
        },
        {
          "indexed": true,
          "internalType": "bytes32",
          "name": "previousAdminRole",
          "type": "bytes32"
        },
        {
          "indexed": true,
          "internalType": "bytes32",
          "name": "newAdminRole",
          "type": "bytes32"
        }
      ],
      "name": "RoleAdminChanged",
      "type": "event"
    },
    {
      "anonymous": false,
      "inputs": [
        {
          "indexed": true,
          "internalType": "bytes32",
          "name": "role",
          "type": "bytes32"
        },
        {
          "indexed": true,
          "internalType": "address",
          "name": "account",
          "type": "address"
        },
        {
          "indexed": true,
          "internalType": "address",
          "name": "sender",
          "type": "address"
        }
      ],
      "name": "RoleGranted",
      "type": "event"
    },
    {
      "anonymous": false,
      "inputs": [
        {
          "indexed": true,
          "internalType": "bytes32",
          "name": "role",
          "type": "bytes32"
        },
        {
          "indexed": true,
          "internalType": "address",
          "name": "account",
          "type": "address"
        },
        {
          "indexed": true,
          "internalType": "address",
          "name": "sender",
          "type": "address"
        }
      ],
      "name": "RoleRevoked",
      "type": "event"
    },
    {
      "anonymous": false,
      "inputs": [
        {
          "indexed": true,
          "internalType": "address",
          "name": "from",
          "type": "address"
        },
        {
          "indexed": true,
          "internalType": "address",
          "name": "to",
          "type": "address"
        },
        {
          "indexed": true,
          "internalType": "uint256",
          "name": "tokenId",
          "type": "uint256"
        }
      ],
      "name": "Transfer",
      "type": "event"
    },
    {
      "inputs": [],
      "name": "DEFAULT_ADMIN_ROLE",
      "outputs": [
        {
          "internalType": "bytes32",
          "name": "",
          "type": "bytes32"
        }
      ],
      "stateMutability": "view",
      "type": "function"
    },
    {
      "inputs": [],
      "name": "MINTER_ROLE",
      "outputs": [
        {
          "internalType": "bytes32",
          "name": "",
          "type": "bytes32"
        }
      ],
      "stateMutability": "view",
      "type": "function"
    },
    {
      "inputs": [
        {
          "internalType": "address",
          "name": "to",
          "type": "address"
        },
        {
          "internalType": "uint256",
          "name": "tokenId",
          "type": "uint256"
        }
      ],
      "name": "approve",
      "outputs": [],
      "stateMutability": "nonpayable",
      "type": "function"
    },
    {
      "inputs": [
        {
          "internalType": "address",
          "name": "owner",
          "type": "address"
        }
      ],
      "name": "balanceOf",
      "outputs": [
        {
          "internalType": "uint256",
          "name": "",
          "type": "uint256"
        }
      ],
      "stateMutability": "view",
      "type": "function"
    },
    {
      "inputs": [
        {
          "internalType": "uint256",
          "name": "tokenId",
          "type": "uint256"
        }
      ],
      "name": "burnCertificate",
      "outputs": [],
      "stateMutability": "nonpayable",
      "type": "function"
    },
    {
      "inputs": [
        {
          "internalType": "uint256",
          "name": "",
          "type": "uint256"
        }
      ],
      "name": "certificateDetails",
      "outputs": [
        {
          "internalType": "string",
          "name": "courseName",
          "type": "string"
        },
        {
          "internalType": "string",
          "name": "studentName",
          "type": "string"
        },
        {
          "internalType": "string",
          "name": "grade",
          "type": "string"
        },
        {
          "internalType": "string",
          "name": "issuedDate",
          "type": "string"
        }
      ],
      "stateMutability": "view",
      "type": "function"
    },
    {
      "inputs": [
        {
          "internalType": "uint256",
          "name": "tokenId",
          "type": "uint256"
        }
      ],
      "name": "getApproved",
      "outputs": [
        {
          "internalType": "address",
          "name": "",
          "type": "address"
        }
      ],
      "stateMutability": "view",
      "type": "function"
    },
    {
      "inputs": [
        {
          "internalType": "uint256",
          "name": "tokenId",
          "type": "uint256"
        }
      ],
      "name": "getCertificateData",
      "outputs": [
        {
          "components": [
            {
              "internalType": "string",
              "name": "courseName",
              "type": "string"
            },
            {
              "internalType": "string",
              "name": "studentName",
              "type": "string"
            },
            {
              "internalType": "string",
              "name": "grade",
              "type": "string"
            },
            {
              "internalType": "string",
              "name": "issuedDate",
              "type": "string"
            }
          ],
          "internalType": "struct EduCertificateNFT.CertificateData",
          "name": "",
          "type": "tuple"
        }
      ],
      "stateMutability": "view",
      "type": "function"
    },
    {
      "inputs": [
        {
          "internalType": "bytes32",
          "name": "role",
          "type": "bytes32"
        }
      ],
      "name": "getRoleAdmin",
      "outputs": [
        {
          "internalType": "bytes32",
          "name": "",
          "type": "bytes32"
        }
      ],
      "stateMutability": "view",
      "type": "function"
    },
    {
      "inputs": [
        {
          "internalType": "address",
          "name": "minter",
          "type": "address"
        }
      ],
      "name": "grantMinter",
      "outputs": [],
      "stateMutability": "nonpayable",
      "type": "function"
    },
    {
      "inputs": [
        {
          "internalType": "bytes32",
          "name": "role",
          "type": "bytes32"
        },
        {
          "internalType": "address",
          "name": "account",
          "type": "address"
        }
      ],
      "name": "grantRole",
      "outputs": [],
      "stateMutability": "nonpayable",
      "type": "function"
    },
    {
      "inputs": [
        {
          "internalType": "bytes32",
          "name": "role",
          "type": "bytes32"
        },
        {
          "internalType": "address",
          "name": "account",
          "type": "address"
        }
      ],
      "name": "hasRole",
      "outputs": [
        {
          "internalType": "bool",
          "name": "",
          "type": "bool"
        }
      ],
      "stateMutability": "view",
      "type": "function"
    },
    {
      "inputs": [
        {
          "internalType": "address",
          "name": "owner",
          "type": "address"
        },
        {
          "internalType": "address",
          "name": "operator",
          "type": "address"
        }
      ],
      "name": "isApprovedForAll",
      "outputs": [
        {
          "internalType": "bool",
          "name": "",
          "type": "bool"
        }
      ],
      "stateMutability": "view",
      "type": "function"
    },
    {
      "inputs": [
        {
          "internalType": "address",
          "name": "student",
          "type": "address"
        },
        {
          "internalType": "string",
          "name": "tokenURI",
          "type": "string"
        },
        {
          "internalType": "string",
          "name": "courseName",
          "type": "string"
        },
        {
          "internalType": "string",
          "name": "studentName",
          "type": "string"
        },
        {
          "internalType": "string",
          "name": "grade",
          "type": "string"
        },
        {
          "internalType": "string",
          "name": "issuedDate",
          "type": "string"
        }
      ],
      "name": "mintCertificate",
      "outputs": [
        {
          "internalType": "uint256",
          "name": "",
          "type": "uint256"
        }
      ],
      "stateMutability": "nonpayable",
      "type": "function"
    },
    {
      "inputs": [],
      "name": "name",
      "outputs": [
        {
          "internalType": "string",
          "name": "",
          "type": "string"
        }
      ],
      "stateMutability": "view",
      "type": "function"
    },
    {
      "inputs": [
        {
          "internalType": "uint256",
          "name": "tokenId",
          "type": "uint256"
        }
      ],
      "name": "ownerOf",
      "outputs": [
        {
          "internalType": "address",
          "name": "",
          "type": "address"
        }
      ],
      "stateMutability": "view",
      "type": "function"
    },
    {
      "inputs": [
        {
          "internalType": "bytes32",
          "name": "role",
          "type": "bytes32"
        },
        {
          "internalType": "address",
          "name": "account",
          "type": "address"
        }
      ],
      "name": "renounceRole",
      "outputs": [],
      "stateMutability": "nonpayable",
      "type": "function"
    },
    {
      "inputs": [
        {
          "internalType": "address",
          "name": "minter",
          "type": "address"
        }
      ],
      "name": "revokeMinter",
      "outputs": [],
      "stateMutability": "nonpayable",
      "type": "function"
    },
    {
      "inputs": [
        {
          "internalType": "bytes32",
          "name": "role",
          "type": "bytes32"
        },
        {
          "internalType": "address",
          "name": "account",
          "type": "address"
        }
      ],
      "name": "revokeRole",
      "outputs": [],
      "stateMutability": "nonpayable",
      "type": "function"
    },
    {
      "inputs": [
        {
          "internalType": "address",
          "name": "from",
          "type": "address"
        },
        {
          "internalType": "address",
          "name": "to",
          "type": "address"
        },
        {
          "internalType": "uint256",
          "name": "tokenId",
          "type": "uint256"
        }
      ],
      "name": "safeTransferFrom",
      "outputs": [],
      "stateMutability": "nonpayable",
      "type": "function"
    },
    {
      "inputs": [
        {
          "internalType": "address",
          "name": "from",
          "type": "address"
        },
        {
          "internalType": "address",
          "name": "to",
          "type": "address"
        },
        {
          "internalType": "uint256",
          "name": "tokenId",
          "type": "uint256"
        },
        {
          "internalType": "bytes",
          "name": "data",
          "type": "bytes"
        }
      ],
      "name": "safeTransferFrom",
      "outputs": [],
      "stateMutability": "nonpayable",
      "type": "function"
    },
    {
      "inputs": [
        {
          "internalType": "address",
          "name": "operator",
          "type": "address"
        },
        {
          "internalType": "bool",
          "name": "approved",
          "type": "bool"
        }
      ],
      "name": "setApprovalForAll",
      "outputs": [],
      "stateMutability": "nonpayable",
      "type": "function"
    },
    {
      "inputs": [
        {
          "internalType": "bytes4",
          "name": "interfaceId",
          "type": "bytes4"
        }
      ],
      "name": "supportsInterface",
      "outputs": [
        {
          "internalType": "bool",
          "name": "",
          "type": "bool"
        }
      ],
      "stateMutability": "view",
      "type": "function"
    },
    {
      "inputs": [],
      "name": "symbol",
      "outputs": [
        {
          "internalType": "string",
          "name": "",
          "type": "string"
        }
      ],
      "stateMutability": "view",
      "type": "function"
    },
    {
      "inputs": [
        {
          "internalType": "uint256",
          "name": "tokenId",
          "type": "uint256"
        }
      ],
      "name": "tokenURI",
      "outputs": [
        {
          "internalType": "string",
          "name": "",
          "type": "string"
        }
      ],
      "stateMutability": "view",
      "type": "function"
    },
    {
      "inputs": [
        {
          "internalType": "address",
          "name": "from",
          "type": "address"
        },
        {
          "internalType": "address",
          "name": "to",
          "type": "address"
        },
        {
          "internalType": "uint256",
          "name": "tokenId",
          "type": "uint256"
        }
      ],
      "name": "transferFrom",
      "outputs": [],
      "stateMutability": "nonpayable",
      "type": "function"
    }
  ],
  "bytecode": "0x608060405234801561001057600080fd5b506040518060400160405280600e81526020017f45647543657274696669636174650000000000000000000000000000000000008152506040518060400160405280600681526020017f4544434552540000000000000000000000000000000000000000000000000000815250816000908161008c9190610497565b50806001908161009c9190610497565b5050506100b26000801b336100e760201b60201c565b6100e27f9f2df0fed2c77648de5860a4cc508cd0818c85b8b8a1ab4ceeef8d981c8956a6336100e760201b60201c565b610569565b6100f782826101d460201b60201c565b6101d05760016007600084815260200190815260200160002060000160008373ffffffffffffffffffffffffffffffffffffffff1673ffffffffffffffffffffffffffffffffffffffff16815260200190815260200160002060006101000a81548160ff02191690831515021790555061017561023f60201b60201c565b73ffffffffffffffffffffffffffffffffffffffff168173ffffffffffffffffffffffffffffffffffffffff16837f2f8788117e7eff1d82e926ec794901d17c78024a50270940304540a733656f0d60405160405180910390a45b5050565b60006007600084815260200190815260200160002060000160008373ffffffffffffffffffffffffffffffffffffffff1673ffffffffffffffffffffffffffffffffffffffff16815260200190815260200160002060009054906101000a900460ff16905092915050565b600033905090565b600081519050919050565b7f4e487b7100000000000000000000000000000000000000000000000000000000600052604160045260246000fd5b7f4e487b7100000000000000000000000000000000000000000000000000000000600052602260045260246000fd5b600060028204905060018216806102c857607f821691505b6020821081036102db576102da610281565b5b50919050565b60008190508160005260206000209050919050565b60006020601f8301049050919050565b600082821b905092915050565b6000600883026103437fffffffffffffffffffffffffffffffffffffffffffffffffffffffffffffffff82610306565b61034d8683610306565b95508019841693508086168417925050509392505050565b6000819050919050565b6000819050919050565b600061039461038f61038a84610365565b61036f565b610365565b9050919050565b6000819050919050565b6103ae83610379565b6103c26103ba8261039b565b848454610313565b825550505050565b600090565b6103d76103ca565b6103e28184846103a5565b505050565b5b81811015610406576103fb6000826103cf565b6001810190506103e8565b5050565b601f82111561044b5761041c816102e1565b610425846102f6565b81016020851015610434578190505b610448610440856102f6565b8301826103e7565b50505b505050565b600082821c905092915050565b600061046e60001984600802610450565b1980831691505092915050565b6000610487838361045d565b9150826002028217905092915050565b6104a082610247565b67ffffffffffffffff8111156104b9576104b8610252565b5b6104c382546102b0565b6104ce82828561040a565b600060209050601f83116001811461050157600084156104ef578287015190505b6104f9858261047b565b865550610561565b601f19841661050f866102e1565b60005b8281101561053757848901518255600182019150602085019450602081019050610512565b868310156105545784890151610550601f89168261045d565b8355505b6001600288020188555050505b505050505050565b6143b7806105786000396000f3fe608060405234801561001057600080fd5b506004361061018e5760003560e01c806370a08231116100de578063a22cb46511610097578063cfbd488511610071578063cfbd4885146104cc578063d5391393146104e8578063d547741f14610506578063e985e9c5146105225761018e565b8063a22cb46514610464578063b88d4fde14610480578063c87b56dd1461049c5761018e565b806370a082311461037c5780638d13d72d146103ac57806391d14854146103dc57806393b16b451461040c57806395d89b4114610428578063a217fddf146104465761018e565b8063261707fa1161014b57806336568abe1161012557806336568abe146102e157806342842e0e146102fd57806344128c87146103195780636352211e1461034c5761018e565b8063261707fa146102795780632f2ff15d1461029557806331494bbb146102b15761018e565b806301ffc9a71461019357806306fdde03146101c3578063081812fc146101e1578063095ea7b31461021157806323b872dd1461022d578063248a9ca314610249575b600080fd5b6101ad60048036038101906101a89190612c9e565b610552565b6040516101ba9190612ce6565b60405180910390f35b6101cb610564565b6040516101d89190612d91565b60405180910390f35b6101fb60048036038101906101f69190612de9565b6105f6565b6040516102089190612e57565b60405180910390f35b61022b60048036038101906102269190612e9e565b61063c565b005b61024760048036038101906102429190612ede565b610753565b005b610263600480360381019061025e9190612f67565b6107b3565b6040516102709190612fa3565b60405180910390f35b610293600480360381019061028e9190612fbe565b6107d3565b005b6102af60048036038101906102aa9190612feb565b61080e565b005b6102cb60048036038101906102c69190612de9565b61082f565b6040516102d891906130ed565b60405180910390f35b6102fb60048036038101906102f69190612feb565b610aec565b005b61031760048036038101906103129190612ede565b610b6f565b005b610333600480360381019061032e9190612de9565b610b8f565b604051610343949392919061310f565b60405180910390f35b61036660048036038101906103619190612de9565b610ddf565b6040516103739190612e57565b60405180910390f35b61039660048036038101906103919190612fbe565b610e65565b6040516103a3919061317f565b60405180910390f35b6103c660048036038101906103c191906132cf565b610f1c565b6040516103d3919061317f565b60405180910390f35b6103f660048036038101906103f19190612feb565b611061565b6040516104039190612ce6565b60405180910390f35b61042660048036038101906104219190612de9565b6110cc565b005b6104306111ce565b60405161043d9190612d91565b60405180910390f35b61044e611260565b60405161045b9190612fa3565b60405180910390f35b61047e60048036038101906104799190613414565b611267565b005b61049a600480360381019061049591906134f5565b61127d565b005b6104b660048036038101906104b19190612de9565b6112df565b6040516104c39190612d91565b60405180910390f35b6104e660048036038101906104e19190612fbe565b6113f1565b005b6104f061142c565b6040516104fd9190612fa3565b60405180910390f35b610520600480360381019061051b9190612feb565b611450565b005b61053c60048036038101906105379190613578565b611471565b6040516105499190612ce6565b60405180910390f35b600061055d82611505565b9050919050565b606060008054610573906135e7565b80601f016020809104026020016040519081016040528092919081815260200182805461059f906135e7565b80156105ec5780601f106105c1576101008083540402835291602001916105ec565b820191906000526020600020905b8154815290600101906020018083116105cf57829003601f168201915b5050505050905090565b60006106018261157f565b6004600083815260200190815260200160002060009054906101000a900473ffffffffffffffffffffffffffffffffffffffff169050919050565b600061064782610ddf565b90508073ffffffffffffffffffffffffffffffffffffffff168373ffffffffffffffffffffffffffffffffffffffff16036106b7576040517f08c379a00000000000000000000000000000000000000000000000000000000081526004016106ae9061368a565b60405180910390fd5b8073ffffffffffffffffffffffffffffffffffffffff166106d66115ca565b73ffffffffffffffffffffffffffffffffffffffff1614806107055750610704816106ff6115ca565b611471565b5b610744576040517f08c379a000000000000000000000000000000000000000000000000000000000815260040161073b9061371c565b60405180910390fd5b61074e83836115d2565b505050565b61076461075e6115ca565b8261168b565b6107a3576040517f08c379a000000000000000000000000000000000000000000000000000000000815260040161079a906137ae565b60405180910390fd5b6107ae838383611720565b505050565b600060076000838152602001908152602001600020600101549050919050565b6000801b6107e081611a19565b61080a7f9f2df0fed2c77648de5860a4cc508cd0818c85b8b8a1ab4ceeef8d981c8956a683611a2d565b5050565b610817826107b3565b61082081611a19565b61082a8383611a2d565b505050565b610837612bad565b61084082611b0e565b61087f576040517f08c379a00000000000000000000000000000000000000000000000000000000081526004016108769061381a565b60405180910390fd5b600960008381526020019081526020016000206040518060800160405290816000820180546108ad906135e7565b80601f01602080910402602001604051908101604052809291908181526020018280546108d9906135e7565b80156109265780601f106108fb57610100808354040283529160200191610926565b820191906000526020600020905b81548152906001019060200180831161090957829003601f168201915b5050505050815260200160018201805461093f906135e7565b80601f016020809104026020016040519081016040528092919081815260200182805461096b906135e7565b80156109b85780601f1061098d576101008083540402835291602001916109b8565b820191906000526020600020905b81548152906001019060200180831161099b57829003601f168201915b505050505081526020016002820180546109d1906135e7565b80601f01602080910402602001604051908101604052809291908181526020018280546109fd906135e7565b8015610a4a5780601f10610a1f57610100808354040283529160200191610a4a565b820191906000526020600020905b815481529060010190602001808311610a2d57829003601f168201915b50505050508152602001600382018054610a63906135e7565b80601f0160208091040260200160405190810160405280929190818152602001828054610a8f906135e7565b8015610adc5780601f10610ab157610100808354040283529160200191610adc565b820191906000526020600020905b815481529060010190602001808311610abf57829003601f168201915b5050505050815250509050919050565b610af46115ca565b73ffffffffffffffffffffffffffffffffffffffff168173ffffffffffffffffffffffffffffffffffffffff1614610b61576040517f08c379a0000000000000000000000000000000000000000000000000000000008152600401610b58906138ac565b60405180910390fd5b610b6b8282611b4f565b5050565b610b8a8383836040518060200160405280600081525061127d565b505050565b6009602052806000526040600020600091509050806000018054610bb2906135e7565b80601f0160208091040260200160405190810160405280929190818152602001828054610bde906135e7565b8015610c2b5780601f10610c0057610100808354040283529160200191610c2b565b820191906000526020600020905b815481529060010190602001808311610c0e57829003601f168201915b505050505090806001018054610c40906135e7565b80601f0160208091040260200160405190810160405280929190818152602001828054610c6c906135e7565b8015610cb95780601f10610c8e57610100808354040283529160200191610cb9565b820191906000526020600020905b815481529060010190602001808311610c9c57829003601f168201915b505050505090806002018054610cce906135e7565b80601f0160208091040260200160405190810160405280929190818152602001828054610cfa906135e7565b8015610d475780601f10610d1c57610100808354040283529160200191610d47565b820191906000526020600020905b815481529060010190602001808311610d2a57829003601f168201915b505050505090806003018054610d5c906135e7565b80601f0160208091040260200160405190810160405280929190818152602001828054610d88906135e7565b8015610dd55780601f10610daa57610100808354040283529160200191610dd5565b820191906000526020600020905b815481529060010190602001808311610db857829003601f168201915b5050505050905084565b600080610deb83611c31565b9050600073ffffffffffffffffffffffffffffffffffffffff168173ffffffffffffffffffffffffffffffffffffffff1603610e5c576040517f08c379a0000000000000000000000000000000000000000000000000000000008152600401610e5390613918565b60405180910390fd5b80915050919050565b60008073ffffffffffffffffffffffffffffffffffffffff168273ffffffffffffffffffffffffffffffffffffffff1603610ed5576040517f08c379a0000000000000000000000000000000000000000000000000000000008152600401610ecc906139aa565b60405180910390fd5b600360008373ffffffffffffffffffffffffffffffffffffffff1673ffffffffffffffffffffffffffffffffffffffff168152602001908152602001600020549050919050565b60007f9f2df0fed2c77648de5860a4cc508cd0818c85b8b8a1ab4ceeef8d981c8956a6610f4881611a19565b610f526008611c6e565b6000610f5e6008611c84565b9050610f6a8982611c92565b610f748189611eaf565b604051806080016040528088815260200187815260200186815260200185815250600960008381526020019081526020016000206000820151816000019081610fbd9190613b76565b506020820151816001019081610fd39190613b76565b506040820151816002019081610fe99190613b76565b506060820151816003019081610fff9190613b76565b50905050808973ffffffffffffffffffffffffffffffffffffffff167fde5d6fd45e32fffb472bcbaeedf6a2e3944633c9701eec7d99adfa07ad6104c18a60405161104a9190612d91565b60405180910390a380925050509695505050505050565b60006007600084815260200190815260200160002060000160008373ffffffffffffffffffffffffffffffffffffffff1673ffffffffffffffffffffffffffffffffffffffff16815260200190815260200160002060009054906101000a900460ff16905092915050565b7f9f2df0fed2c77648de5860a4cc508cd0818c85b8b8a1ab4ceeef8d981c8956a66110f681611a19565b6110ff82611b0e565b61113e576040517f08c379a00000000000000000000000000000000000000000000000000000000081526004016111359061381a565b60405180910390fd5b61114782611f53565b600960008381526020019081526020016000206000808201600061116b9190612bd5565b60018201600061117b9190612bd5565b60028201600061118b9190612bd5565b60038201600061119b9190612bd5565b5050817fb5b5ff4ec0735adc942b77efd721b86b1b579d7afac0c1ae614681eead1dfbe360405160405180910390a25050565b6060600180546111dd906135e7565b80601f0160208091040260200160405190810160405280929190818152602001828054611209906135e7565b80156112565780601f1061122b57610100808354040283529160200191611256565b820191906000526020600020905b81548152906001019060200180831161123957829003601f168201915b5050505050905090565b6000801b81565b6112796112726115ca565b8383611fa6565b5050565b61128e6112886115ca565b8361168b565b6112cd576040517f08c379a00000000000000000000000000000000000000000000000000000000081526004016112c4906137ae565b60405180910390fd5b6112d984848484612112565b50505050565b60606112ea8261157f565b600060066000848152602001908152602001600020805461130a906135e7565b80601f0160208091040260200160405190810160405280929190818152602001828054611336906135e7565b80156113835780601f1061135857610100808354040283529160200191611383565b820191906000526020600020905b81548152906001019060200180831161136657829003601f168201915b50505050509050600061139461216e565b905060008151036113a95781925050506113ec565b6000825111156113de5780826040516020016113c6929190613c84565b604051602081830303815290604052925050506113ec565b6113e784612185565b925050505b919050565b6000801b6113fe81611a19565b6114287f9f2df0fed2c77648de5860a4cc508cd0818c85b8b8a1ab4ceeef8d981c8956a683611b4f565b5050565b7f9f2df0fed2c77648de5860a4cc508cd0818c85b8b8a1ab4ceeef8d981c8956a681565b611459826107b3565b61146281611a19565b61146c8383611b4f565b505050565b6000600560008473ffffffffffffffffffffffffffffffffffffffff1673ffffffffffffffffffffffffffffffffffffffff16815260200190815260200160002060008373ffffffffffffffffffffffffffffffffffffffff1673ffffffffffffffffffffffffffffffffffffffff16815260200190815260200160002060009054906101000a900460ff16905092915050565b60007f7965db0b000000000000000000000000000000000000000000000000000000007bffffffffffffffffffffffffffffffffffffffffffffffffffffffff1916827bffffffffffffffffffffffffffffffffffffffffffffffffffffffff191614806115785750611577826121ed565b5b9050919050565b61158881611b0e565b6115c7576040517f08c379a00000000000000000000000000000000000000000000000000000000081526004016115be90613918565b60405180910390fd5b50565b600033905090565b816004600083815260200190815260200160002060006101000a81548173ffffffffffffffffffffffffffffffffffffffff021916908373ffffffffffffffffffffffffffffffffffffffff160217905550808273ffffffffffffffffffffffffffffffffffffffff1661164583610ddf565b73ffffffffffffffffffffffffffffffffffffffff167f8c5be1e5ebec7d5bd14f71427d1e84f3dd0314c0f7b2291e5b200ac8c7c3b92560405160405180910390a45050565b60008061169783610ddf565b90508073ffffffffffffffffffffffffffffffffffffffff168473ffffffffffffffffffffffffffffffffffffffff1614806116d957506116d88185611471565b5b8061171757508373ffffffffffffffffffffffffffffffffffffffff166116ff846105f6565b73ffffffffffffffffffffffffffffffffffffffff16145b91505092915050565b8273ffffffffffffffffffffffffffffffffffffffff1661174082610ddf565b73ffffffffffffffffffffffffffffffffffffffff1614611796576040517f08c379a000000000000000000000000000000000000000000000000000000000815260040161178d90613d1a565b60405180910390fd5b600073ffffffffffffffffffffffffffffffffffffffff168273ffffffffffffffffffffffffffffffffffffffff1603611805576040517f08c379a00000000000000000000000000000000000000000000000000000000081526004016117fc90613dac565b60405180910390fd5b611812838383600161224e565b8273ffffffffffffffffffffffffffffffffffffffff1661183282610ddf565b73ffffffffffffffffffffffffffffffffffffffff1614611888576040517f08c379a000000000000000000000000000000000000000000000000000000000815260040161187f90613d1a565b60405180910390fd5b6004600082815260200190815260200160002060006101000a81549073ffffffffffffffffffffffffffffffffffffffff02191690556001600360008573ffffffffffffffffffffffffffffffffffffffff1673ffffffffffffffffffffffffffffffffffffffff168152602001908152602001600020600082825403925050819055506001600360008473ffffffffffffffffffffffffffffffffffffffff1673ffffffffffffffffffffffffffffffffffffffff16815260200190815260200160002060008282540192505081905550816002600083815260200190815260200160002060006101000a81548173ffffffffffffffffffffffffffffffffffffffff021916908373ffffffffffffffffffffffffffffffffffffffff160217905550808273ffffffffffffffffffffffffffffffffffffffff168473ffffffffffffffffffffffffffffffffffffffff167fddf252ad1be2c89b69c2b068fc378daa952ba7f163c4a11628f55a4df523b3ef60405160405180910390a4611a148383836001612254565b505050565b611a2a81611a256115ca565b61225a565b50565b611a378282611061565b611b0a5760016007600084815260200190815260200160002060000160008373ffffffffffffffffffffffffffffffffffffffff1673ffffffffffffffffffffffffffffffffffffffff16815260200190815260200160002060006101000a81548160ff021916908315150217905550611aaf6115ca565b73ffffffffffffffffffffffffffffffffffffffff168173ffffffffffffffffffffffffffffffffffffffff16837f2f8788117e7eff1d82e926ec794901d17c78024a50270940304540a733656f0d60405160405180910390a45b5050565b60008073ffffffffffffffffffffffffffffffffffffffff16611b3083611c31565b73ffffffffffffffffffffffffffffffffffffffff1614159050919050565b611b598282611061565b15611c2d5760006007600084815260200190815260200160002060000160008373ffffffffffffffffffffffffffffffffffffffff1673ffffffffffffffffffffffffffffffffffffffff16815260200190815260200160002060006101000a81548160ff021916908315150217905550611bd26115ca565b73ffffffffffffffffffffffffffffffffffffffff168173ffffffffffffffffffffffffffffffffffffffff16837ff6391f5c32d9c69d2a47ea670b442974b53935d1edc7fd64eb21e047a839171b60405160405180910390a45b5050565b60006002600083815260200190815260200160002060009054906101000a900473ffffffffffffffffffffffffffffffffffffffff169050919050565b6001816000016000828254019250508190555050565b600081600001549050919050565b600073ffffffffffffffffffffffffffffffffffffffff168273ffffffffffffffffffffffffffffffffffffffff1603611d01576040517f08c379a0000000000000000000000000000000000000000000000000000000008152600401611cf890613e18565b60405180910390fd5b611d0a81611b0e565b15611d4a576040517f08c379a0000000000000000000000000000000000000000000000000000000008152600401611d4190613e84565b60405180910390fd5b611d5860008383600161224e565b611d6181611b0e565b15611da1576040517f08c379a0000000000000000000000000000000000000000000000000000000008152600401611d9890613e84565b60405180910390fd5b6001600360008473ffffffffffffffffffffffffffffffffffffffff1673ffffffffffffffffffffffffffffffffffffffff16815260200190815260200160002060008282540192505081905550816002600083815260200190815260200160002060006101000a81548173ffffffffffffffffffffffffffffffffffffffff021916908373ffffffffffffffffffffffffffffffffffffffff160217905550808273ffffffffffffffffffffffffffffffffffffffff16600073ffffffffffffffffffffffffffffffffffffffff167fddf252ad1be2c89b69c2b068fc378daa952ba7f163c4a11628f55a4df523b3ef60405160405180910390a4611eab600083836001612254565b5050565b611eb882611b0e565b611ef7576040517f08c379a0000000000000000000000000000000000000000000000000000000008152600401611eee90613f16565b60405180910390fd5b80600660008481526020019081526020016000209081611f179190613b76565b507ff8e1a15aba9398e019f0b49df1a4fde98ee17ae345cb5f6b5e2c27f5033e8ce782604051611f47919061317f565b60405180910390a15050565b611f5c816122df565b6000600660008381526020019081526020016000208054611f7c906135e7565b905014611fa357600660008281526020019081526020016000206000611fa29190612bd5565b5b50565b8173ffffffffffffffffffffffffffffffffffffffff168373ffffffffffffffffffffffffffffffffffffffff1603612014576040517f08c379a000000000000000000000000000000000000000000000000000000000815260040161200b90613f82565b60405180910390fd5b80600560008573ffffffffffffffffffffffffffffffffffffffff1673ffffffffffffffffffffffffffffffffffffffff16815260200190815260200160002060008473ffffffffffffffffffffffffffffffffffffffff1673ffffffffffffffffffffffffffffffffffffffff16815260200190815260200160002060006101000a81548160ff0219169083151502179055508173ffffffffffffffffffffffffffffffffffffffff168373ffffffffffffffffffffffffffffffffffffffff167f17307eab39ab6107e8899845ad3d59bd9653f200f220920489ca2b5937696c31836040516121059190612ce6565b60405180910390a3505050565b61211d848484611720565b6121298484848461242d565b612168576040517f08c379a000000000000000000000000000000000000000000000000000000000815260040161215f90614014565b60405180910390fd5b50505050565b606060405180602001604052806000815250905090565b60606121908261157f565b600061219a61216e565b905060008151116121ba57604051806020016040528060008152506121e5565b806121c4846125b4565b6040516020016121d5929190613c84565b6040516020818303038152906040525b915050919050565b6000634906490660e01b7bffffffffffffffffffffffffffffffffffffffffffffffffffffffff1916827bffffffffffffffffffffffffffffffffffffffffffffffffffffffff19161480612247575061224682612682565b5b9050919050565b50505050565b50505050565b6122648282611061565b6122db5761227181612764565b61227f8360001c6020612791565b6040516020016122909291906140cc565b6040516020818303038152906040526040517f08c379a00000000000000000000000000000000000000000000000000000000081526004016122d29190612d91565b60405180910390fd5b5050565b60006122ea82610ddf565b90506122fa81600084600161224e565b61230382610ddf565b90506004600083815260200190815260200160002060006101000a81549073ffffffffffffffffffffffffffffffffffffffff02191690556001600360008373ffffffffffffffffffffffffffffffffffffffff1673ffffffffffffffffffffffffffffffffffffffff168152602001908152602001600020600082825403925050819055506002600083815260200190815260200160002060006101000a81549073ffffffffffffffffffffffffffffffffffffffff021916905581600073ffffffffffffffffffffffffffffffffffffffff168273ffffffffffffffffffffffffffffffffffffffff167fddf252ad1be2c89b69c2b068fc378daa952ba7f163c4a11628f55a4df523b3ef60405160405180910390a4612429816000846001612254565b5050565b600061244e8473ffffffffffffffffffffffffffffffffffffffff166129cd565b156125a7578373ffffffffffffffffffffffffffffffffffffffff1663150b7a026124776115ca565b8786866040518563ffffffff1660e01b8152600401612499949392919061415b565b6020604051808303816000875af19250505080156124d557506040513d601f19601f820116820180604052508101906124d291906141bc565b60015b612557573d8060008114612505576040519150601f19603f3d011682016040523d82523d6000602084013e61250a565b606091505b50600081510361254f576040517f08c379a000000000000000000000000000000000000000000000000000000000815260040161254690614014565b60405180910390fd5b805181602001fd5b63150b7a0260e01b7bffffffffffffffffffffffffffffffffffffffffffffffffffffffff1916817bffffffffffffffffffffffffffffffffffffffffffffffffffffffff1916149150506125ac565b600190505b949350505050565b6060600060016125c3846129f0565b01905060008167ffffffffffffffff8111156125e2576125e16131a4565b5b6040519080825280601f01601f1916602001820160405280156126145781602001600182028036833780820191505090505b509050600082602001820190505b600115612677578080600190039150507f3031323334353637383961626364656600000000000000000000000000000000600a86061a8153600a858161266b5761266a6141e9565b5b04945060008503612622575b819350505050919050565b60007f80ac58cd000000000000000000000000000000000000000000000000000000007bffffffffffffffffffffffffffffffffffffffffffffffffffffffff1916827bffffffffffffffffffffffffffffffffffffffffffffffffffffffff1916148061274d57507f5b5e139f000000000000000000000000000000000000000000000000000000007bffffffffffffffffffffffffffffffffffffffffffffffffffffffff1916827bffffffffffffffffffffffffffffffffffffffffffffffffffffffff1916145b8061275d575061275c82612b43565b5b9050919050565b606061278a8273ffffffffffffffffffffffffffffffffffffffff16601460ff16612791565b9050919050565b6060600060028360026127a49190614247565b6127ae9190614289565b67ffffffffffffffff8111156127c7576127c66131a4565b5b6040519080825280601f01601f1916602001820160405280156127f95781602001600182028036833780820191505090505b5090507f300000000000000000000000000000000000000000000000000000000000000081600081518110612831576128306142bd565b5b60200101907effffffffffffffffffffffffffffffffffffffffffffffffffffffffffffff1916908160001a9053507f780000000000000000000000000000000000000000000000000000000000000081600181518110612895576128946142bd565b5b60200101907effffffffffffffffffffffffffffffffffffffffffffffffffffffffffffff1916908160001a905350600060018460026128d59190614247565b6128df9190614289565b90505b600181111561297f577f3031323334353637383961626364656600000000000000000000000000000000600f861660108110612921576129206142bd565b5b1a60f81b828281518110612938576129376142bd565b5b60200101907effffffffffffffffffffffffffffffffffffffffffffffffffffffffffffff1916908160001a905350600485901c945080612978906142ec565b90506128e2565b50600084146129c3576040517f08c379a00000000000000000000000000000000000000000000000000000000081526004016129ba90614361565b60405180910390fd5b8091505092915050565b6000808273ffffffffffffffffffffffffffffffffffffffff163b119050919050565b600080600090507a184f03e93ff9f4daa797ed6e38ed64bf6a1f0100000000000000008310612a4e577a184f03e93ff9f4daa797ed6e38ed64bf6a1f0100000000000000008381612a4457612a436141e9565b5b0492506040810190505b6d04ee2d6d415b85acef81000000008310612a8b576d04ee2d6d415b85acef81000000008381612a8157612a806141e9565b5b0492506020810190505b662386f26fc100008310612aba57662386f26fc100008381612ab057612aaf6141e9565b5b0492506010810190505b6305f5e1008310612ae3576305f5e1008381612ad957612ad86141e9565b5b0492506008810190505b6127108310612b08576127108381612afe57612afd6141e9565b5b0492506004810190505b60648310612b2b5760648381612b2157612b206141e9565b5b0492506002810190505b600a8310612b3a576001810190505b80915050919050565b60007f01ffc9a7000000000000000000000000000000000000000000000000000000007bffffffffffffffffffffffffffffffffffffffffffffffffffffffff1916827bffffffffffffffffffffffffffffffffffffffffffffffffffffffff1916149050919050565b6040518060800160405280606081526020016060815260200160608152602001606081525090565b508054612be1906135e7565b6000825580601f10612bf35750612c12565b601f016020900490600052602060002090810190612c119190612c15565b5b50565b5b80821115612c2e576000816000905550600101612c16565b5090565b6000604051905090565b600080fd5b600080fd5b60007fffffffff0000000000000000000000000000000000000000000000000000000082169050919050565b612c7b81612c46565b8114612c8657600080fd5b50565b600081359050612c9881612c72565b92915050565b600060208284031215612cb457612cb3612c3c565b5b6000612cc284828501612c89565b91505092915050565b60008115159050919050565b612ce081612ccb565b82525050565b6000602082019050612cfb6000830184612cd7565b92915050565b600081519050919050565b600082825260208201905092915050565b60005b83811015612d3b578082015181840152602081019050612d20565b60008484015250505050565b6000601f19601f8301169050919050565b6000612d6382612d01565b612d6d8185612d0c565b9350612d7d818560208601612d1d565b612d8681612d47565b840191505092915050565b60006020820190508181036000830152612dab8184612d58565b905092915050565b6000819050919050565b612dc681612db3565b8114612dd157600080fd5b50565b600081359050612de381612dbd565b92915050565b600060208284031215612dff57612dfe612c3c565b5b6000612e0d84828501612dd4565b91505092915050565b600073ffffffffffffffffffffffffffffffffffffffff82169050919050565b6000612e4182612e16565b9050919050565b612e5181612e36565b82525050565b6000602082019050612e6c6000830184612e48565b92915050565b612e7b81612e36565b8114612e8657600080fd5b50565b600081359050612e9881612e72565b92915050565b60008060408385031215612eb557612eb4612c3c565b5b6000612ec385828601612e89565b9250506020612ed485828601612dd4565b9150509250929050565b600080600060608486031215612ef757612ef6612c3c565b5b6000612f0586828701612e89565b9350506020612f1686828701612e89565b9250506040612f2786828701612dd4565b9150509250925092565b6000819050919050565b612f4481612f31565b8114612f4f57600080fd5b50565b600081359050612f6181612f3b565b92915050565b600060208284031215612f7d57612f7c612c3c565b5b6000612f8b84828501612f52565b91505092915050565b612f9d81612f31565b82525050565b6000602082019050612fb86000830184612f94565b92915050565b600060208284031215612fd457612fd3612c3c565b5b6000612fe284828501612e89565b91505092915050565b6000806040838503121561300257613001612c3c565b5b600061301085828601612f52565b925050602061302185828601612e89565b9150509250929050565b600082825260208201905092915050565b600061304782612d01565b613051818561302b565b9350613061818560208601612d1d565b61306a81612d47565b840191505092915050565b60006080830160008301518482036000860152613092828261303c565b915050602083015184820360208601526130ac828261303c565b915050604083015184820360408601526130c6828261303c565b915050606083015184820360608601526130e0828261303c565b9150508091505092915050565b600060208201905081810360008301526131078184613075565b905092915050565b600060808201905081810360008301526131298187612d58565b9050818103602083015261313d8186612d58565b905081810360408301526131518185612d58565b905081810360608301526131658184612d58565b905095945050505050565b61317981612db3565b82525050565b60006020820190506131946000830184613170565b92915050565b600080fd5b600080fd5b7f4e487b7100000000000000000000000000000000000000000000000000000000600052604160045260246000fd5b6131dc82612d47565b810181811067ffffffffffffffff821117156131fb576131fa6131a4565b5b80604052505050565b600061320e612c32565b905061321a82826131d3565b919050565b600067ffffffffffffffff82111561323a576132396131a4565b5b61324382612d47565b9050602081019050919050565b82818337600083830152505050565b600061327261326d8461321f565b613204565b90508281526020810184848401111561328e5761328d61319f565b5b613299848285613250565b509392505050565b600082601f8301126132b6576132b561319a565b5b81356132c684826020860161325f565b91505092915050565b60008060008060008060c087890312156132ec576132eb612c3c565b5b60006132fa89828a01612e89565b965050602087013567ffffffffffffffff81111561331b5761331a612c41565b5b61332789828a016132a1565b955050604087013567ffffffffffffffff81111561334857613347612c41565b5b61335489828a016132a1565b945050606087013567ffffffffffffffff81111561337557613374612c41565b5b61338189828a016132a1565b935050608087013567ffffffffffffffff8111156133a2576133a1612c41565b5b6133ae89828a016132a1565b92505060a087013567ffffffffffffffff8111156133cf576133ce612c41565b5b6133db89828a016132a1565b9150509295509295509295565b6133f181612ccb565b81146133fc57600080fd5b50565b60008135905061340e816133e8565b92915050565b6000806040838503121561342b5761342a612c3c565b5b600061343985828601612e89565b925050602061344a858286016133ff565b9150509250929050565b600067ffffffffffffffff82111561346f5761346e6131a4565b5b61347882612d47565b9050602081019050919050565b600061349861349384613454565b613204565b9050828152602081018484840111156134b4576134b361319f565b5b6134bf848285613250565b509392505050565b600082601f8301126134dc576134db61319a565b5b81356134ec848260208601613485565b91505092915050565b6000806000806080858703121561350f5761350e612c3c565b5b600061351d87828801612e89565b945050602061352e87828801612e89565b935050604061353f87828801612dd4565b925050606085013567ffffffffffffffff8111156135605761355f612c41565b5b61356c878288016134c7565b91505092959194509250565b6000806040838503121561358f5761358e612c3c565b5b600061359d85828601612e89565b92505060206135ae85828601612e89565b9150509250929050565b7f4e487b7100000000000000000000000000000000000000000000000000000000600052602260045260246000fd5b600060028204905060018216806135ff57607f821691505b602082108103613612576136116135b8565b5b50919050565b7f4552433732313a20617070726f76616c20746f2063757272656e74206f776e6560008201527f7200000000000000000000000000000000000000000000000000000000000000602082015250565b6000613674602183612d0c565b915061367f82613618565b604082019050919050565b600060208201905081810360008301526136a381613667565b9050919050565b7f4552433732313a20617070726f76652063616c6c6572206973206e6f7420746f60008201527f6b656e206f776e6572206f7220617070726f76656420666f7220616c6c000000602082015250565b6000613706603d83612d0c565b9150613711826136aa565b604082019050919050565b60006020820190508181036000830152613735816136f9565b9050919050565b7f4552433732313a2063616c6c6572206973206e6f7420746f6b656e206f776e6560008201527f72206f7220617070726f76656400000000000000000000000000000000000000602082015250565b6000613798602d83612d0c565b91506137a38261373c565b604082019050919050565b600060208201905081810360008301526137c78161378b565b9050919050565b7f546f6b656e20646f6573206e6f74206578697374000000000000000000000000600082015250565b6000613804601483612d0c565b915061380f826137ce565b602082019050919050565b60006020820190508181036000830152613833816137f7565b9050919050565b7f416363657373436f6e74726f6c3a2063616e206f6e6c792072656e6f756e636560008201527f20726f6c657320666f722073656c660000000000000000000000000000000000602082015250565b6000613896602f83612d0c565b91506138a18261383a565b604082019050919050565b600060208201905081810360008301526138c581613889565b9050919050565b7f4552433732313a20696e76616c696420746f6b656e2049440000000000000000600082015250565b6000613902601883612d0c565b915061390d826138cc565b602082019050919050565b60006020820190508181036000830152613931816138f5565b9050919050565b7f4552433732313a2061646472657373207a65726f206973206e6f74206120766160008201527f6c6964206f776e65720000000000000000000000000000000000000000000000602082015250565b6000613994602983612d0c565b915061399f82613938565b604082019050919050565b600060208201905081810360008301526139c381613987565b9050919050565b60008190508160005260206000209050919050565b60006020601f8301049050919050565b600082821b905092915050565b600060088302613a2c7fffffffffffffffffffffffffffffffffffffffffffffffffffffffffffffffff826139ef565b613a3686836139ef565b95508019841693508086168417925050509392505050565b6000819050919050565b6000613a73613a6e613a6984612db3565b613a4e565b612db3565b9050919050565b6000819050919050565b613a8d83613a58565b613aa1613a9982613a7a565b8484546139fc565b825550505050565b600090565b613ab6613aa9565b613ac1818484613a84565b505050565b5b81811015613ae557613ada600082613aae565b600181019050613ac7565b5050565b601f821115613b2a57613afb816139ca565b613b04846139df565b81016020851015613b13578190505b613b27613b1f856139df565b830182613ac6565b50505b505050565b600082821c905092915050565b6000613b4d60001984600802613b2f565b1980831691505092915050565b6000613b668383613b3c565b9150826002028217905092915050565b613b7f82612d01565b67ffffffffffffffff811115613b9857613b976131a4565b5b613ba282546135e7565b613bad828285613ae9565b600060209050601f831160018114613be05760008415613bce578287015190505b613bd88582613b5a565b865550613c40565b601f198416613bee866139ca565b60005b82811015613c1657848901518255600182019150602085019450602081019050613bf1565b86831015613c335784890151613c2f601f891682613b3c565b8355505b6001600288020188555050505b505050505050565b600081905092915050565b6000613c5e82612d01565b613c688185613c48565b9350613c78818560208601612d1d565b80840191505092915050565b6000613c908285613c53565b9150613c9c8284613c53565b91508190509392505050565b7f4552433732313a207472616e736665722066726f6d20696e636f72726563742060008201527f6f776e6572000000000000000000000000000000000000000000000000000000602082015250565b6000613d04602583612d0c565b9150613d0f82613ca8565b604082019050919050565b60006020820190508181036000830152613d3381613cf7565b9050919050565b7f4552433732313a207472616e7366657220746f20746865207a65726f2061646460008201527f7265737300000000000000000000000000000000000000000000000000000000602082015250565b6000613d96602483612d0c565b9150613da182613d3a565b604082019050919050565b60006020820190508181036000830152613dc581613d89565b9050919050565b7f4552433732313a206d696e7420746f20746865207a65726f2061646472657373600082015250565b6000613e02602083612d0c565b9150613e0d82613dcc565b602082019050919050565b60006020820190508181036000830152613e3181613df5565b9050919050565b7f4552433732313a20746f6b656e20616c7265616479206d696e74656400000000600082015250565b6000613e6e601c83612d0c565b9150613e7982613e38565b602082019050919050565b60006020820190508181036000830152613e9d81613e61565b9050919050565b7f45524337323155524953746f726167653a2055524920736574206f66206e6f6e60008201527f6578697374656e7420746f6b656e000000000000000000000000000000000000602082015250565b6000613f00602e83612d0c565b9150613f0b82613ea4565b604082019050919050565b60006020820190508181036000830152613f2f81613ef3565b9050919050565b7f4552433732313a20617070726f766520746f2063616c6c657200000000000000600082015250565b6000613f6c601983612d0c565b9150613f7782613f36565b602082019050919050565b60006020820190508181036000830152613f9b81613f5f565b9050919050565b7f4552433732313a207472616e7366657220746f206e6f6e20455243373231526560008201527f63656976657220696d706c656d656e7465720000000000000000000000000000602082015250565b6000613ffe603283612d0c565b915061400982613fa2565b604082019050919050565b6000602082019050818103600083015261402d81613ff1565b9050919050565b7f416363657373436f6e74726f6c3a206163636f756e7420000000000000000000600082015250565b600061406a601783613c48565b915061407582614034565b601782019050919050565b7f206973206d697373696e6720726f6c6520000000000000000000000000000000600082015250565b60006140b6601183613c48565b91506140c182614080565b601182019050919050565b60006140d78261405d565b91506140e38285613c53565b91506140ee826140a9565b91506140fa8284613c53565b91508190509392505050565b600081519050919050565b600082825260208201905092915050565b600061412d82614106565b6141378185614111565b9350614147818560208601612d1d565b61415081612d47565b840191505092915050565b60006080820190506141706000830187612e48565b61417d6020830186612e48565b61418a6040830185613170565b818103606083015261419c8184614122565b905095945050505050565b6000815190506141b681612c72565b92915050565b6000602082840312156141d2576141d1612c3c565b5b60006141e0848285016141a7565b91505092915050565b7f4e487b7100000000000000000000000000000000000000000000000000000000600052601260045260246000fd5b7f4e487b7100000000000000000000000000000000000000000000000000000000600052601160045260246000fd5b600061425282612db3565b915061425d83612db3565b925082820261426b81612db3565b9150828204841483151761428257614281614218565b5b5092915050565b600061429482612db3565b915061429f83612db3565b92508282019050808211156142b7576142b6614218565b5b92915050565b7f4e487b7100000000000000000000000000000000000000000000000000000000600052603260045260246000fd5b60006142f782612db3565b91506000820361430a57614309614218565b5b600182039050919050565b7f537472696e67733a20686578206c656e67746820696e73756666696369656e74600082015250565b600061434b602083612d0c565b915061435682614315565b602082019050919050565b6000602082019050818103600083015261437a8161433e565b905091905056fea26469706673582212205e4689d323ed5453677a43eaedc4de3a4a108b5b4dcc35f15838b6176559381e64736f6c634300081c0033",
  "linkReferences": {},
  "deployedLinkReferences": {}
}