{
  "_format": "hh-sol-artifact-1",
  "contractName": "EduCertificateNFT",
  "sourceName": "contracts/EduCertificateNFT.sol",
  "abi": [
    {
      "inputs": [],
      "stateMutability": "nonpayable",
      "type": "constructor"
    },
    {
      "anonymous": false,
      "inputs": [
        {
          "indexed": true,
          "internalType": "address",
          "name": "owner",
          "type": "address"
        },
        {
          "indexed": true,
          "internalType": "address",
          "name": "approved",
          "type": "address"
        },
        {
          "indexed": true,
          "internalType": "uint256",
          "name": "tokenId",
          "type": "uint256"
        }
      ],
      "name": "Approval",
      "type": "event"
    },
    {
      "anonymous": false,
      "inputs": [
        {
          "indexed": true,
          "internalType": "address",
          "name": "owner",
          "type": "address"
        },
        {
          "indexed": true,
          "internalType": "address",
          "name": "operator",
          "type": "address"
        },
        {
          "indexed": false,
          "internalType": "bool",
          "name": "approved",
          "type": "bool"
        }
      ],
      "name": "ApprovalForAll",
      "type": "event"
    },
    {
      "anonymous": false,
      "inputs": [
        {
          "indexed": false,
          "internalType": "uint256",
          "name": "_fromTokenId",
          "type": "uint256"
        },
        {
          "indexed": false,
          "internalType": "uint256",
          "name": "_toTokenId",
          "type": "uint256"
        }
      ],
      "name": "BatchMetadataUpdate",
      "type": "event"
    },
    {
      "anonymous": false,
      "inputs": [
        {
          "indexed": true,
          "internalType": "uint256",
          "name": "tokenId",
          "type": "uint256"
        }
      ],
      "name": "CertificateBurned",
      "type": "event"
    },
    {
      "anonymous": false,
      "inputs": [
        {
          "indexed": true,
          "internalType": "address",
          "name": "student",
          "type": "address"
        },
        {
          "indexed": true,
          "internalType": "uint256",
          "name": "tokenId",
          "type": "uint256"
        },
        {
          "indexed": false,
          "internalType": "string",
          "name": "uri",
          "type": "string"
        }
      ],
      "name": "CertificateMinted",
      "type": "event"
    },
    {
      "anonymous": false,
      "inputs": [
        {
          "indexed": false,
          "internalType": "uint256",
          "name": "_tokenId",
          "type": "uint256"
        }
      ],
      "name": "MetadataUpdate",
      "type": "event"
    },
    {
      "anonymous": false,
      "inputs": [
        {
          "indexed": true,
          "internalType": "bytes32",
          "name": "role",
          "type": "bytes32"
        },
        {
          "indexed": true,
          "internalType": "bytes32",
          "name": "previousAdminRole",
          "type": "bytes32"
        },
        {
          "indexed": true,
          "internalType": "bytes32",
          "name": "newAdminRole",
          "type": "bytes32"
        }
      ],
      "name": "RoleAdminChanged",
      "type": "event"
    },
    {
      "anonymous": false,
      "inputs": [
        {
          "indexed": true,
          "internalType": "bytes32",
          "name": "role",
          "type": "bytes32"
        },
        {
          "indexed": true,
          "internalType": "address",
          "name": "account",
          "type": "address"
        },
        {
          "indexed": true,
          "internalType": "address",
          "name": "sender",
          "type": "address"
        }
      ],
      "name": "RoleGranted",
      "type": "event"
    },
    {
      "anonymous": false,
      "inputs": [
        {
          "indexed": true,
          "internalType": "bytes32",
          "name": "role",
          "type": "bytes32"
        },
        {
          "indexed": true,
          "internalType": "address",
          "name": "account",
          "type": "address"
        },
        {
          "indexed": true,
          "internalType": "address",
          "name": "sender",
          "type": "address"
        }
      ],
      "name": "RoleRevoked",
      "type": "event"
    },
    {
      "anonymous": false,
      "inputs": [
        {
          "indexed": true,
          "internalType": "address",
          "name": "from",
          "type": "address"
        },
        {
          "indexed": true,
          "internalType": "address",
          "name": "to",
          "type": "address"
        },
        {
          "indexed": true,
          "internalType": "uint256",
          "name": "tokenId",
          "type": "uint256"
        }
      ],
      "name": "Transfer",
      "type": "event"
    },
    {
      "inputs": [],
      "name": "DEFAULT_ADMIN_ROLE",
      "outputs": [
        {
          "internalType": "bytes32",
          "name": "",
          "type": "bytes32"
        }
      ],
      "stateMutability": "view",
      "type": "function"
    },
    {
      "inputs": [],
      "name": "MINTER_ROLE",
      "outputs": [
        {
          "internalType": "bytes32",
          "name": "",
          "type": "bytes32"
        }
      ],
      "stateMutability": "view",
      "type": "function"
    },
    {
      "inputs": [
        {
          "internalType": "address",
          "name": "to",
          "type": "address"
        },
        {
          "internalType": "uint256",
          "name": "tokenId",
          "type": "uint256"
        }
      ],
      "name": "approve",
      "outputs": [],
      "stateMutability": "nonpayable",
      "type": "function"
    },
    {
      "inputs": [
        {
          "internalType": "address",
          "name": "owner",
          "type": "address"
        }
      ],
      "name": "balanceOf",
      "outputs": [
        {
          "internalType": "uint256",
          "name": "",
          "type": "uint256"
        }
      ],
      "stateMutability": "view",
      "type": "function"
    },
    {
      "inputs": [
        {
          "internalType": "uint256",
          "name": "tokenId",
          "type": "uint256"
        }
      ],
      "name": "burnCertificate",
      "outputs": [],
      "stateMutability": "nonpayable",
      "type": "function"
    },
    {
      "inputs": [
        {
          "internalType": "uint256",
          "name": "",
          "type": "uint256"
        }
      ],
      "name": "certificateDetails",
      "outputs": [
        {
          "internalType": "string",
          "name": "courseName",
          "type": "string"
        },
        {
          "internalType": "string",
          "name": "studentName",
          "type": "string"
        },
        {
          "internalType": "string",
          "name": "grade",
          "type": "string"
        },
        {
          "internalType": "string",
          "name": "issuedDate",
          "type": "string"
        }
      ],
      "stateMutability": "view",
      "type": "function"
    },
    {
      "inputs": [
        {
          "internalType": "uint256",
          "name": "tokenId",
          "type": "uint256"
        }
      ],
      "name": "getApproved",
      "outputs": [
        {
          "internalType": "address",
          "name": "",
          "type": "address"
        }
      ],
      "stateMutability": "view",
      "type": "function"
    },
    {
      "inputs": [
        {
          "internalType": "uint256",
          "name": "tokenId",
          "type": "uint256"
        }
      ],
      "name": "getCertificateData",
      "outputs": [
        {
          "components": [
            {
              "internalType": "string",
              "name": "courseName",
              "type": "string"
            },
            {
              "internalType": "string",
              "name": "studentName",
              "type": "string"
            },
            {
              "internalType": "string",
              "name": "grade",
              "type": "string"
            },
            {
              "internalType": "string",
              "name": "issuedDate",
              "type": "string"
            }
          ],
          "internalType": "struct EduCertificateNFT.CertificateData",
          "name": "",
          "type": "tuple"
        }
      ],
      "stateMutability": "view",
      "type": "function"
    },
    {
      "inputs": [
        {
          "internalType": "bytes32",
          "name": "role",
          "type": "bytes32"
        }
      ],
      "name": "getRoleAdmin",
      "outputs": [
        {
          "internalType": "bytes32",
          "name": "",
          "type": "bytes32"
        }
      ],
      "stateMutability": "view",
      "type": "function"
    },
    {
      "inputs": [
        {
          "internalType": "address",
          "name": "minter",
          "type": "address"
        }
      ],
      "name": "grantMinter",
      "outputs": [],
      "stateMutability": "nonpayable",
      "type": "function"
    },
    {
      "inputs": [
        {
          "internalType": "bytes32",
          "name": "role",
          "type": "bytes32"
        },
        {
          "internalType": "address",
          "name": "account",
          "type": "address"
        }
      ],
      "name": "grantRole",
      "outputs": [],
      "stateMutability": "nonpayable",
      "type": "function"
    },
    {
      "inputs": [
        {
          "internalType": "bytes32",
          "name": "role",
          "type": "bytes32"
        },
        {
          "internalType": "address",
          "name": "account",
          "type": "address"
        }
      ],
      "name": "hasRole",
      "outputs": [
        {
          "internalType": "bool",
          "name": "",
          "type": "bool"
        }
      ],
      "stateMutability": "view",
      "type": "function"
    },
    {
      "inputs": [
        {
          "internalType": "address",
          "name": "owner",
          "type": "address"
        },
        {
          "internalType": "address",
          "name": "operator",
          "type": "address"
        }
      ],
      "name": "isApprovedForAll",
      "outputs": [
        {
          "internalType": "bool",
          "name": "",
          "type": "bool"
        }
      ],
      "stateMutability": "view",
      "type": "function"
    },
    {
      "inputs": [
        {
          "internalType": "address",
          "name": "student",
          "type": "address"
        },
        {
          "internalType": "string",
          "name": "tokenURI",
          "type": "string"
        },
        {
          "internalType": "string",
          "name": "courseName",
          "type": "string"
        },
        {
          "internalType": "string",
          "name": "studentName",
          "type": "string"
        },
        {
          "internalType": "string",
          "name": "grade",
          "type": "string"
        },
        {
          "internalType": "string",
          "name": "issuedDate",
          "type": "string"
        }
      ],
      "name": "mintCertificate",
      "outputs": [
        {
          "internalType": "uint256",
          "name": "",
          "type": "uint256"
        }
      ],
      "stateMutability": "nonpayable",
      "type": "function"
    },
    {
      "inputs": [],
      "name": "name",
      "outputs": [
        {
          "internalType": "string",
          "name": "",
          "type": "string"
        }
      ],
      "stateMutability": "view",
      "type": "function"
    },
    {
      "inputs": [
        {
          "internalType": "uint256",
          "name": "tokenId",
          "type": "uint256"
        }
      ],
      "name": "ownerOf",
      "outputs": [
        {
          "internalType": "address",
          "name": "",
          "type": "address"
        }
      ],
      "stateMutability": "view",
      "type": "function"
    },
    {
      "inputs": [
        {
          "internalType": "bytes32",
          "name": "role",
          "type": "bytes32"
        },
        {
          "internalType": "address",
          "name": "account",
          "type": "address"
        }
      ],
      "name": "renounceRole",
      "outputs": [],
      "stateMutability": "nonpayable",
      "type": "function"
    },
    {
      "inputs": [
        {
          "internalType": "address",
          "name": "minter",
          "type": "address"
        }
      ],
      "name": "revokeMinter",
      "outputs": [],
      "stateMutability": "nonpayable",
      "type": "function"
    },
    {
      "inputs": [
        {
          "internalType": "bytes32",
          "name": "role",
          "type": "bytes32"
        },
        {
          "internalType": "address",
          "name": "account",
          "type": "address"
        }
      ],
      "name": "revokeRole",
      "outputs": [],
      "stateMutability": "nonpayable",
      "type": "function"
    },
    {
      "inputs": [
        {
          "internalType": "address",
          "name": "from",
          "type": "address"
        },
        {
          "internalType": "address",
          "name": "to",
          "type": "address"
        },
        {
          "internalType": "uint256",
          "name": "tokenId",
          "type": "uint256"
        }
      ],
      "name": "safeTransferFrom",
      "outputs": [],
      "stateMutability": "nonpayable",
      "type": "function"
    },
    {
      "inputs": [
        {
          "internalType": "address",
          "name": "from",
          "type": "address"
        },
        {
          "internalType": "address",
          "name": "to",
          "type": "address"
        },
        {
          "internalType": "uint256",
          "name": "tokenId",
          "type": "uint256"
        },
        {
          "internalType": "bytes",
          "name": "data",
          "type": "bytes"
        }
      ],
      "name": "safeTransferFrom",
      "outputs": [],
      "stateMutability": "nonpayable",
      "type": "function"
    },
    {
      "inputs": [
        {
          "internalType": "address",
          "name": "operator",
          "type": "address"
        },
        {
          "internalType": "bool",
          "name": "approved",
          "type": "bool"
        }
      ],
      "name": "setApprovalForAll",
      "outputs": [],
      "stateMutability": "nonpayable",
      "type": "function"
    },
    {
      "inputs": [
        {
          "internalType": "bytes4",
          "name": "interfaceId",
          "type": "bytes4"
        }
      ],
      "name": "supportsInterface",
      "outputs": [
        {
          "internalType": "bool",
          "name": "",
          "type": "bool"
        }
      ],
      "stateMutability": "view",
      "type": "function"
    },
    {
      "inputs": [],
      "name": "symbol",
      "outputs": [
        {
          "internalType": "string",
          "name": "",
          "type": "string"
        }
      ],
      "stateMutability": "view",
      "type": "function"
    },
    {
      "inputs": [
        {
          "internalType": "uint256",
          "name": "tokenId",
          "type": "uint256"
        }
      ],
      "name": "tokenURI",
      "outputs": [
        {
          "internalType": "string",
          "name": "",
          "type": "string"
        }
      ],
      "stateMutability": "view",
      "type": "function"
    },
    {
      "inputs": [
        {
          "internalType": "address",
          "name": "from",
          "type": "address"
        },
        {
          "internalType": "address",
          "name": "to",
          "type": "address"
        },
        {
          "internalType": "uint256",
          "name": "tokenId",
          "type": "uint256"
        }
      ],
      "name": "transferFrom",
      "outputs": [],
      "stateMutability": "nonpayable",
      "type": "function"
    }
  ],
  "bytecode": "0x608060405234801561001057600080fd5b506040518060400160405280600e81526020016d456475436572746966696361746560901b81525060405180604001604052806006815260200165115110d1549560d21b815250816000908161006691906101f4565b50600161007382826101f4565b50610083915060009050336100b2565b6100ad7f9f2df0fed2c77648de5860a4cc508cd0818c85b8b8a1ab4ceeef8d981c8956a6336100b2565b6102b2565b60008281526007602090815260408083206001600160a01b038516845290915290205460ff166101515760008281526007602090815260408083206001600160a01b03851684529091529020805460ff191660011790556101103390565b6001600160a01b0316816001600160a01b0316837f2f8788117e7eff1d82e926ec794901d17c78024a50270940304540a733656f0d60405160405180910390a45b5050565b634e487b7160e01b600052604160045260246000fd5b600181811c9082168061017f57607f821691505b60208210810361019f57634e487b7160e01b600052602260045260246000fd5b50919050565b601f8211156101ef57806000526020600020601f840160051c810160208510156101cc5750805b601f840160051c820191505b818110156101ec57600081556001016101d8565b50505b505050565b81516001600160401b0381111561020d5761020d610155565b6102218161021b845461016b565b846101a5565b6020601f821160018114610255576000831561023d5750848201515b600019600385901b1c1916600184901b1784556101ec565b600084815260208120601f198516915b828110156102855787850151825560209485019460019092019101610265565b50848210156102a35786840151600019600387901b60f8161c191681555b50505050600190811b01905550565b61271f806102c16000396000f3fe608060405234801561001057600080fd5b506004361061018e5760003560e01c806370a08231116100de578063a22cb46511610097578063cfbd488511610071578063cfbd48851461038b578063d53913931461039e578063d547741f146103b3578063e985e9c5146103c657600080fd5b8063a22cb46514610352578063b88d4fde14610365578063c87b56dd1461037857600080fd5b806370a08231146102f65780638d13d72d1461030957806391d148541461031c57806393b16b451461032f57806395d89b4114610342578063a217fddf1461034a57600080fd5b8063261707fa1161014b57806336568abe1161012557806336568abe1461029a57806342842e0e146102ad57806344128c87146102c05780636352211e146102e357600080fd5b8063261707fa146102545780632f2ff15d1461026757806331494bbb1461027a57600080fd5b806301ffc9a71461019357806306fdde03146101bb578063081812fc146101d0578063095ea7b3146101fb57806323b872dd14610210578063248a9ca314610223575b600080fd5b6101a66101a1366004611e6d565b610402565b60405190151581526020015b60405180910390f35b6101c3610413565b6040516101b29190611eda565b6101e36101de366004611eed565b6104a5565b6040516001600160a01b0390911681526020016101b2565b61020e610209366004611f22565b6104cc565b005b61020e61021e366004611f4c565b6105e6565b610246610231366004611eed565b60009081526007602052604090206001015490565b6040519081526020016101b2565b61020e610262366004611f89565b610617565b61020e610275366004611fa4565b61063e565b61028d610288366004611eed565b610663565b6040516101b29190611fd0565b61020e6102a8366004611fa4565b610941565b61020e6102bb366004611f4c565b6109bb565b6102d36102ce366004611eed565b6109d6565b6040516101b2949392919061204e565b6101e36102f1366004611eed565b610c1e565b610246610304366004611f89565b610c7e565b610246610317366004612156565b610d04565b6101a661032a366004611fa4565b610e1c565b61020e61033d366004611eed565b610e47565b6101c3610f28565b610246600081565b61020e610360366004612251565b610f37565b61020e61037336600461228d565b610f42565b6101c3610386366004611eed565b610f7a565b61020e610399366004611f89565b61108a565b6102466000805160206126ca83398151915281565b61020e6103c1366004611fa4565b6110ad565b6101a66103d4366004612309565b6001600160a01b03918216600090815260056020908152604080832093909416825291909152205460ff1690565b600061040d826110d2565b92915050565b60606000805461042290612333565b80601f016020809104026020016040519081016040528092919081815260200182805461044e90612333565b801561049b5780601f106104705761010080835404028352916020019161049b565b820191906000526020600020905b81548152906001019060200180831161047e57829003601f168201915b5050505050905090565b60006104b0826110f7565b506000908152600460205260409020546001600160a01b031690565b60006104d782610c1e565b9050806001600160a01b0316836001600160a01b0316036105495760405162461bcd60e51b815260206004820152602160248201527f4552433732313a20617070726f76616c20746f2063757272656e74206f776e656044820152603960f91b60648201526084015b60405180910390fd5b336001600160a01b0382161480610565575061056581336103d4565b6105d75760405162461bcd60e51b815260206004820152603d60248201527f4552433732313a20617070726f76652063616c6c6572206973206e6f7420746f60448201527f6b656e206f776e6572206f7220617070726f76656420666f7220616c6c0000006064820152608401610540565b6105e1838361114a565b505050565b6105f033826111b8565b61060c5760405162461bcd60e51b81526004016105409061236d565b6105e1838383611236565b60006106228161139a565b61063a6000805160206126ca833981519152836113a4565b5050565b6000828152600760205260409020600101546106598161139a565b6105e183836113a4565b61068e6040518060800160405280606081526020016060815260200160608152602001606081525090565b6106978261142a565b6106da5760405162461bcd60e51b8152602060048201526014602482015273151bdad95b88191bd95cc81b9bdd08195e1a5cdd60621b6044820152606401610540565b6000828152600960205260409081902081516080810190925280548290829061070290612333565b80601f016020809104026020016040519081016040528092919081815260200182805461072e90612333565b801561077b5780601f106107505761010080835404028352916020019161077b565b820191906000526020600020905b81548152906001019060200180831161075e57829003601f168201915b5050505050815260200160018201805461079490612333565b80601f01602080910402602001604051908101604052809291908181526020018280546107c090612333565b801561080d5780601f106107e25761010080835404028352916020019161080d565b820191906000526020600020905b8154815290600101906020018083116107f057829003601f168201915b5050505050815260200160028201805461082690612333565b80601f016020809104026020016040519081016040528092919081815260200182805461085290612333565b801561089f5780601f106108745761010080835404028352916020019161089f565b820191906000526020600020905b81548152906001019060200180831161088257829003601f168201915b505050505081526020016003820180546108b890612333565b80601f01602080910402602001604051908101604052809291908181526020018280546108e490612333565b80156109315780601f1061090657610100808354040283529160200191610931565b820191906000526020600020905b81548152906001019060200180831161091457829003601f168201915b5050505050815250509050919050565b6001600160a01b03811633146109b15760405162461bcd60e51b815260206004820152602f60248201527f416363657373436f6e74726f6c3a2063616e206f6e6c792072656e6f756e636560448201526e103937b632b9903337b91039b2b63360891b6064820152608401610540565b61063a8282611447565b6105e183838360405180602001604052806000815250610f42565b6009602052600090815260409020805481906109f190612333565b80601f0160208091040260200160405190810160405280929190818152602001828054610a1d90612333565b8015610a6a5780601f10610a3f57610100808354040283529160200191610a6a565b820191906000526020600020905b815481529060010190602001808311610a4d57829003601f168201915b505050505090806001018054610a7f90612333565b80601f0160208091040260200160405190810160405280929190818152602001828054610aab90612333565b8015610af85780601f10610acd57610100808354040283529160200191610af8565b820191906000526020600020905b815481529060010190602001808311610adb57829003601f168201915b505050505090806002018054610b0d90612333565b80601f0160208091040260200160405190810160405280929190818152602001828054610b3990612333565b8015610b865780601f10610b5b57610100808354040283529160200191610b86565b820191906000526020600020905b815481529060010190602001808311610b6957829003601f168201915b505050505090806003018054610b9b90612333565b80601f0160208091040260200160405190810160405280929190818152602001828054610bc790612333565b8015610c145780601f10610be957610100808354040283529160200191610c14565b820191906000526020600020905b815481529060010190602001808311610bf757829003601f168201915b5050505050905084565b6000818152600260205260408120546001600160a01b03168061040d5760405162461bcd60e51b8152602060048201526018602482015277115490cdcc8c4e881a5b9d985b1a59081d1bdad95b88125160421b6044820152606401610540565b60006001600160a01b038216610ce85760405162461bcd60e51b815260206004820152602960248201527f4552433732313a2061646472657373207a65726f206973206e6f7420612076616044820152683634b21037bbb732b960b91b6064820152608401610540565b506001600160a01b031660009081526003602052604090205490565b60006000805160206126ca833981519152610d1e8161139a565b610d2c600880546001019055565b6000610d3760085490565b9050610d4389826114ae565b610d4d818961161b565b60408051608081018252888152602080820189905281830188905260608201879052600084815260099091529190912081518190610d8b9082612408565b5060208201516001820190610da09082612408565b5060408201516002820190610db59082612408565b5060608201516003820190610dca9082612408565b5090505080896001600160a01b03167fde5d6fd45e32fffb472bcbaeedf6a2e3944633c9701eec7d99adfa07ad6104c18a604051610e089190611eda565b60405180910390a398975050505050505050565b60009182526007602090815260408084206001600160a01b0393909316845291905290205460ff1690565b6000805160206126ca833981519152610e5f8161139a565b610e688261142a565b610eab5760405162461bcd60e51b8152602060048201526014602482015273151bdad95b88191bd95cc81b9bdd08195e1a5cdd60621b6044820152606401610540565b610eb4826116d7565b600082815260096020526040812090610ecd8282611e09565b610edb600183016000611e09565b610ee9600283016000611e09565b610ef7600383016000611e09565b505060405182907fb5b5ff4ec0735adc942b77efd721b86b1b579d7afac0c1ae614681eead1dfbe390600090a25050565b60606001805461042290612333565b61063a338383611717565b610f4c33836111b8565b610f685760405162461bcd60e51b81526004016105409061236d565b610f74848484846117e5565b50505050565b6060610f85826110f7565b60008281526006602052604081208054610f9e90612333565b80601f0160208091040260200160405190810160405280929190818152602001828054610fca90612333565b80156110175780601f10610fec57610100808354040283529160200191611017565b820191906000526020600020905b815481529060010190602001808311610ffa57829003601f168201915b50505050509050600061103560408051602081019091526000815290565b90508051600003611047575092915050565b8151156110795780826040516020016110619291906124c7565b60405160208183030381529060405292505050919050565b61108284611818565b949350505050565b60006110958161139a565b61063a6000805160206126ca83398151915283611447565b6000828152600760205260409020600101546110c88161139a565b6105e18383611447565b60006001600160e01b03198216637965db0b60e01b148061040d575061040d8261188c565b6111008161142a565b6111475760405162461bcd60e51b8152602060048201526018602482015277115490cdcc8c4e881a5b9d985b1a59081d1bdad95b88125160421b6044820152606401610540565b50565b600081815260046020526040902080546001600160a01b0319166001600160a01b038416908117909155819061117f82610c1e565b6001600160a01b03167f8c5be1e5ebec7d5bd14f71427d1e84f3dd0314c0f7b2291e5b200ac8c7c3b92560405160405180910390a45050565b6000806111c483610c1e565b9050806001600160a01b0316846001600160a01b0316148061120b57506001600160a01b0380821660009081526005602090815260408083209388168352929052205460ff165b806110825750836001600160a01b0316611224846104a5565b6001600160a01b031614949350505050565b826001600160a01b031661124982610c1e565b6001600160a01b03161461126f5760405162461bcd60e51b8152600401610540906124f6565b6001600160a01b0382166112d15760405162461bcd60e51b8152602060048201526024808201527f4552433732313a207472616e7366657220746f20746865207a65726f206164646044820152637265737360e01b6064820152608401610540565b826001600160a01b03166112e482610c1e565b6001600160a01b03161461130a5760405162461bcd60e51b8152600401610540906124f6565b600081815260046020908152604080832080546001600160a01b03199081169091556001600160a01b0387811680865260038552838620805460001901905590871680865283862080546001019055868652600290945282852080549092168417909155905184937fddf252ad1be2c89b69c2b068fc378daa952ba7f163c4a11628f55a4df523b3ef91a4505050565b61114781336118b1565b6113ae8282610e1c565b61063a5760008281526007602090815260408083206001600160a01b03851684529091529020805460ff191660011790556113e63390565b6001600160a01b0316816001600160a01b0316837f2f8788117e7eff1d82e926ec794901d17c78024a50270940304540a733656f0d60405160405180910390a45050565b6000908152600260205260409020546001600160a01b0316151590565b6114518282610e1c565b1561063a5760008281526007602090815260408083206001600160a01b0385168085529252808320805460ff1916905551339285917ff6391f5c32d9c69d2a47ea670b442974b53935d1edc7fd64eb21e047a839171b9190a45050565b6001600160a01b0382166115045760405162461bcd60e51b815260206004820181905260248201527f4552433732313a206d696e7420746f20746865207a65726f20616464726573736044820152606401610540565b61150d8161142a565b1561155a5760405162461bcd60e51b815260206004820152601c60248201527f4552433732313a20746f6b656e20616c7265616479206d696e746564000000006044820152606401610540565b6115638161142a565b156115b05760405162461bcd60e51b815260206004820152601c60248201527f4552433732313a20746f6b656e20616c7265616479206d696e746564000000006044820152606401610540565b6001600160a01b038216600081815260036020908152604080832080546001019055848352600290915280822080546001600160a01b0319168417905551839291907fddf252ad1be2c89b69c2b068fc378daa952ba7f163c4a11628f55a4df523b3ef908290a45050565b6116248261142a565b6116875760405162461bcd60e51b815260206004820152602e60248201527f45524337323155524953746f726167653a2055524920736574206f66206e6f6e60448201526d32bc34b9ba32b73a103a37b5b2b760911b6064820152608401610540565b600082815260066020526040902061169f8282612408565b506040518281527ff8e1a15aba9398e019f0b49df1a4fde98ee17ae345cb5f6b5e2c27f5033e8ce79060200160405180910390a15050565b6116e08161190a565b600081815260066020526040902080546116f990612333565b15905061114757600081815260066020526040812061114791611e09565b816001600160a01b0316836001600160a01b0316036117785760405162461bcd60e51b815260206004820152601960248201527f4552433732313a20617070726f766520746f2063616c6c6572000000000000006044820152606401610540565b6001600160a01b03838116600081815260056020908152604080832094871680845294825291829020805460ff191686151590811790915591519182527f17307eab39ab6107e8899845ad3d59bd9653f200f220920489ca2b5937696c31910160405180910390a3505050565b6117f0848484611236565b6117fc8484848461199f565b610f745760405162461bcd60e51b81526004016105409061253b565b6060611823826110f7565b600061183a60408051602081019091526000815290565b9050600081511161185a5760405180602001604052806000815250611885565b8061186484611aa0565b6040516020016118759291906124c7565b6040516020818303038152906040525b9392505050565b60006001600160e01b03198216632483248360e11b148061040d575061040d82611b33565b6118bb8282610e1c565b61063a576118c881611b83565b6118d3836020611b95565b6040516020016118e492919061258d565b60408051601f198184030181529082905262461bcd60e51b825261054091600401611eda565b600061191582610c1e565b905061192082610c1e565b600083815260046020908152604080832080546001600160a01b03199081169091556001600160a01b0385168085526003845282852080546000190190558785526002909352818420805490911690555192935084927fddf252ad1be2c89b69c2b068fc378daa952ba7f163c4a11628f55a4df523b3ef908390a45050565b60006001600160a01b0384163b15611a9557604051630a85bd0160e11b81526001600160a01b0385169063150b7a02906119e3903390899088908890600401612602565b6020604051808303816000875af1925050508015611a1e575060408051601f3d908101601f19168201909252611a1b9181019061263f565b60015b611a7b573d808015611a4c576040519150601f19603f3d011682016040523d82523d6000602084013e611a51565b606091505b508051600003611a735760405162461bcd60e51b81526004016105409061253b565b805181602001fd5b6001600160e01b031916630a85bd0160e11b149050611082565b506001949350505050565b60606000611aad83611d31565b600101905060008167ffffffffffffffff811115611acd57611acd6120a6565b6040519080825280601f01601f191660200182016040528015611af7576020820181803683370190505b5090508181016020015b600019016f181899199a1a9b1b9c1cb0b131b232b360811b600a86061a8153600a8504945084611b0157509392505050565b60006001600160e01b031982166380ac58cd60e01b1480611b6457506001600160e01b03198216635b5e139f60e01b145b8061040d57506301ffc9a760e01b6001600160e01b031983161461040d565b606061040d6001600160a01b03831660145b60606000611ba4836002612672565b611baf906002612689565b67ffffffffffffffff811115611bc757611bc76120a6565b6040519080825280601f01601f191660200182016040528015611bf1576020820181803683370190505b509050600360fc1b81600081518110611c0c57611c0c61269c565b60200101906001600160f81b031916908160001a905350600f60fb1b81600181518110611c3b57611c3b61269c565b60200101906001600160f81b031916908160001a9053506000611c5f846002612672565b611c6a906001612689565b90505b6001811115611ce2576f181899199a1a9b1b9c1cb0b131b232b360811b85600f1660108110611c9e57611c9e61269c565b1a60f81b828281518110611cb457611cb461269c565b60200101906001600160f81b031916908160001a90535060049490941c93611cdb816126b2565b9050611c6d565b5083156118855760405162461bcd60e51b815260206004820181905260248201527f537472696e67733a20686578206c656e67746820696e73756666696369656e746044820152606401610540565b60008072184f03e93ff9f4daa797ed6e38ed64bf6a1f0160401b8310611d705772184f03e93ff9f4daa797ed6e38ed64bf6a1f0160401b830492506040015b6d04ee2d6d415b85acef81000000008310611d9c576d04ee2d6d415b85acef8100000000830492506020015b662386f26fc100008310611dba57662386f26fc10000830492506010015b6305f5e1008310611dd2576305f5e100830492506008015b6127108310611de657612710830492506004015b60648310611df8576064830492506002015b600a831061040d5760010192915050565b508054611e1590612333565b6000825580601f10611e25575050565b601f01602090049060005260206000209081019061114791905b80821115611e535760008155600101611e3f565b5090565b6001600160e01b03198116811461114757600080fd5b600060208284031215611e7f57600080fd5b813561188581611e57565b60005b83811015611ea5578181015183820152602001611e8d565b50506000910152565b60008151808452611ec6816020860160208601611e8a565b601f01601f19169290920160200192915050565b6020815260006118856020830184611eae565b600060208284031215611eff57600080fd5b5035919050565b80356001600160a01b0381168114611f1d57600080fd5b919050565b60008060408385031215611f3557600080fd5b611f3e83611f06565b946020939093013593505050565b600080600060608486031215611f6157600080fd5b611f6a84611f06565b9250611f7860208501611f06565b929592945050506040919091013590565b600060208284031215611f9b57600080fd5b61188582611f06565b60008060408385031215611fb757600080fd5b82359150611fc760208401611f06565b90509250929050565b602081526000825160806020840152611fec60a0840182611eae565b90506020840151601f198483030160408501526120098282611eae565b9150506040840151601f198483030160608501526120278282611eae565b9150506060840151601f198483030160808501526120458282611eae565b95945050505050565b6080815260006120616080830187611eae565b82810360208401526120738187611eae565b905082810360408401526120878186611eae565b9050828103606084015261209b8185611eae565b979650505050505050565b634e487b7160e01b600052604160045260246000fd5b60008067ffffffffffffffff8411156120d7576120d76120a6565b50604051601f19601f85018116603f0116810181811067ffffffffffffffff82111715612106576121066120a6565b60405283815290508082840185101561211e57600080fd5b83836020830137600060208583010152509392505050565b600082601f83011261214757600080fd5b611885838335602085016120bc565b60008060008060008060c0878903121561216f57600080fd5b61217887611f06565b9550602087013567ffffffffffffffff81111561219457600080fd5b6121a089828a01612136565b955050604087013567ffffffffffffffff8111156121bd57600080fd5b6121c989828a01612136565b945050606087013567ffffffffffffffff8111156121e657600080fd5b6121f289828a01612136565b935050608087013567ffffffffffffffff81111561220f57600080fd5b61221b89828a01612136565b92505060a087013567ffffffffffffffff81111561223857600080fd5b61224489828a01612136565b9150509295509295509295565b6000806040838503121561226457600080fd5b61226d83611f06565b91506020830135801515811461228257600080fd5b809150509250929050565b600080600080608085870312156122a357600080fd5b6122ac85611f06565b93506122ba60208601611f06565b925060408501359150606085013567ffffffffffffffff8111156122dd57600080fd5b8501601f810187136122ee57600080fd5b6122fd878235602084016120bc565b91505092959194509250565b6000806040838503121561231c57600080fd5b61232583611f06565b9150611fc760208401611f06565b600181811c9082168061234757607f821691505b60208210810361236757634e487b7160e01b600052602260045260246000fd5b50919050565b6020808252602d908201527f4552433732313a2063616c6c6572206973206e6f7420746f6b656e206f776e6560408201526c1c881bdc88185c1c1c9bdd9959609a1b606082015260800190565b601f8211156105e157806000526020600020601f840160051c810160208510156123e15750805b601f840160051c820191505b8181101561240157600081556001016123ed565b5050505050565b815167ffffffffffffffff811115612422576124226120a6565b612436816124308454612333565b846123ba565b6020601f82116001811461246a57600083156124525750848201515b600019600385901b1c1916600184901b178455612401565b600084815260208120601f198516915b8281101561249a578785015182556020948501946001909201910161247a565b50848210156124b85786840151600019600387901b60f8161c191681555b50505050600190811b01905550565b600083516124d9818460208801611e8a565b8351908301906124ed818360208801611e8a565b01949350505050565b60208082526025908201527f4552433732313a207472616e736665722066726f6d20696e636f72726563742060408201526437bbb732b960d91b606082015260800190565b60208082526032908201527f4552433732313a207472616e7366657220746f206e6f6e20455243373231526560408201527131b2b4bb32b91034b6b83632b6b2b73a32b960711b606082015260800190565b7f416363657373436f6e74726f6c3a206163636f756e74200000000000000000008152600083516125c5816017850160208801611e8a565b7001034b99036b4b9b9b4b733903937b6329607d1b60179184019182015283516125f6816028840160208801611e8a565b01602801949350505050565b6001600160a01b038581168252841660208201526040810183905260806060820181905260009061263590830184611eae565b9695505050505050565b60006020828403121561265157600080fd5b815161188581611e57565b634e487b7160e01b600052601160045260246000fd5b808202811582820484141761040d5761040d61265c565b8082018082111561040d5761040d61265c565b634e487b7160e01b600052603260045260246000fd5b6000816126c1576126c161265c565b50600019019056fe9f2df0fed2c77648de5860a4cc508cd0818c85b8b8a1ab4ceeef8d981c8956a6a2646970667358221220f9f729e57d5dcebdc008f1639daebc67eafdc14620ee5afa3551e3d8f50f21fc64736f6c634300081c0033",
  "linkReferences": {},
  "deployedLinkReferences": {}
}