{
  "_format": "hh-sol-artifact-1",
  "contractName": "EduLedger",
  "sourceName": "contracts/EduLedger.sol",
  "abi": [
    {
      "inputs": [
        {
          "internalType": "address",
          "name": "_eduToken",
          "type": "address"
        },
        {
          "internalType": "address",
          "name": "_nft",
          "type": "address"
        },
        {
          "internalType": "address",
          "name": "_feeCollector",
          "type": "address"
        }
      ],
      "stateMutability": "nonpayable",
      "type": "constructor"
    },
    {
      "anonymous": false,
      "inputs": [
        {
          "indexed": true,
          "internalType": "address",
          "name": "student",
          "type": "address"
        },
        {
          "indexed": true,
          "internalType": "uint256",
          "name": "courseId",
          "type": "uint256"
        }
      ],
      "name": "CertificateIssued",
      "type": "event"
    },
    {
      "anonymous": false,
      "inputs": [
        {
          "indexed": true,
          "internalType": "address",
          "name": "student",
          "type": "address"
        },
        {
          "indexed": true,
          "internalType": "uint256",
          "name": "courseId",
          "type": "uint256"
        }
      ],
      "name": "CertificateRevoked",
      "type": "event"
    },
    {
      "anonymous": false,
      "inputs": [
        {
          "indexed": true,
          "internalType": "address",
          "name": "student",
          "type": "address"
        },
        {
          "indexed": true,
          "internalType": "uint256",
          "name": "courseId",
          "type": "uint256"
        }
      ],
      "name": "CourseCompleted",
      "type": "event"
    },
    {
      "anonymous": false,
      "inputs": [
        {
          "indexed": true,
          "internalType": "uint256",
          "name": "courseId",
          "type": "uint256"
        },
        {
          "indexed": false,
          "internalType": "string",
          "name": "title",
          "type": "string"
        }
      ],
      "name": "CourseCreated",
      "type": "event"
    },
    {
      "anonymous": false,
      "inputs": [
        {
          "indexed": true,
          "internalType": "uint256",
          "name": "courseId",
          "type": "uint256"
        },
        {
          "indexed": false,
          "internalType": "bool",
          "name": "active",
          "type": "bool"
        }
      ],
      "name": "CourseUpdated",
      "type": "event"
    },
    {
      "anonymous": false,
      "inputs": [
        {
          "indexed": true,
          "internalType": "address",
          "name": "student",
          "type": "address"
        },
        {
          "indexed": true,
          "internalType": "uint256",
          "name": "courseId",
          "type": "uint256"
        },
        {
          "indexed": false,
          "internalType": "uint256",
          "name": "amount",
          "type": "uint256"
        },
        {
          "indexed": false,
          "internalType": "string",
          "name": "paymentType",
          "type": "string"
        }
      ],
      "name": "PaymentReceived",
      "type": "event"
    },
    {
      "anonymous": false,
      "inputs": [
        {
          "indexed": true,
          "internalType": "bytes32",
          "name": "role",
          "type": "bytes32"
        },
        {
          "indexed": true,
          "internalType": "bytes32",
          "name": "previousAdminRole",
          "type": "bytes32"
        },
        {
          "indexed": true,
          "internalType": "bytes32",
          "name": "newAdminRole",
          "type": "bytes32"
        }
      ],
      "name": "RoleAdminChanged",
      "type": "event"
    },
    {
      "anonymous": false,
      "inputs": [
        {
          "indexed": true,
          "internalType": "bytes32",
          "name": "role",
          "type": "bytes32"
        },
        {
          "indexed": true,
          "internalType": "address",
          "name": "account",
          "type": "address"
        },
        {
          "indexed": true,
          "internalType": "address",
          "name": "sender",
          "type": "address"
        }
      ],
      "name": "RoleGranted",
      "type": "event"
    },
    {
      "anonymous": false,
      "inputs": [
        {
          "indexed": true,
          "internalType": "bytes32",
          "name": "role",
          "type": "bytes32"
        },
        {
          "indexed": true,
          "internalType": "address",
          "name": "account",
          "type": "address"
        },
        {
          "indexed": true,
          "internalType": "address",
          "name": "sender",
          "type": "address"
        }
      ],
      "name": "RoleRevoked",
      "type": "event"
    },
    {
      "anonymous": false,
      "inputs": [
        {
          "indexed": true,
          "internalType": "address",
          "name": "student",
          "type": "address"
        },
        {
          "indexed": true,
          "internalType": "uint256",
          "name": "courseId",
          "type": "uint256"
        }
      ],
      "name": "StudentEnrolled",
      "type": "event"
    },
    {
      "inputs": [],
      "name": "ADMIN_ROLE",
      "outputs": [
        {
          "internalType": "bytes32",
          "name": "",
          "type": "bytes32"
        }
      ],
      "stateMutability": "view",
      "type": "function"
    },
    {
      "inputs": [],
      "name": "DEFAULT_ADMIN_ROLE",
      "outputs": [
        {
          "internalType": "bytes32",
          "name": "",
          "type": "bytes32"
        }
      ],
      "stateMutability": "view",
      "type": "function"
    },
    {
      "inputs": [],
      "name": "STUDENT_ROLE",
      "outputs": [
        {
          "internalType": "bytes32",
          "name": "",
          "type": "bytes32"
        }
      ],
      "stateMutability": "view",
      "type": "function"
    },
    {
      "inputs": [],
      "name": "TEACHER_ROLE",
      "outputs": [
        {
          "internalType": "bytes32",
          "name": "",
          "type": "bytes32"
        }
      ],
      "stateMutability": "view",
      "type": "function"
    },
    {
      "inputs": [
        {
          "internalType": "uint256",
          "name": "courseId",
          "type": "uint256"
        },
        {
          "internalType": "address",
          "name": "student",
          "type": "address"
        },
        {
          "internalType": "string",
          "name": "grade",
          "type": "string"
        },
        {
          "internalType": "string",
          "name": "note",
          "type": "string"
        }
      ],
      "name": "addRecord",
      "outputs": [],
      "stateMutability": "nonpayable",
      "type": "function"
    },
    {
      "inputs": [],
      "name": "certificateNFT",
      "outputs": [
        {
          "internalType": "contract IEduCertificateNFT",
          "name": "",
          "type": "address"
        }
      ],
      "stateMutability": "view",
      "type": "function"
    },
    {
      "inputs": [],
      "name": "courseCounter",
      "outputs": [
        {
          "internalType": "uint256",
          "name": "",
          "type": "uint256"
        }
      ],
      "stateMutability": "view",
      "type": "function"
    },
    {
      "inputs": [
        {
          "internalType": "uint256",
          "name": "",
          "type": "uint256"
        },
        {
          "internalType": "uint256",
          "name": "",
          "type": "uint256"
        }
      ],
      "name": "courseStudents",
      "outputs": [
        {
          "internalType": "address",
          "name": "",
          "type": "address"
        }
      ],
      "stateMutability": "view",
      "type": "function"
    },
    {
      "inputs": [
        {
          "internalType": "uint256",
          "name": "",
          "type": "uint256"
        }
      ],
      "name": "courses",
      "outputs": [
        {
          "internalType": "string",
          "name": "title",
          "type": "string"
        },
        {
          "internalType": "string",
          "name": "description",
          "type": "string"
        },
        {
          "internalType": "address",
          "name": "teacher",
          "type": "address"
        },
        {
          "internalType": "uint256",
          "name": "feeHBAR",
          "type": "uint256"
        },
        {
          "internalType": "uint256",
          "name": "feeToken",
          "type": "uint256"
        },
        {
          "internalType": "bool",
          "name": "exists",
          "type": "bool"
        },
        {
          "internalType": "bool",
          "name": "active",
          "type": "bool"
        }
      ],
      "stateMutability": "view",
      "type": "function"
    },
    {
      "inputs": [
        {
          "internalType": "string",
          "name": "_title",
          "type": "string"
        },
        {
          "internalType": "string",
          "name": "_description",
          "type": "string"
        },
        {
          "internalType": "uint256",
          "name": "_feeHBAR",
          "type": "uint256"
        },
        {
          "internalType": "uint256",
          "name": "_feeToken",
          "type": "uint256"
        }
      ],
      "name": "createCourse",
      "outputs": [],
      "stateMutability": "nonpayable",
      "type": "function"
    },
    {
      "inputs": [],
      "name": "eduToken",
      "outputs": [
        {
          "internalType": "contract IERC20",
          "name": "",
          "type": "address"
        }
      ],
      "stateMutability": "view",
      "type": "function"
    },
    {
      "inputs": [
        {
          "internalType": "uint256",
          "name": "courseId",
          "type": "uint256"
        }
      ],
      "name": "enrollHBAR",
      "outputs": [],
      "stateMutability": "payable",
      "type": "function"
    },
    {
      "inputs": [
        {
          "internalType": "uint256",
          "name": "courseId",
          "type": "uint256"
        }
      ],
      "name": "enrollToken",
      "outputs": [],
      "stateMutability": "nonpayable",
      "type": "function"
    },
    {
      "inputs": [],
      "name": "feeCollector",
      "outputs": [
        {
          "internalType": "address",
          "name": "",
          "type": "address"
        }
      ],
      "stateMutability": "view",
      "type": "function"
    },
    {
      "inputs": [
        {
          "internalType": "bytes32",
          "name": "role",
          "type": "bytes32"
        }
      ],
      "name": "getRoleAdmin",
      "outputs": [
        {
          "internalType": "bytes32",
          "name": "",
          "type": "bytes32"
        }
      ],
      "stateMutability": "view",
      "type": "function"
    },
    {
      "inputs": [
        {
          "internalType": "uint256",
          "name": "courseId",
          "type": "uint256"
        }
      ],
      "name": "getStudents",
      "outputs": [
        {
          "internalType": "address[]",
          "name": "",
          "type": "address[]"
        }
      ],
      "stateMutability": "view",
      "type": "function"
    },
    {
      "inputs": [
        {
          "internalType": "bytes32",
          "name": "role",
          "type": "bytes32"
        },
        {
          "internalType": "address",
          "name": "account",
          "type": "address"
        }
      ],
      "name": "grantRole",
      "outputs": [],
      "stateMutability": "nonpayable",
      "type": "function"
    },
    {
      "inputs": [
        {
          "internalType": "address",
          "name": "student",
          "type": "address"
        }
      ],
      "name": "grantStudent",
      "outputs": [],
      "stateMutability": "nonpayable",
      "type": "function"
    },
    {
      "inputs": [
        {
          "internalType": "address",
          "name": "teacher",
          "type": "address"
        }
      ],
      "name": "grantTeacher",
      "outputs": [],
      "stateMutability": "nonpayable",
      "type": "function"
    },
    {
      "inputs": [
        {
          "internalType": "bytes32",
          "name": "role",
          "type": "bytes32"
        },
        {
          "internalType": "address",
          "name": "account",
          "type": "address"
        }
      ],
      "name": "hasRole",
      "outputs": [
        {
          "internalType": "bool",
          "name": "",
          "type": "bool"
        }
      ],
      "stateMutability": "view",
      "type": "function"
    },
    {
      "inputs": [
        {
          "internalType": "uint256",
          "name": "",
          "type": "uint256"
        },
        {
          "internalType": "address",
          "name": "",
          "type": "address"
        }
      ],
      "name": "isStudentEnrolled",
      "outputs": [
        {
          "internalType": "bool",
          "name": "",
          "type": "bool"
        }
      ],
      "stateMutability": "view",
      "type": "function"
    },
    {
      "inputs": [
        {
          "internalType": "uint256",
          "name": "courseId",
          "type": "uint256"
        },
        {
          "internalType": "address",
          "name": "student",
          "type": "address"
        },
        {
          "internalType": "string",
          "name": "certURI",
          "type": "string"
        }
      ],
      "name": "markCourseCompleted",
      "outputs": [],
      "stateMutability": "nonpayable",
      "type": "function"
    },
    {
      "inputs": [
        {
          "internalType": "bytes32",
          "name": "role",
          "type": "bytes32"
        },
        {
          "internalType": "address",
          "name": "account",
          "type": "address"
        }
      ],
      "name": "renounceRole",
      "outputs": [],
      "stateMutability": "nonpayable",
      "type": "function"
    },
    {
      "inputs": [
        {
          "internalType": "uint256",
          "name": "courseId",
          "type": "uint256"
        },
        {
          "internalType": "address",
          "name": "student",
          "type": "address"
        }
      ],
      "name": "revokeCertificate",
      "outputs": [],
      "stateMutability": "nonpayable",
      "type": "function"
    },
    {
      "inputs": [
        {
          "internalType": "bytes32",
          "name": "role",
          "type": "bytes32"
        },
        {
          "internalType": "address",
          "name": "account",
          "type": "address"
        }
      ],
      "name": "revokeRole",
      "outputs": [],
      "stateMutability": "nonpayable",
      "type": "function"
    },
    {
      "inputs": [
        {
          "internalType": "address",
          "name": "_collector",
          "type": "address"
        }
      ],
      "name": "setFeeCollector",
      "outputs": [],
      "stateMutability": "nonpayable",
      "type": "function"
    },
    {
      "inputs": [
        {
          "internalType": "address",
          "name": "",
          "type": "address"
        },
        {
          "internalType": "uint256",
          "name": "",
          "type": "uint256"
        }
      ],
      "name": "studentRecords",
      "outputs": [
        {
          "internalType": "string",
          "name": "grade",
          "type": "string"
        },
        {
          "internalType": "string",
          "name": "note",
          "type": "string"
        },
        {
          "internalType": "bool",
          "name": "completed",
          "type": "bool"
        },
        {
          "internalType": "bool",
          "name": "certified",
          "type": "bool"
        }
      ],
      "stateMutability": "view",
      "type": "function"
    },
    {
      "inputs": [
        {
          "internalType": "bytes4",
          "name": "interfaceId",
          "type": "bytes4"
        }
      ],
      "name": "supportsInterface",
      "outputs": [
        {
          "internalType": "bool",
          "name": "",
          "type": "bool"
        }
      ],
      "stateMutability": "view",
      "type": "function"
    },
    {
      "inputs": [
        {
          "internalType": "uint256",
          "name": "courseId",
          "type": "uint256"
        },
        {
          "internalType": "bool",
          "name": "active",
          "type": "bool"
        }
      ],
      "name": "toggleCourseStatus",
      "outputs": [],
      "stateMutability": "nonpayable",
      "type": "function"
    },
    {
      "inputs": [],
      "name": "withdrawHBAR",
      "outputs": [],
      "stateMutability": "nonpayable",
      "type": "function"
    },
    {
      "inputs": [],
      "name": "withdrawToken",
      "outputs": [],
      "stateMutability": "nonpayable",
      "type": "function"
    }
  ],
  "bytecode": "0x608060405234801561001057600080fd5b5060405161445638038061445683398181016040528101906100329190610301565b6100456000801b3361014060201b60201c565b6100757fa49807205ce4d355092ef5a8a18f56e8913cf4a201fbe287825b095693c217753361014060201b60201c565b82600160006101000a81548173ffffffffffffffffffffffffffffffffffffffff021916908373ffffffffffffffffffffffffffffffffffffffff16021790555081600260006101000a81548173ffffffffffffffffffffffffffffffffffffffff021916908373ffffffffffffffffffffffffffffffffffffffff16021790555080600360006101000a81548173ffffffffffffffffffffffffffffffffffffffff021916908373ffffffffffffffffffffffffffffffffffffffff160217905550505050610354565b610150828261022c60201b60201c565b61022857600160008084815260200190815260200160002060000160008373ffffffffffffffffffffffffffffffffffffffff1673ffffffffffffffffffffffffffffffffffffffff16815260200190815260200160002060006101000a81548160ff0219169083151502179055506101cd61029660201b60201c565b73ffffffffffffffffffffffffffffffffffffffff168173ffffffffffffffffffffffffffffffffffffffff16837f2f8788117e7eff1d82e926ec794901d17c78024a50270940304540a733656f0d60405160405180910390a45b5050565b600080600084815260200190815260200160002060000160008373ffffffffffffffffffffffffffffffffffffffff1673ffffffffffffffffffffffffffffffffffffffff16815260200190815260200160002060009054906101000a900460ff16905092915050565b600033905090565b600080fd5b600073ffffffffffffffffffffffffffffffffffffffff82169050919050565b60006102ce826102a3565b9050919050565b6102de816102c3565b81146102e957600080fd5b50565b6000815190506102fb816102d5565b92915050565b60008060006060848603121561031a5761031961029e565b5b6000610328868287016102ec565b9350506020610339868287016102ec565b925050604061034a868287016102ec565b9150509250925092565b6140f3806103636000396000f3fe6080604052600436106101d85760003560e01c80638a954a0311610102578063b7bd803111610095578063d547741f11610064578063d547741f146106b6578063e7299840146106df578063f59d3abe14610708578063f7be43fb14610731576101d8565b8063b7bd803114610622578063c415b95c1461064b578063ca628c7814610676578063d4c4ecfa1461068d576101d8565b806396f979d2116100d157806396f979d21461056f5780639b3fc219146105b2578063a217fddf146105ce578063a42dce80146105f9576101d8565b80638a954a031461049f5780638d878889146104dc57806391aec72a1461050757806391d1485414610532576101d8565b8063446286a21161017a57806375c2f8f01161014957806375c2f8f0146103cc5780637b656ada1461040957806382216fbd1461044957806386e5c15a14610474576101d8565b8063446286a2146103245780636bea7b521461034d5780636e274a341461036457806375b238fc146103a1576101d8565b8063313efd2f116101b6578063313efd2f1461028057806336568abe146102a95780633eea06f5146102d257806343b5742b146102fb576101d8565b806301ffc9a7146101dd578063248a9ca31461021a5780632f2ff15d14610257575b600080fd5b3480156101e957600080fd5b5061020460048036038101906101ff91906129e8565b61075c565b6040516102119190612a30565b60405180910390f35b34801561022657600080fd5b50610241600480360381019061023c9190612a81565b6107d6565b60405161024e9190612abd565b60405180910390f35b34801561026357600080fd5b5061027e60048036038101906102799190612b36565b6107f5565b005b34801561028c57600080fd5b506102a760048036038101906102a29190612b76565b610816565b005b3480156102b557600080fd5b506102d060048036038101906102cb9190612b36565b61086e565b005b3480156102de57600080fd5b506102f960048036038101906102f49190612c05565b6108f1565b005b34801561030757600080fd5b50610322600480360381019061031d9190612d8b565b610a64565b005b34801561033057600080fd5b5061034b60048036038101906103469190612e2a565b610c89565b005b34801561035957600080fd5b50610362611055565b005b34801561037057600080fd5b5061038b60048036038101906103869190612e99565b6110eb565b6040516103989190612ee8565b60405180910390f35b3480156103ad57600080fd5b506103b6611139565b6040516103c39190612abd565b60405180910390f35b3480156103d857600080fd5b506103f360048036038101906103ee9190612f03565b61115d565b6040516104009190612fee565b60405180910390f35b34801561041557600080fd5b50610430600480360381019061042b9190613010565b6111fe565b60405161044094939291906130cf565b60405180910390f35b34801561045557600080fd5b5061045e611365565b60405161046b9190613131565b60405180910390f35b34801561048057600080fd5b5061048961136b565b6040516104969190612abd565b60405180910390f35b3480156104ab57600080fd5b506104c660048036038101906104c1919061314c565b61138f565b6040516104d39190612a30565b60405180910390f35b3480156104e857600080fd5b506104f16113be565b6040516104fe91906131eb565b60405180910390f35b34801561051357600080fd5b5061051c6113e4565b6040516105299190613227565b60405180910390f35b34801561053e57600080fd5b5061055960048036038101906105549190612b36565b61140a565b6040516105669190612a30565b60405180910390f35b34801561057b57600080fd5b5061059660048036038101906105919190612f03565b611474565b6040516105a99796959493929190613242565b60405180910390f35b6105cc60048036038101906105c79190612f03565b611600565b005b3480156105da57600080fd5b506105e361196f565b6040516105f09190612abd565b60405180910390f35b34801561060557600080fd5b50610620600480360381019061061b9190612b76565b611976565b005b34801561062e57600080fd5b5061064960048036038101906106449190612f03565b6119e5565b005b34801561065757600080fd5b50610660611daf565b60405161066d9190612ee8565b60405180910390f35b34801561068257600080fd5b5061068b611dd5565b005b34801561069957600080fd5b506106b460048036038101906106af91906132bf565b611fe7565b005b3480156106c257600080fd5b506106dd60048036038101906106d89190612b36565b612196565b005b3480156106eb57600080fd5b506107066004803603810190610701919061314c565b6121b7565b005b34801561071457600080fd5b5061072f600480360381019061072a9190612b76565b6123cb565b005b34801561073d57600080fd5b50610746612423565b6040516107539190612abd565b60405180910390f35b60007f7965db0b000000000000000000000000000000000000000000000000000000007bffffffffffffffffffffffffffffffffffffffffffffffffffffffff1916827bffffffffffffffffffffffffffffffffffffffffffffffffffffffff191614806107cf57506107ce82612447565b5b9050919050565b6000806000838152602001908152602001600020600101549050919050565b6107fe826107d6565b610807816124b1565b61081183836124c5565b505050565b7fa49807205ce4d355092ef5a8a18f56e8913cf4a201fbe287825b095693c21775610840816124b1565b61086a7f36a5c4aaacb6b388bbd448bf11096b7dafc5652bcc9046084fd0e95b1fb0b2cc836124c5565b5050565b6108766125a5565b73ffffffffffffffffffffffffffffffffffffffff168173ffffffffffffffffffffffffffffffffffffffff16146108e3576040517f08c379a00000000000000000000000000000000000000000000000000000000081526004016108da906133d0565b60405180910390fd5b6108ed82826125ad565b5050565b816005600082815260200190815260200160002060050160009054906101000a900460ff16610955576040517f08c379a000000000000000000000000000000000000000000000000000000000815260040161094c9061343c565b60405180910390fd5b3373ffffffffffffffffffffffffffffffffffffffff166005600083815260200190815260200160002060020160009054906101000a900473ffffffffffffffffffffffffffffffffffffffff1673ffffffffffffffffffffffffffffffffffffffff16146109f9576040517f08c379a00000000000000000000000000000000000000000000000000000000081526004016109f0906134a8565b60405180910390fd5b816005600085815260200190815260200160002060050160016101000a81548160ff021916908315150217905550827f5c37a26acf63b8a3c003a9f59e9266a4cc57defe1589338e67c674ec977b0f0f83604051610a579190612a30565b60405180910390a2505050565b836005600082815260200190815260200160002060050160009054906101000a900460ff16610ac8576040517f08c379a0000000000000000000000000000000000000000000000000000000008152600401610abf9061343c565b60405180910390fd5b3373ffffffffffffffffffffffffffffffffffffffff166005600083815260200190815260200160002060020160009054906101000a900473ffffffffffffffffffffffffffffffffffffffff1673ffffffffffffffffffffffffffffffffffffffff1614610b6c576040517f08c379a0000000000000000000000000000000000000000000000000000000008152600401610b63906134a8565b60405180910390fd5b6008600086815260200190815260200160002060008573ffffffffffffffffffffffffffffffffffffffff1673ffffffffffffffffffffffffffffffffffffffff16815260200190815260200160002060009054906101000a900460ff16610c09576040517f08c379a0000000000000000000000000000000000000000000000000000000008152600401610c0090613514565b60405180910390fd5b6000600760008673ffffffffffffffffffffffffffffffffffffffff1673ffffffffffffffffffffffffffffffffffffffff1681526020019081526020016000206000878152602001908152602001600020905083816000019081610c6e9190613736565b5082816001019081610c809190613736565b50505050505050565b826005600082815260200190815260200160002060050160009054906101000a900460ff16610ced576040517f08c379a0000000000000000000000000000000000000000000000000000000008152600401610ce49061343c565b60405180910390fd5b3373ffffffffffffffffffffffffffffffffffffffff166005600083815260200190815260200160002060020160009054906101000a900473ffffffffffffffffffffffffffffffffffffffff1673ffffffffffffffffffffffffffffffffffffffff1614610d91576040517f08c379a0000000000000000000000000000000000000000000000000000000008152600401610d88906134a8565b60405180910390fd5b6008600085815260200190815260200160002060008473ffffffffffffffffffffffffffffffffffffffff1673ffffffffffffffffffffffffffffffffffffffff16815260200190815260200160002060009054906101000a900460ff16610e2e576040517f08c379a0000000000000000000000000000000000000000000000000000000008152600401610e2590613854565b60405180910390fd5b6000600760008573ffffffffffffffffffffffffffffffffffffffff1673ffffffffffffffffffffffffffffffffffffffff168152602001908152602001600020600086815260200190815260200160002090508060020160009054906101000a900460ff1615610ed4576040517f08c379a0000000000000000000000000000000000000000000000000000000008152600401610ecb906138c0565b60405180910390fd5b60018160020160006101000a81548160ff021916908315150217905550848473ffffffffffffffffffffffffffffffffffffffff167f4b85f119a65c9ab344d9a4d007a895c9a738e08054fee095494567187c45ea8660405160405180910390a38060020160019054906101000a900460ff1661104e57600260009054906101000a900473ffffffffffffffffffffffffffffffffffffffff1673ffffffffffffffffffffffffffffffffffffffff16630712249f85856040518363ffffffff1660e01b8152600401610fa89291906138e0565b6020604051808303816000875af1158015610fc7573d6000803e3d6000fd5b505050506040513d601f19601f82011682018060405250810190610feb9190613925565b5060018160020160016101000a81548160ff021916908315150217905550848473ffffffffffffffffffffffffffffffffffffffff167ffec61b9ec0e29047dbeea981617649d79f187d172cfd492695a3d0bfee28883e60405160405180910390a35b5050505050565b7fa49807205ce4d355092ef5a8a18f56e8913cf4a201fbe287825b095693c2177561107f816124b1565b600360009054906101000a900473ffffffffffffffffffffffffffffffffffffffff1673ffffffffffffffffffffffffffffffffffffffff166108fc479081150290604051600060405180830381858888f193505050501580156110e7573d6000803e3d6000fd5b5050565b6006602052816000526040600020818154811061110757600080fd5b906000526020600020016000915091509054906101000a900473ffffffffffffffffffffffffffffffffffffffff1681565b7fa49807205ce4d355092ef5a8a18f56e8913cf4a201fbe287825b095693c2177581565b6060600660008381526020019081526020016000208054806020026020016040519081016040528092919081815260200182805480156111f257602002820191906000526020600020905b8160009054906101000a900473ffffffffffffffffffffffffffffffffffffffff1673ffffffffffffffffffffffffffffffffffffffff16815260200190600101908083116111a8575b50505050509050919050565b60076020528160005260406000206020528060005260406000206000915091505080600001805461122e90613563565b80601f016020809104026020016040519081016040528092919081815260200182805461125a90613563565b80156112a75780601f1061127c576101008083540402835291602001916112a7565b820191906000526020600020905b81548152906001019060200180831161128a57829003601f168201915b5050505050908060010180546112bc90613563565b80601f01602080910402602001604051908101604052809291908181526020018280546112e890613563565b80156113355780601f1061130a57610100808354040283529160200191611335565b820191906000526020600020905b81548152906001019060200180831161131857829003601f168201915b5050505050908060020160009054906101000a900460ff16908060020160019054906101000a900460ff16905084565b60045481565b7fd16e204b8a42a15ab0ea6bb8ec1ecdfbe69f38074fc865323af19efe7d9573d981565b60086020528160005260406000206020528060005260406000206000915091509054906101000a900460ff1681565b600160009054906101000a900473ffffffffffffffffffffffffffffffffffffffff1681565b600260009054906101000a900473ffffffffffffffffffffffffffffffffffffffff1681565b600080600084815260200190815260200160002060000160008373ffffffffffffffffffffffffffffffffffffffff1673ffffffffffffffffffffffffffffffffffffffff16815260200190815260200160002060009054906101000a900460ff16905092915050565b600560205280600052604060002060009150905080600001805461149790613563565b80601f01602080910402602001604051908101604052809291908181526020018280546114c390613563565b80156115105780601f106114e557610100808354040283529160200191611510565b820191906000526020600020905b8154815290600101906020018083116114f357829003601f168201915b50505050509080600101805461152590613563565b80601f016020809104026020016040519081016040528092919081815260200182805461155190613563565b801561159e5780601f106115735761010080835404028352916020019161159e565b820191906000526020600020905b81548152906001019060200180831161158157829003601f168201915b5050505050908060020160009054906101000a900473ffffffffffffffffffffffffffffffffffffffff16908060030154908060040154908060050160009054906101000a900460ff16908060050160019054906101000a900460ff16905087565b7f36a5c4aaacb6b388bbd448bf11096b7dafc5652bcc9046084fd0e95b1fb0b2cc61162a816124b1565b60006005600084815260200190815260200160002090508060050160009054906101000a900460ff16801561166d57508060050160019054906101000a900460ff165b6116ac576040517f08c379a00000000000000000000000000000000000000000000000000000000081526004016116a39061399e565b60405180910390fd5b6008600084815260200190815260200160002060003373ffffffffffffffffffffffffffffffffffffffff1673ffffffffffffffffffffffffffffffffffffffff16815260200190815260200160002060009054906101000a900460ff161561174a576040517f08c379a000000000000000000000000000000000000000000000000000000000815260040161174190613a0a565b60405180910390fd5b8060030154341015611791576040517f08c379a000000000000000000000000000000000000000000000000000000000815260040161178890613a76565b60405180910390fd5b60066000848152602001908152602001600020339080600181540180825580915050600190039060005260206000200160009091909190916101000a81548173ffffffffffffffffffffffffffffffffffffffff021916908373ffffffffffffffffffffffffffffffffffffffff16021790555060016008600085815260200190815260200160002060003373ffffffffffffffffffffffffffffffffffffffff1673ffffffffffffffffffffffffffffffffffffffff16815260200190815260200160002060006101000a81548160ff021916908315150217905550823373ffffffffffffffffffffffffffffffffffffffff167f55db50c1751fc3b040692644cad74784bdb2e7c170933754b1fd14ccf38f530a60405160405180910390a3823373ffffffffffffffffffffffffffffffffffffffff167f237b94339b1dc667f5a951cf2ee33f00228f658a6ab811cc6afa6caaa4b80cfa346040516118f99190613ae2565b60405180910390a3600360009054906101000a900473ffffffffffffffffffffffffffffffffffffffff1673ffffffffffffffffffffffffffffffffffffffff166108fc349081150290604051600060405180830381858888f19350505050158015611969573d6000803e3d6000fd5b50505050565b6000801b81565b7fa49807205ce4d355092ef5a8a18f56e8913cf4a201fbe287825b095693c217756119a0816124b1565b81600360006101000a81548173ffffffffffffffffffffffffffffffffffffffff021916908373ffffffffffffffffffffffffffffffffffffffff1602179055505050565b7f36a5c4aaacb6b388bbd448bf11096b7dafc5652bcc9046084fd0e95b1fb0b2cc611a0f816124b1565b60006005600084815260200190815260200160002090508060050160009054906101000a900460ff168015611a5257508060050160019054906101000a900460ff165b611a91576040517f08c379a0000000000000000000000000000000000000000000000000000000008152600401611a889061399e565b60405180910390fd5b6008600084815260200190815260200160002060003373ffffffffffffffffffffffffffffffffffffffff1673ffffffffffffffffffffffffffffffffffffffff16815260200190815260200160002060009054906101000a900460ff1615611b2f576040517f08c379a0000000000000000000000000000000000000000000000000000000008152600401611b2690613a0a565b60405180910390fd5b600160009054906101000a900473ffffffffffffffffffffffffffffffffffffffff1673ffffffffffffffffffffffffffffffffffffffff166323b872dd33600360009054906101000a900473ffffffffffffffffffffffffffffffffffffffff1684600401546040518463ffffffff1660e01b8152600401611bb493929190613b10565b6020604051808303816000875af1158015611bd3573d6000803e3d6000fd5b505050506040513d601f19601f82011682018060405250810190611bf79190613b5c565b611c36576040517f08c379a0000000000000000000000000000000000000000000000000000000008152600401611c2d90613bd5565b60405180910390fd5b60066000848152602001908152602001600020339080600181540180825580915050600190039060005260206000200160009091909190916101000a81548173ffffffffffffffffffffffffffffffffffffffff021916908373ffffffffffffffffffffffffffffffffffffffff16021790555060016008600085815260200190815260200160002060003373ffffffffffffffffffffffffffffffffffffffff1673ffffffffffffffffffffffffffffffffffffffff16815260200190815260200160002060006101000a81548160ff021916908315150217905550823373ffffffffffffffffffffffffffffffffffffffff167f55db50c1751fc3b040692644cad74784bdb2e7c170933754b1fd14ccf38f530a60405160405180910390a3823373ffffffffffffffffffffffffffffffffffffffff167f237b94339b1dc667f5a951cf2ee33f00228f658a6ab811cc6afa6caaa4b80cfa8360040154604051611da29190613c41565b60405180910390a3505050565b600360009054906101000a900473ffffffffffffffffffffffffffffffffffffffff1681565b7fa49807205ce4d355092ef5a8a18f56e8913cf4a201fbe287825b095693c21775611dff816124b1565b6000600160009054906101000a900473ffffffffffffffffffffffffffffffffffffffff1673ffffffffffffffffffffffffffffffffffffffff166370a08231306040518263ffffffff1660e01b8152600401611e5c9190612ee8565b602060405180830381865afa158015611e79573d6000803e3d6000fd5b505050506040513d601f19601f82011682018060405250810190611e9d9190613925565b905060008111611ee2576040517f08c379a0000000000000000000000000000000000000000000000000000000008152600401611ed990613cbb565b60405180910390fd5b600160009054906101000a900473ffffffffffffffffffffffffffffffffffffffff1673ffffffffffffffffffffffffffffffffffffffff1663a9059cbb600360009054906101000a900473ffffffffffffffffffffffffffffffffffffffff16836040518363ffffffff1660e01b8152600401611f61929190613cdb565b6020604051808303816000875af1158015611f80573d6000803e3d6000fd5b505050506040513d601f19601f82011682018060405250810190611fa49190613b5c565b611fe3576040517f08c379a0000000000000000000000000000000000000000000000000000000008152600401611fda90613d50565b60405180910390fd5b5050565b7fd16e204b8a42a15ab0ea6bb8ec1ecdfbe69f38074fc865323af19efe7d9573d9612011816124b1565b600060046000815461202290613d9f565b91905081905590506040518060e001604052808781526020018681526020013373ffffffffffffffffffffffffffffffffffffffff168152602001858152602001848152602001600115158152602001600115158152506005600083815260200190815260200160002060008201518160000190816120a19190613736565b5060208201518160010190816120b79190613736565b5060408201518160020160006101000a81548173ffffffffffffffffffffffffffffffffffffffff021916908373ffffffffffffffffffffffffffffffffffffffff160217905550606082015181600301556080820151816004015560a08201518160050160006101000a81548160ff02191690831515021790555060c08201518160050160016101000a81548160ff021916908315150217905550905050807fc2c844c5f6c72fe99b99de0942ba619e99957d3e8f7e614263ecfe40de952e58876040516121869190613de7565b60405180910390a2505050505050565b61219f826107d6565b6121a8816124b1565b6121b283836125ad565b505050565b816005600082815260200190815260200160002060050160009054906101000a900460ff1661221b576040517f08c379a00000000000000000000000000000000000000000000000000000000081526004016122129061343c565b60405180910390fd5b3373ffffffffffffffffffffffffffffffffffffffff166005600083815260200190815260200160002060020160009054906101000a900473ffffffffffffffffffffffffffffffffffffffff1673ffffffffffffffffffffffffffffffffffffffff16146122bf576040517f08c379a00000000000000000000000000000000000000000000000000000000081526004016122b6906134a8565b60405180910390fd5b6000600760008473ffffffffffffffffffffffffffffffffffffffff1673ffffffffffffffffffffffffffffffffffffffff168152602001908152602001600020600085815260200190815260200160002090508060020160019054906101000a900460ff16612364576040517f08c379a000000000000000000000000000000000000000000000000000000000815260040161235b90613e55565b60405180910390fd5b60008160020160016101000a81548160ff021916908315150217905550838373ffffffffffffffffffffffffffffffffffffffff167f4eccfa1b61f5d33b8d9c8f3ec5a92e8cd7ae963d459827b036e42bef0df4cf4460405160405180910390a350505050565b7fa49807205ce4d355092ef5a8a18f56e8913cf4a201fbe287825b095693c217756123f5816124b1565b61241f7fd16e204b8a42a15ab0ea6bb8ec1ecdfbe69f38074fc865323af19efe7d9573d9836124c5565b5050565b7f36a5c4aaacb6b388bbd448bf11096b7dafc5652bcc9046084fd0e95b1fb0b2cc81565b60007f01ffc9a7000000000000000000000000000000000000000000000000000000007bffffffffffffffffffffffffffffffffffffffffffffffffffffffff1916827bffffffffffffffffffffffffffffffffffffffffffffffffffffffff1916149050919050565b6124c2816124bd6125a5565b61268e565b50565b6124cf828261140a565b6125a157600160008084815260200190815260200160002060000160008373ffffffffffffffffffffffffffffffffffffffff1673ffffffffffffffffffffffffffffffffffffffff16815260200190815260200160002060006101000a81548160ff0219169083151502179055506125466125a5565b73ffffffffffffffffffffffffffffffffffffffff168173ffffffffffffffffffffffffffffffffffffffff16837f2f8788117e7eff1d82e926ec794901d17c78024a50270940304540a733656f0d60405160405180910390a45b5050565b600033905090565b6125b7828261140a565b1561268a57600080600084815260200190815260200160002060000160008373ffffffffffffffffffffffffffffffffffffffff1673ffffffffffffffffffffffffffffffffffffffff16815260200190815260200160002060006101000a81548160ff02191690831515021790555061262f6125a5565b73ffffffffffffffffffffffffffffffffffffffff168173ffffffffffffffffffffffffffffffffffffffff16837ff6391f5c32d9c69d2a47ea670b442974b53935d1edc7fd64eb21e047a839171b60405160405180910390a45b5050565b612698828261140a565b61270f576126a581612713565b6126b38360001c6020612740565b6040516020016126c4929190613f49565b6040516020818303038152906040526040517f08c379a00000000000000000000000000000000000000000000000000000000081526004016127069190613de7565b60405180910390fd5b5050565b60606127398273ffffffffffffffffffffffffffffffffffffffff16601460ff16612740565b9050919050565b6060600060028360026127539190613f83565b61275d9190613fc5565b67ffffffffffffffff81111561277657612775612c60565b5b6040519080825280601f01601f1916602001820160405280156127a85781602001600182028036833780820191505090505b5090507f3000000000000000000000000000000000000000000000000000000000000000816000815181106127e0576127df613ff9565b5b60200101907effffffffffffffffffffffffffffffffffffffffffffffffffffffffffffff1916908160001a9053507f78000000000000000000000000000000000000000000000000000000000000008160018151811061284457612843613ff9565b5b60200101907effffffffffffffffffffffffffffffffffffffffffffffffffffffffffffff1916908160001a905350600060018460026128849190613f83565b61288e9190613fc5565b90505b600181111561292e577f3031323334353637383961626364656600000000000000000000000000000000600f8616601081106128d0576128cf613ff9565b5b1a60f81b8282815181106128e7576128e6613ff9565b5b60200101907effffffffffffffffffffffffffffffffffffffffffffffffffffffffffffff1916908160001a905350600485901c94508061292790614028565b9050612891565b5060008414612972576040517f08c379a00000000000000000000000000000000000000000000000000000000081526004016129699061409d565b60405180910390fd5b8091505092915050565b6000604051905090565b600080fd5b600080fd5b60007fffffffff0000000000000000000000000000000000000000000000000000000082169050919050565b6129c581612990565b81146129d057600080fd5b50565b6000813590506129e2816129bc565b92915050565b6000602082840312156129fe576129fd612986565b5b6000612a0c848285016129d3565b91505092915050565b60008115159050919050565b612a2a81612a15565b82525050565b6000602082019050612a456000830184612a21565b92915050565b6000819050919050565b612a5e81612a4b565b8114612a6957600080fd5b50565b600081359050612a7b81612a55565b92915050565b600060208284031215612a9757612a96612986565b5b6000612aa584828501612a6c565b91505092915050565b612ab781612a4b565b82525050565b6000602082019050612ad26000830184612aae565b92915050565b600073ffffffffffffffffffffffffffffffffffffffff82169050919050565b6000612b0382612ad8565b9050919050565b612b1381612af8565b8114612b1e57600080fd5b50565b600081359050612b3081612b0a565b92915050565b60008060408385031215612b4d57612b4c612986565b5b6000612b5b85828601612a6c565b9250506020612b6c85828601612b21565b9150509250929050565b600060208284031215612b8c57612b8b612986565b5b6000612b9a84828501612b21565b91505092915050565b6000819050919050565b612bb681612ba3565b8114612bc157600080fd5b50565b600081359050612bd381612bad565b92915050565b612be281612a15565b8114612bed57600080fd5b50565b600081359050612bff81612bd9565b92915050565b60008060408385031215612c1c57612c1b612986565b5b6000612c2a85828601612bc4565b9250506020612c3b85828601612bf0565b9150509250929050565b600080fd5b600080fd5b6000601f19601f8301169050919050565b7f4e487b7100000000000000000000000000000000000000000000000000000000600052604160045260246000fd5b612c9882612c4f565b810181811067ffffffffffffffff82111715612cb757612cb6612c60565b5b80604052505050565b6000612cca61297c565b9050612cd68282612c8f565b919050565b600067ffffffffffffffff821115612cf657612cf5612c60565b5b612cff82612c4f565b9050602081019050919050565b82818337600083830152505050565b6000612d2e612d2984612cdb565b612cc0565b905082815260208101848484011115612d4a57612d49612c4a565b5b612d55848285612d0c565b509392505050565b600082601f830112612d7257612d71612c45565b5b8135612d82848260208601612d1b565b91505092915050565b60008060008060808587031215612da557612da4612986565b5b6000612db387828801612bc4565b9450506020612dc487828801612b21565b935050604085013567ffffffffffffffff811115612de557612de461298b565b5b612df187828801612d5d565b925050606085013567ffffffffffffffff811115612e1257612e1161298b565b5b612e1e87828801612d5d565b91505092959194509250565b600080600060608486031215612e4357612e42612986565b5b6000612e5186828701612bc4565b9350506020612e6286828701612b21565b925050604084013567ffffffffffffffff811115612e8357612e8261298b565b5b612e8f86828701612d5d565b9150509250925092565b60008060408385031215612eb057612eaf612986565b5b6000612ebe85828601612bc4565b9250506020612ecf85828601612bc4565b9150509250929050565b612ee281612af8565b82525050565b6000602082019050612efd6000830184612ed9565b92915050565b600060208284031215612f1957612f18612986565b5b6000612f2784828501612bc4565b91505092915050565b600081519050919050565b600082825260208201905092915050565b6000819050602082019050919050565b612f6581612af8565b82525050565b6000612f778383612f5c565b60208301905092915050565b6000602082019050919050565b6000612f9b82612f30565b612fa58185612f3b565b9350612fb083612f4c565b8060005b83811015612fe1578151612fc88882612f6b565b9750612fd383612f83565b925050600181019050612fb4565b5085935050505092915050565b600060208201905081810360008301526130088184612f90565b905092915050565b6000806040838503121561302757613026612986565b5b600061303585828601612b21565b925050602061304685828601612bc4565b9150509250929050565b600081519050919050565b600082825260208201905092915050565b60005b8381101561308a57808201518184015260208101905061306f565b60008484015250505050565b60006130a182613050565b6130ab818561305b565b93506130bb81856020860161306c565b6130c481612c4f565b840191505092915050565b600060808201905081810360008301526130e98187613096565b905081810360208301526130fd8186613096565b905061310c6040830185612a21565b6131196060830184612a21565b95945050505050565b61312b81612ba3565b82525050565b60006020820190506131466000830184613122565b92915050565b6000806040838503121561316357613162612986565b5b600061317185828601612bc4565b925050602061318285828601612b21565b9150509250929050565b6000819050919050565b60006131b16131ac6131a784612ad8565b61318c565b612ad8565b9050919050565b60006131c382613196565b9050919050565b60006131d5826131b8565b9050919050565b6131e5816131ca565b82525050565b600060208201905061320060008301846131dc565b92915050565b6000613211826131b8565b9050919050565b61322181613206565b82525050565b600060208201905061323c6000830184613218565b92915050565b600060e082019050818103600083015261325c818a613096565b905081810360208301526132708189613096565b905061327f6040830188612ed9565b61328c6060830187613122565b6132996080830186613122565b6132a660a0830185612a21565b6132b360c0830184612a21565b98975050505050505050565b600080600080608085870312156132d9576132d8612986565b5b600085013567ffffffffffffffff8111156132f7576132f661298b565b5b61330387828801612d5d565b945050602085013567ffffffffffffffff8111156133245761332361298b565b5b61333087828801612d5d565b935050604061334187828801612bc4565b925050606061335287828801612bc4565b91505092959194509250565b7f416363657373436f6e74726f6c3a2063616e206f6e6c792072656e6f756e636560008201527f20726f6c657320666f722073656c660000000000000000000000000000000000602082015250565b60006133ba602f8361305b565b91506133c58261335e565b604082019050919050565b600060208201905081810360008301526133e9816133ad565b9050919050565b7f436f7572736520646f6573206e6f742065786973740000000000000000000000600082015250565b600061342660158361305b565b9150613431826133f0565b602082019050919050565b6000602082019050818103600083015261345581613419565b9050919050565b7f4e6f7420617574686f72697a6564000000000000000000000000000000000000600082015250565b6000613492600e8361305b565b915061349d8261345c565b602082019050919050565b600060208201905081810360008301526134c181613485565b9050919050565b7f53747564656e74206e6f7420656e726f6c6c6564000000000000000000000000600082015250565b60006134fe60148361305b565b9150613509826134c8565b602082019050919050565b6000602082019050818103600083015261352d816134f1565b9050919050565b7f4e487b7100000000000000000000000000000000000000000000000000000000600052602260045260246000fd5b6000600282049050600182168061357b57607f821691505b60208210810361358e5761358d613534565b5b50919050565b60008190508160005260206000209050919050565b60006020601f8301049050919050565b600082821b905092915050565b6000600883026135f67fffffffffffffffffffffffffffffffffffffffffffffffffffffffffffffffff826135b9565b61360086836135b9565b95508019841693508086168417925050509392505050565b600061363361362e61362984612ba3565b61318c565b612ba3565b9050919050565b6000819050919050565b61364d83613618565b6136616136598261363a565b8484546135c6565b825550505050565b600090565b613676613669565b613681818484613644565b505050565b5b818110156136a55761369a60008261366e565b600181019050613687565b5050565b601f8211156136ea576136bb81613594565b6136c4846135a9565b810160208510156136d3578190505b6136e76136df856135a9565b830182613686565b50505b505050565b600082821c905092915050565b600061370d600019846008026136ef565b1980831691505092915050565b600061372683836136fc565b9150826002028217905092915050565b61373f82613050565b67ffffffffffffffff81111561375857613757612c60565b5b6137628254613563565b61376d8282856136a9565b600060209050601f8311600181146137a0576000841561378e578287015190505b613798858261371a565b865550613800565b601f1984166137ae86613594565b60005b828110156137d6578489015182556001820191506020850194506020810190506137b1565b868310156137f357848901516137ef601f8916826136fc565b8355505b6001600288020188555050505b505050505050565b7f4e6f7420656e726f6c6c65640000000000000000000000000000000000000000600082015250565b600061383e600c8361305b565b915061384982613808565b602082019050919050565b6000602082019050818103600083015261386d81613831565b9050919050565b7f416c7265616479206d61726b6564000000000000000000000000000000000000600082015250565b60006138aa600e8361305b565b91506138b582613874565b602082019050919050565b600060208201905081810360008301526138d98161389d565b9050919050565b60006040820190506138f56000830185612ed9565b81810360208301526139078184613096565b90509392505050565b60008151905061391f81612bad565b92915050565b60006020828403121561393b5761393a612986565b5b600061394984828501613910565b91505092915050565b7f496e616374697665206f72206e6f6e6578697374656e7420636f757273650000600082015250565b6000613988601e8361305b565b915061399382613952565b602082019050919050565b600060208201905081810360008301526139b78161397b565b9050919050565b7f416c726561647920656e726f6c6c656400000000000000000000000000000000600082015250565b60006139f460108361305b565b91506139ff826139be565b602082019050919050565b60006020820190508181036000830152613a23816139e7565b9050919050565b7f496e73756666696369656e742048424152000000000000000000000000000000600082015250565b6000613a6060118361305b565b9150613a6b82613a2a565b602082019050919050565b60006020820190508181036000830152613a8f81613a53565b9050919050565b7f4842415200000000000000000000000000000000000000000000000000000000600082015250565b6000613acc60048361305b565b9150613ad782613a96565b602082019050919050565b6000604082019050613af76000830184613122565b8181036020830152613b0881613abf565b905092915050565b6000606082019050613b256000830186612ed9565b613b326020830185612ed9565b613b3f6040830184613122565b949350505050565b600081519050613b5681612bd9565b92915050565b600060208284031215613b7257613b71612986565b5b6000613b8084828501613b47565b91505092915050565b7f546f6b656e207472616e73666572206661696c65640000000000000000000000600082015250565b6000613bbf60158361305b565b9150613bca82613b89565b602082019050919050565b60006020820190508181036000830152613bee81613bb2565b9050919050565b7f544f4b454e000000000000000000000000000000000000000000000000000000600082015250565b6000613c2b60058361305b565b9150613c3682613bf5565b602082019050919050565b6000604082019050613c566000830184613122565b8181036020830152613c6781613c1e565b905092915050565b7f4e6f20746f6b656e7320746f2077697468647261770000000000000000000000600082015250565b6000613ca560158361305b565b9150613cb082613c6f565b602082019050919050565b60006020820190508181036000830152613cd481613c98565b9050919050565b6000604082019050613cf06000830185612ed9565b613cfd6020830184613122565b9392505050565b7f5472616e73666572206661696c65640000000000000000000000000000000000600082015250565b6000613d3a600f8361305b565b9150613d4582613d04565b602082019050919050565b60006020820190508181036000830152613d6981613d2d565b9050919050565b7f4e487b7100000000000000000000000000000000000000000000000000000000600052601160045260246000fd5b6000613daa82612ba3565b91507fffffffffffffffffffffffffffffffffffffffffffffffffffffffffffffffff8203613ddc57613ddb613d70565b5b600182019050919050565b60006020820190508181036000830152613e018184613096565b905092915050565b7f4e6f20636572746966696361746520746f207265766f6b650000000000000000600082015250565b6000613e3f60188361305b565b9150613e4a82613e09565b602082019050919050565b60006020820190508181036000830152613e6e81613e32565b9050919050565b600081905092915050565b7f416363657373436f6e74726f6c3a206163636f756e7420000000000000000000600082015250565b6000613eb6601783613e75565b9150613ec182613e80565b601782019050919050565b6000613ed782613050565b613ee18185613e75565b9350613ef181856020860161306c565b80840191505092915050565b7f206973206d697373696e6720726f6c6520000000000000000000000000000000600082015250565b6000613f33601183613e75565b9150613f3e82613efd565b601182019050919050565b6000613f5482613ea9565b9150613f608285613ecc565b9150613f6b82613f26565b9150613f778284613ecc565b91508190509392505050565b6000613f8e82612ba3565b9150613f9983612ba3565b9250828202613fa781612ba3565b91508282048414831517613fbe57613fbd613d70565b5b5092915050565b6000613fd082612ba3565b9150613fdb83612ba3565b9250828201905080821115613ff357613ff2613d70565b5b92915050565b7f4e487b7100000000000000000000000000000000000000000000000000000000600052603260045260246000fd5b600061403382612ba3565b91506000820361404657614045613d70565b5b600182039050919050565b7f537472696e67733a20686578206c656e67746820696e73756666696369656e74600082015250565b600061408760208361305b565b915061409282614051565b602082019050919050565b600060208201905081810360008301526140b68161407a565b905091905056fea26469706673582212208945558ea67377762814e753826a0cc28924c5ada5f9581ce23a0f522d599bb964736f6c634300081c0033",
  "linkReferences": {},
  "deployedLinkReferences": {}
}