{
  "_format": "hh-sol-artifact-1",
  "contractName": "EduLedger",
  "sourceName": "contracts/EduLedger.sol",
  "abi": [
    {
      "inputs": [
        {
          "internalType": "address",
          "name": "_eduToken",
          "type": "address"
        },
        {
          "internalType": "address",
          "name": "_nft",
          "type": "address"
        },
        {
          "internalType": "address",
          "name": "_feeCollector",
          "type": "address"
        }
      ],
      "stateMutability": "nonpayable",
      "type": "constructor"
    },
    {
      "anonymous": false,
      "inputs": [
        {
          "indexed": true,
          "internalType": "address",
          "name": "student",
          "type": "address"
        },
        {
          "indexed": true,
          "internalType": "uint256",
          "name": "courseId",
          "type": "uint256"
        }
      ],
      "name": "CertificateIssued",
      "type": "event"
    },
    {
      "anonymous": false,
      "inputs": [
        {
          "indexed": true,
          "internalType": "address",
          "name": "student",
          "type": "address"
        },
        {
          "indexed": true,
          "internalType": "uint256",
          "name": "courseId",
          "type": "uint256"
        }
      ],
      "name": "CertificateRevoked",
      "type": "event"
    },
    {
      "anonymous": false,
      "inputs": [
        {
          "indexed": true,
          "internalType": "address",
          "name": "student",
          "type": "address"
        },
        {
          "indexed": true,
          "internalType": "uint256",
          "name": "courseId",
          "type": "uint256"
        }
      ],
      "name": "CourseCompleted",
      "type": "event"
    },
    {
      "anonymous": false,
      "inputs": [
        {
          "indexed": true,
          "internalType": "uint256",
          "name": "courseId",
          "type": "uint256"
        },
        {
          "indexed": false,
          "internalType": "string",
          "name": "title",
          "type": "string"
        }
      ],
      "name": "CourseCreated",
      "type": "event"
    },
    {
      "anonymous": false,
      "inputs": [
        {
          "indexed": true,
          "internalType": "uint256",
          "name": "courseId",
          "type": "uint256"
        },
        {
          "indexed": false,
          "internalType": "uint256",
          "name": "newFeeHBAR",
          "type": "uint256"
        },
        {
          "indexed": false,
          "internalType": "uint256",
          "name": "newFeeToken",
          "type": "uint256"
        }
      ],
      "name": "CourseFeeAdjusted",
      "type": "event"
    },
    {
      "anonymous": false,
      "inputs": [
        {
          "indexed": true,
          "internalType": "uint256",
          "name": "courseId",
          "type": "uint256"
        },
        {
          "indexed": false,
          "internalType": "string",
          "name": "title",
          "type": "string"
        },
        {
          "indexed": false,
          "internalType": "bool",
          "name": "active",
          "type": "bool"
        },
        {
          "indexed": false,
          "internalType": "uint256",
          "name": "feeHBAR",
          "type": "uint256"
        },
        {
          "indexed": false,
          "internalType": "uint256",
          "name": "feeToken",
          "type": "uint256"
        }
      ],
      "name": "CourseUpdated",
      "type": "event"
    },
    {
      "anonymous": false,
      "inputs": [
        {
          "indexed": true,
          "internalType": "address",
          "name": "student",
          "type": "address"
        },
        {
          "indexed": true,
          "internalType": "uint256",
          "name": "courseId",
          "type": "uint256"
        },
        {
          "indexed": false,
          "internalType": "uint256",
          "name": "amount",
          "type": "uint256"
        },
        {
          "indexed": false,
          "internalType": "string",
          "name": "paymentType",
          "type": "string"
        }
      ],
      "name": "PaymentReceived",
      "type": "event"
    },
    {
      "anonymous": false,
      "inputs": [
        {
          "indexed": true,
          "internalType": "bytes32",
          "name": "role",
          "type": "bytes32"
        },
        {
          "indexed": true,
          "internalType": "bytes32",
          "name": "previousAdminRole",
          "type": "bytes32"
        },
        {
          "indexed": true,
          "internalType": "bytes32",
          "name": "newAdminRole",
          "type": "bytes32"
        }
      ],
      "name": "RoleAdminChanged",
      "type": "event"
    },
    {
      "anonymous": false,
      "inputs": [
        {
          "indexed": true,
          "internalType": "bytes32",
          "name": "role",
          "type": "bytes32"
        },
        {
          "indexed": true,
          "internalType": "address",
          "name": "account",
          "type": "address"
        },
        {
          "indexed": true,
          "internalType": "address",
          "name": "sender",
          "type": "address"
        }
      ],
      "name": "RoleGranted",
      "type": "event"
    },
    {
      "anonymous": false,
      "inputs": [
        {
          "indexed": true,
          "internalType": "bytes32",
          "name": "role",
          "type": "bytes32"
        },
        {
          "indexed": true,
          "internalType": "address",
          "name": "account",
          "type": "address"
        },
        {
          "indexed": true,
          "internalType": "address",
          "name": "sender",
          "type": "address"
        }
      ],
      "name": "RoleRevoked",
      "type": "event"
    },
    {
      "anonymous": false,
      "inputs": [
        {
          "indexed": true,
          "internalType": "address",
          "name": "student",
          "type": "address"
        },
        {
          "indexed": true,
          "internalType": "uint256",
          "name": "courseId",
          "type": "uint256"
        }
      ],
      "name": "StudentEnrolled",
      "type": "event"
    },
    {
      "inputs": [],
      "name": "ADMIN_ROLE",
      "outputs": [
        {
          "internalType": "bytes32",
          "name": "",
          "type": "bytes32"
        }
      ],
      "stateMutability": "view",
      "type": "function"
    },
    {
      "inputs": [],
      "name": "COURSE_MANAGER_ROLE",
      "outputs": [
        {
          "internalType": "bytes32",
          "name": "",
          "type": "bytes32"
        }
      ],
      "stateMutability": "view",
      "type": "function"
    },
    {
      "inputs": [],
      "name": "DEFAULT_ADMIN_ROLE",
      "outputs": [
        {
          "internalType": "bytes32",
          "name": "",
          "type": "bytes32"
        }
      ],
      "stateMutability": "view",
      "type": "function"
    },
    {
      "inputs": [],
      "name": "STUDENT_ROLE",
      "outputs": [
        {
          "internalType": "bytes32",
          "name": "",
          "type": "bytes32"
        }
      ],
      "stateMutability": "view",
      "type": "function"
    },
    {
      "inputs": [],
      "name": "TEACHER_ROLE",
      "outputs": [
        {
          "internalType": "bytes32",
          "name": "",
          "type": "bytes32"
        }
      ],
      "stateMutability": "view",
      "type": "function"
    },
    {
      "inputs": [
        {
          "internalType": "uint256",
          "name": "courseId",
          "type": "uint256"
        },
        {
          "internalType": "address",
          "name": "student",
          "type": "address"
        },
        {
          "internalType": "string",
          "name": "grade",
          "type": "string"
        },
        {
          "internalType": "string",
          "name": "note",
          "type": "string"
        }
      ],
      "name": "addRecord",
      "outputs": [],
      "stateMutability": "nonpayable",
      "type": "function"
    },
    {
      "inputs": [],
      "name": "certificateNFT",
      "outputs": [
        {
          "internalType": "contract IEduCertificateNFT",
          "name": "",
          "type": "address"
        }
      ],
      "stateMutability": "view",
      "type": "function"
    },
    {
      "inputs": [],
      "name": "courseCounter",
      "outputs": [
        {
          "internalType": "uint256",
          "name": "",
          "type": "uint256"
        }
      ],
      "stateMutability": "view",
      "type": "function"
    },
    {
      "inputs": [
        {
          "internalType": "uint256",
          "name": "",
          "type": "uint256"
        }
      ],
      "name": "courses",
      "outputs": [
        {
          "internalType": "string",
          "name": "title",
          "type": "string"
        },
        {
          "internalType": "string",
          "name": "description",
          "type": "string"
        },
        {
          "internalType": "address",
          "name": "teacher",
          "type": "address"
        },
        {
          "internalType": "uint256",
          "name": "feeHBAR",
          "type": "uint256"
        },
        {
          "internalType": "uint256",
          "name": "feeToken",
          "type": "uint256"
        },
        {
          "internalType": "bool",
          "name": "exists",
          "type": "bool"
        },
        {
          "internalType": "bool",
          "name": "active",
          "type": "bool"
        },
        {
          "internalType": "uint256",
          "name": "createdAt",
          "type": "uint256"
        },
        {
          "internalType": "uint256",
          "name": "lastUpdated",
          "type": "uint256"
        }
      ],
      "stateMutability": "view",
      "type": "function"
    },
    {
      "inputs": [
        {
          "internalType": "string",
          "name": "_title",
          "type": "string"
        },
        {
          "internalType": "string",
          "name": "_description",
          "type": "string"
        },
        {
          "internalType": "uint256",
          "name": "_feeHBAR",
          "type": "uint256"
        },
        {
          "internalType": "uint256",
          "name": "_feeToken",
          "type": "uint256"
        }
      ],
      "name": "createCourse",
      "outputs": [],
      "stateMutability": "nonpayable",
      "type": "function"
    },
    {
      "inputs": [],
      "name": "eduToken",
      "outputs": [
        {
          "internalType": "contract IERC20",
          "name": "",
          "type": "address"
        }
      ],
      "stateMutability": "view",
      "type": "function"
    },
    {
      "inputs": [
        {
          "internalType": "uint256",
          "name": "courseId",
          "type": "uint256"
        }
      ],
      "name": "enrollHBAR",
      "outputs": [],
      "stateMutability": "payable",
      "type": "function"
    },
    {
      "inputs": [
        {
          "internalType": "uint256",
          "name": "courseId",
          "type": "uint256"
        }
      ],
      "name": "enrollToken",
      "outputs": [],
      "stateMutability": "nonpayable",
      "type": "function"
    },
    {
      "inputs": [
        {
          "internalType": "uint256",
          "name": "",
          "type": "uint256"
        }
      ],
      "name": "feeAdjustmentRates",
      "outputs": [
        {
          "internalType": "uint256",
          "name": "",
          "type": "uint256"
        }
      ],
      "stateMutability": "view",
      "type": "function"
    },
    {
      "inputs": [],
      "name": "feeCollector",
      "outputs": [
        {
          "internalType": "address",
          "name": "",
          "type": "address"
        }
      ],
      "stateMutability": "view",
      "type": "function"
    },
    {
      "inputs": [
        {
          "internalType": "bytes32",
          "name": "role",
          "type": "bytes32"
        }
      ],
      "name": "getRoleAdmin",
      "outputs": [
        {
          "internalType": "bytes32",
          "name": "",
          "type": "bytes32"
        }
      ],
      "stateMutability": "view",
      "type": "function"
    },
    {
      "inputs": [
        {
          "internalType": "uint256",
          "name": "courseId",
          "type": "uint256"
        }
      ],
      "name": "getStudents",
      "outputs": [
        {
          "internalType": "address[]",
          "name": "",
          "type": "address[]"
        }
      ],
      "stateMutability": "view",
      "type": "function"
    },
    {
      "inputs": [
        {
          "internalType": "address",
          "name": "manager",
          "type": "address"
        }
      ],
      "name": "grantCourseManager",
      "outputs": [],
      "stateMutability": "nonpayable",
      "type": "function"
    },
    {
      "inputs": [
        {
          "internalType": "bytes32",
          "name": "role",
          "type": "bytes32"
        },
        {
          "internalType": "address",
          "name": "account",
          "type": "address"
        }
      ],
      "name": "grantRole",
      "outputs": [],
      "stateMutability": "nonpayable",
      "type": "function"
    },
    {
      "inputs": [
        {
          "internalType": "address",
          "name": "student",
          "type": "address"
        }
      ],
      "name": "grantStudent",
      "outputs": [],
      "stateMutability": "nonpayable",
      "type": "function"
    },
    {
      "inputs": [
        {
          "internalType": "address",
          "name": "teacher",
          "type": "address"
        }
      ],
      "name": "grantTeacher",
      "outputs": [],
      "stateMutability": "nonpayable",
      "type": "function"
    },
    {
      "inputs": [
        {
          "internalType": "bytes32",
          "name": "role",
          "type": "bytes32"
        },
        {
          "internalType": "address",
          "name": "account",
          "type": "address"
        }
      ],
      "name": "hasRole",
      "outputs": [
        {
          "internalType": "bool",
          "name": "",
          "type": "bool"
        }
      ],
      "stateMutability": "view",
      "type": "function"
    },
    {
      "inputs": [
        {
          "internalType": "uint256",
          "name": "",
          "type": "uint256"
        },
        {
          "internalType": "address",
          "name": "",
          "type": "address"
        }
      ],
      "name": "isStudentEnrolled",
      "outputs": [
        {
          "internalType": "bool",
          "name": "",
          "type": "bool"
        }
      ],
      "stateMutability": "view",
      "type": "function"
    },
    {
      "inputs": [
        {
          "internalType": "uint256",
          "name": "courseId",
          "type": "uint256"
        },
        {
          "internalType": "address",
          "name": "student",
          "type": "address"
        },
        {
          "internalType": "string",
          "name": "certURI",
          "type": "string"
        }
      ],
      "name": "markCourseCompleted",
      "outputs": [],
      "stateMutability": "nonpayable",
      "type": "function"
    },
    {
      "inputs": [
        {
          "internalType": "bytes32",
          "name": "role",
          "type": "bytes32"
        },
        {
          "internalType": "address",
          "name": "account",
          "type": "address"
        }
      ],
      "name": "renounceRole",
      "outputs": [],
      "stateMutability": "nonpayable",
      "type": "function"
    },
    {
      "inputs": [
        {
          "internalType": "uint256",
          "name": "courseId",
          "type": "uint256"
        },
        {
          "internalType": "address",
          "name": "student",
          "type": "address"
        }
      ],
      "name": "revokeCertificate",
      "outputs": [],
      "stateMutability": "nonpayable",
      "type": "function"
    },
    {
      "inputs": [
        {
          "internalType": "bytes32",
          "name": "role",
          "type": "bytes32"
        },
        {
          "internalType": "address",
          "name": "account",
          "type": "address"
        }
      ],
      "name": "revokeRole",
      "outputs": [],
      "stateMutability": "nonpayable",
      "type": "function"
    },
    {
      "inputs": [
        {
          "internalType": "uint256",
          "name": "courseId",
          "type": "uint256"
        },
        {
          "internalType": "uint256",
          "name": "newFeeHBAR",
          "type": "uint256"
        },
        {
          "internalType": "uint256",
          "name": "newFeeToken",
          "type": "uint256"
        }
      ],
      "name": "setFeeAdjustment",
      "outputs": [],
      "stateMutability": "nonpayable",
      "type": "function"
    },
    {
      "inputs": [
        {
          "internalType": "address",
          "name": "_collector",
          "type": "address"
        }
      ],
      "name": "setFeeCollector",
      "outputs": [],
      "stateMutability": "nonpayable",
      "type": "function"
    },
    {
      "inputs": [
        {
          "internalType": "address",
          "name": "",
          "type": "address"
        },
        {
          "internalType": "uint256",
          "name": "",
          "type": "uint256"
        }
      ],
      "name": "studentRecords",
      "outputs": [
        {
          "internalType": "string",
          "name": "grade",
          "type": "string"
        },
        {
          "internalType": "string",
          "name": "note",
          "type": "string"
        },
        {
          "internalType": "bool",
          "name": "completed",
          "type": "bool"
        },
        {
          "internalType": "bool",
          "name": "certified",
          "type": "bool"
        }
      ],
      "stateMutability": "view",
      "type": "function"
    },
    {
      "inputs": [
        {
          "internalType": "bytes4",
          "name": "interfaceId",
          "type": "bytes4"
        }
      ],
      "name": "supportsInterface",
      "outputs": [
        {
          "internalType": "bool",
          "name": "",
          "type": "bool"
        }
      ],
      "stateMutability": "view",
      "type": "function"
    },
    {
      "inputs": [
        {
          "internalType": "uint256",
          "name": "courseId",
          "type": "uint256"
        },
        {
          "internalType": "bool",
          "name": "active",
          "type": "bool"
        }
      ],
      "name": "toggleCourseStatus",
      "outputs": [],
      "stateMutability": "nonpayable",
      "type": "function"
    },
    {
      "inputs": [],
      "name": "withdrawHBAR",
      "outputs": [],
      "stateMutability": "nonpayable",
      "type": "function"
    },
    {
      "inputs": [],
      "name": "withdrawToken",
      "outputs": [],
      "stateMutability": "nonpayable",
      "type": "function"
    }
  ],
  "bytecode": "0x608060405234801561001057600080fd5b5060405161284538038061284583398101604081905261002f91610161565b61003a6000336100a6565b6100647fa49807205ce4d355092ef5a8a18f56e8913cf4a201fbe287825b095693c21775336100a6565b600180546001600160a01b039485166001600160a01b0319918216179091556002805493851693821693909317909255600380549190931691161790556101a4565b6000828152602081815260408083206001600160a01b038516845290915290205460ff16610141576000828152602081815260408083206001600160a01b03851684529091529020805460ff191660011790556101003390565b6001600160a01b0316816001600160a01b0316837f2f8788117e7eff1d82e926ec794901d17c78024a50270940304540a733656f0d60405160405180910390a45b5050565b80516001600160a01b038116811461015c57600080fd5b919050565b60008060006060848603121561017657600080fd5b61017f84610145565b925061018d60208501610145565b915061019b60408501610145565b90509250925092565b612692806101b36000396000f3fe6080604052600436106101f95760003560e01c80638a954a031161010d578063aad7960a116100a0578063d4c4ecfa1161006f578063d4c4ecfa14610637578063d547741f14610657578063e729984014610677578063f59d3abe14610697578063f7be43fb146106b757600080fd5b8063aad7960a146105c2578063b7bd8031146105e2578063c415b95c14610602578063ca628c781461062257600080fd5b806396f979d2116100dc57806396f979d2146105455780639b3fc2191461057a578063a217fddf1461058d578063a42dce80146105a257600080fd5b80638a954a03146104925780638d878889146104cd57806391aec72a1461050557806391d148541461052557600080fd5b8063446286a21161019057806375b238fc1161015f57806375b238fc146103c957806375c2f8f0146103eb5780637b656ada1461041857806382216fbd1461044857806386e5c15a1461045e57600080fd5b8063446286a2146103335780634b91a6be146103535780636bea7b521461038057806373d1f68d1461039557600080fd5b8063313efd2f116101cc578063313efd2f146102b357806336568abe146102d35780633eea06f5146102f357806343b5742b1461031357600080fd5b806301ffc9a7146101fe5780631496e0bf14610233578063248a9ca3146102555780632f2ff15d14610293575b600080fd5b34801561020a57600080fd5b5061021e610219366004611dfe565b6106d9565b60405190151581526020015b60405180910390f35b34801561023f57600080fd5b5061025361024e366004611e28565b610710565b005b34801561026157600080fd5b50610285610270366004611e54565b60009081526020819052604090206001015490565b60405190815260200161022a565b34801561029f57600080fd5b506102536102ae366004611e89565b61078f565b3480156102bf57600080fd5b506102536102ce366004611eb5565b6107b9565b3480156102df57600080fd5b506102536102ee366004611e89565b6107ed565b3480156102ff57600080fd5b5061025361030e366004611ede565b61086c565b34801561031f57600080fd5b5061025361032e366004611fb3565b610950565b34801561033f57600080fd5b5061025361034e366004612036565b610ad2565b34801561035f57600080fd5b5061028561036e366004611e54565b60096020526000908152604090205481565b34801561038c57600080fd5b50610253610d24565b3480156103a157600080fd5b506102857fd661fb81a3e5704a0e72dae0cbb997863f76215e3777c176ae3a83fb62ab7def81565b3480156103d557600080fd5b5061028560008051602061263d83398151915281565b3480156103f757600080fd5b5061040b610406366004611e54565b610d75565b60405161022a919061208d565b34801561042457600080fd5b506104386104333660046120d9565b610d8f565b60405161022a9493929190612153565b34801561045457600080fd5b5061028560045481565b34801561046a57600080fd5b506102857fd16e204b8a42a15ab0ea6bb8ec1ecdfbe69f38074fc865323af19efe7d9573d981565b34801561049e57600080fd5b5061021e6104ad366004611e89565b600860209081526000928352604080842090915290825290205460ff1681565b3480156104d957600080fd5b506001546104ed906001600160a01b031681565b6040516001600160a01b03909116815260200161022a565b34801561051157600080fd5b506002546104ed906001600160a01b031681565b34801561053157600080fd5b5061021e610540366004611e89565b610ed8565b34801561055157600080fd5b50610565610560366004611e54565b610f01565b60405161022a99989796959493929190612191565b610253610588366004611e54565b61106a565b34801561059957600080fd5b50610285600081565b3480156105ae57600080fd5b506102536105bd366004611eb5565b6112a3565b3480156105ce57600080fd5b506102536105dd366004611eb5565b6112de565b3480156105ee57600080fd5b506102536105fd366004611e54565b611320565b34801561060e57600080fd5b506003546104ed906001600160a01b031681565b34801561062e57600080fd5b506102536115a5565b34801561064357600080fd5b506102536106523660046121fc565b61172b565b34801561066357600080fd5b50610253610672366004611e89565b611894565b34801561068357600080fd5b50610253610692366004611e89565b6118b9565b3480156106a357600080fd5b506102536106b2366004611eb5565b6119eb565b3480156106c357600080fd5b5061028560008051602061261d83398151915281565b60006001600160e01b03198216637965db0b60e01b148061070a57506301ffc9a760e01b6001600160e01b03198316145b92915050565b60008051602061263d83398151915261072881611a2d565b6000848152600560209081526040808320600381018790556004018590556009825291829020429055815185815290810184905285917f9da2046039e1806247c298620fe7a2c14f2a7c66113f3598a152a94e3a67ab3b910160405180910390a250505050565b6000828152602081905260409020600101546107aa81611a2d565b6107b48383611a3a565b505050565b60008051602061263d8339815191526107d181611a2d565b6107e960008051602061261d83398151915283611a3a565b5050565b6001600160a01b03811633146108625760405162461bcd60e51b815260206004820152602f60248201527f416363657373436f6e74726f6c3a2063616e206f6e6c792072656e6f756e636560448201526e103937b632b9903337b91039b2b63360891b60648201526084015b60405180910390fd5b6107e98282611abe565b60008281526005602081905260409091200154829060ff166108a05760405162461bcd60e51b815260040161085990612275565b6000818152600560205260409020600201546001600160a01b031633146108d95760405162461bcd60e51b8152600401610859906122a4565b600083815260056020819052604091829020908101805461ff0019166101008615150217905542600782015560038101546004820154925186937f2a1d983bca838792682e873dea2ad5a9ad06bd28a5716bf06e125e35959c37e493610943939092889290612306565b60405180910390a2505050565b60008481526005602081905260409091200154849060ff166109845760405162461bcd60e51b815260040161085990612275565b6000818152600560205260409020600201546001600160a01b031633146109bd5760405162461bcd60e51b8152600401610859906122a4565b60008581526008602090815260408083206001600160a01b038816845290915290205460ff16610a265760405162461bcd60e51b815260206004820152601460248201527314dd1d59195b9d081b9bdd08195b9c9bdb1b195960621b6044820152606401610859565b6001600160a01b0384166000908152600760209081526040808320888452909152902080610a5485826123ed565b5060018101610a6384826123ed565b50600086815260056020819052604091829020908101546003820154600483015493518a947f2a1d983bca838792682e873dea2ad5a9ad06bd28a5716bf06e125e35959c37e494610ac294909361010090910460ff1692909190612306565b60405180910390a2505050505050565b60008381526005602081905260409091200154839060ff16610b065760405162461bcd60e51b815260040161085990612275565b6000818152600560205260409020600201546001600160a01b03163314610b3f5760405162461bcd60e51b8152600401610859906122a4565b60008481526008602090815260408083206001600160a01b038716845290915290205460ff16610ba05760405162461bcd60e51b815260206004820152600c60248201526b139bdd08195b9c9bdb1b195960a21b6044820152606401610859565b6001600160a01b03831660009081526007602090815260408083208784529091529020600281015460ff1615610c095760405162461bcd60e51b815260206004820152600e60248201526d105b1c9958591e481b585c9ad95960921b6044820152606401610859565b60028101805460ff1916600117905560405185906001600160a01b038616907f4b85f119a65c9ab344d9a4d007a895c9a738e08054fee095494567187c45ea8690600090a36002810154610100900460ff16610d1d57600254604051630712249f60e01b81526001600160a01b0390911690630712249f90610c9190879087906004016124ac565b6020604051808303816000875af1158015610cb0573d6000803e3d6000fd5b505050506040513d601f19601f82011682018060405250810190610cd491906124d8565b5060028101805461ff00191661010017905560405185906001600160a01b038616907ffec61b9ec0e29047dbeea981617649d79f187d172cfd492695a3d0bfee28883e90600090a35b5050505050565b60008051602061263d833981519152610d3c81611a2d565b6003546040516001600160a01b03909116904780156108fc02916000818181858888f193505050501580156107e9573d6000803e3d6000fd5b600081815260066020526040902060609061070a90611b23565b6007602090815260009283526040808420909152908252902080548190610db5906122cc565b80601f0160208091040260200160405190810160405280929190818152602001828054610de1906122cc565b8015610e2e5780601f10610e0357610100808354040283529160200191610e2e565b820191906000526020600020905b815481529060010190602001808311610e1157829003601f168201915b505050505090806001018054610e43906122cc565b80601f0160208091040260200160405190810160405280929190818152602001828054610e6f906122cc565b8015610ebc5780601f10610e9157610100808354040283529160200191610ebc565b820191906000526020600020905b815481529060010190602001808311610e9f57829003601f168201915b5050506002909301549192505060ff8082169161010090041684565b6000918252602082815260408084206001600160a01b0393909316845291905290205460ff1690565b600560205260009081526040902080548190610f1c906122cc565b80601f0160208091040260200160405190810160405280929190818152602001828054610f48906122cc565b8015610f955780601f10610f6a57610100808354040283529160200191610f95565b820191906000526020600020905b815481529060010190602001808311610f7857829003601f168201915b505050505090806001018054610faa906122cc565b80601f0160208091040260200160405190810160405280929190818152602001828054610fd6906122cc565b80156110235780601f10610ff857610100808354040283529160200191611023565b820191906000526020600020905b81548152906001019060200180831161100657829003601f168201915b5050506002840154600385015460048601546005870154600688015460079098015496976001600160a01b039094169692955090935060ff80821693610100909204169189565b60008051602061261d83398151915261108281611a2d565b60008281526005602081905260409091209081015460ff1680156110af57506005810154610100900460ff165b6110fb5760405162461bcd60e51b815260206004820152601e60248201527f496e616374697665206f72206e6f6e6578697374656e7420636f7572736500006044820152606401610859565b600083815260086020908152604080832033845290915290205460ff16156111585760405162461bcd60e51b815260206004820152601060248201526f105b1c9958591e48195b9c9bdb1b195960821b6044820152606401610859565b80600301543410156111a05760405162461bcd60e51b815260206004820152601160248201527024b739bab33334b1b4b2b73a10242120a960791b6044820152606401610859565b60008381526006602052604090206111b89033611b37565b506000838152600860209081526040808320338085529252808320805460ff191660011790555185927f55db50c1751fc3b040692644cad74784bdb2e7c170933754b1fd14ccf38f530a91a382336001600160a01b03167f237b94339b1dc667f5a951cf2ee33f00228f658a6ab811cc6afa6caaa4b80cfa3460405161125c91815260406020820181905260049082015263242120a960e11b606082015260800190565b60405180910390a36003546040516001600160a01b03909116903480156108fc02916000818181858888f1935050505015801561129d573d6000803e3d6000fd5b50505050565b60008051602061263d8339815191526112bb81611a2d565b50600380546001600160a01b0319166001600160a01b0392909216919091179055565b60008051602061263d8339815191526112f681611a2d565b6107e97fd661fb81a3e5704a0e72dae0cbb997863f76215e3777c176ae3a83fb62ab7def83611a3a565b60008051602061261d83398151915261133881611a2d565b60008281526005602081905260409091209081015460ff16801561136557506005810154610100900460ff165b6113b15760405162461bcd60e51b815260206004820152601e60248201527f496e616374697665206f72206e6f6e6578697374656e7420636f7572736500006044820152606401610859565b600083815260086020908152604080832033845290915290205460ff161561140e5760405162461bcd60e51b815260206004820152601060248201526f105b1c9958591e48195b9c9bdb1b195960821b6044820152606401610859565b6001546003546004838101546040516323b872dd60e01b815233928101929092526001600160a01b03928316602483015260448201529116906323b872dd906064016020604051808303816000875af115801561146f573d6000803e3d6000fd5b505050506040513d601f19601f8201168201806040525081019061149391906124f1565b6114d75760405162461bcd60e51b8152602060048201526015602482015274151bdad95b881d1c985b9cd9995c8819985a5b1959605a1b6044820152606401610859565b60008381526006602052604090206114ef9033611b37565b506000838152600860209081526040808320338085529252808320805460ff191660011790555185927f55db50c1751fc3b040692644cad74784bdb2e7c170933754b1fd14ccf38f530a91a382336001600160a01b03167f237b94339b1dc667f5a951cf2ee33f00228f658a6ab811cc6afa6caaa4b80cfa8360040154604051611598918152604060208201819052600590820152642a27a5a2a760d91b606082015260800190565b60405180910390a3505050565b60008051602061263d8339815191526115bd81611a2d565b6001546040516370a0823160e01b81523060048201526000916001600160a01b0316906370a0823190602401602060405180830381865afa158015611606573d6000803e3d6000fd5b505050506040513d601f19601f8201168201806040525081019061162a91906124d8565b9050600081116116745760405162461bcd60e51b81526020600482015260156024820152744e6f20746f6b656e7320746f20776974686472617760581b6044820152606401610859565b60015460035460405163a9059cbb60e01b81526001600160a01b0391821660048201526024810184905291169063a9059cbb906044016020604051808303816000875af11580156116c9573d6000803e3d6000fd5b505050506040513d601f19601f820116820180604052508101906116ed91906124f1565b6107e95760405162461bcd60e51b815260206004820152600f60248201526e151c985b9cd9995c8819985a5b1959608a1b6044820152606401610859565b7fd16e204b8a42a15ab0ea6bb8ec1ecdfbe69f38074fc865323af19efe7d9573d961175581611a2d565b600060046000815461176690612524565b91829055506040805161012081018252888152602080820189905233828401526060820188905260808201879052600160a0830181905260c08301524260e0830181905261010083015260008481526005909152919091208151929350909181906117d190826123ed565b50602082015160018201906117e690826123ed565b506040828101516002830180546001600160a01b0319166001600160a01b03909216919091179055606083015160038301556080830151600483015560a083015160058301805460c086015161ffff1990911692151561ff00191692909217610100921515830217905560e08401516006840155909201516007909101555181907fc2c844c5f6c72fe99b99de0942ba619e99957d3e8f7e614263ecfe40de952e5890610ac290899061253d565b6000828152602081905260409020600101546118af81611a2d565b6107b48383611abe565b60008281526005602081905260409091200154829060ff166118ed5760405162461bcd60e51b815260040161085990612275565b6000818152600560205260409020600201546001600160a01b031633146119265760405162461bcd60e51b8152600401610859906122a4565b6001600160a01b038216600090815260076020908152604080832086845290915290206002810154610100900460ff166119a25760405162461bcd60e51b815260206004820152601860248201527f4e6f20636572746966696361746520746f207265766f6b6500000000000000006044820152606401610859565b60028101805461ff001916905560405184906001600160a01b038516907f4eccfa1b61f5d33b8d9c8f3ec5a92e8cd7ae963d459827b036e42bef0df4cf4490600090a350505050565b60008051602061263d833981519152611a0381611a2d565b6107e97fd16e204b8a42a15ab0ea6bb8ec1ecdfbe69f38074fc865323af19efe7d9573d983611a3a565b611a378133611b4c565b50565b611a448282610ed8565b6107e9576000828152602081815260408083206001600160a01b03851684529091529020805460ff19166001179055611a7a3390565b6001600160a01b0316816001600160a01b0316837f2f8788117e7eff1d82e926ec794901d17c78024a50270940304540a733656f0d60405160405180910390a45050565b611ac88282610ed8565b156107e9576000828152602081815260408083206001600160a01b0385168085529252808320805460ff1916905551339285917ff6391f5c32d9c69d2a47ea670b442974b53935d1edc7fd64eb21e047a839171b9190a45050565b60606000611b3083611ba5565b9392505050565b6000611b30836001600160a01b038416611c01565b611b568282610ed8565b6107e957611b6381611c50565b611b6e836020611c62565b604051602001611b7f929190612550565b60408051601f198184030181529082905262461bcd60e51b82526108599160040161253d565b606081600001805480602002602001604051908101604052809291908181526020018280548015611bf557602002820191906000526020600020905b815481526020019060010190808311611be1575b50505050509050919050565b6000818152600183016020526040812054611c485750815460018181018455600084815260208082209093018490558454848252828601909352604090209190915561070a565b50600061070a565b606061070a6001600160a01b03831660145b60606000611c718360026125c5565b611c7c9060026125dc565b67ffffffffffffffff811115611c9457611c94611f0e565b6040519080825280601f01601f191660200182016040528015611cbe576020820181803683370190505b509050600360fc1b81600081518110611cd957611cd96125ef565b60200101906001600160f81b031916908160001a905350600f60fb1b81600181518110611d0857611d086125ef565b60200101906001600160f81b031916908160001a9053506000611d2c8460026125c5565b611d379060016125dc565b90505b6001811115611daf576f181899199a1a9b1b9c1cb0b131b232b360811b85600f1660108110611d6b57611d6b6125ef565b1a60f81b828281518110611d8157611d816125ef565b60200101906001600160f81b031916908160001a90535060049490941c93611da881612605565b9050611d3a565b508315611b305760405162461bcd60e51b815260206004820181905260248201527f537472696e67733a20686578206c656e67746820696e73756666696369656e746044820152606401610859565b600060208284031215611e1057600080fd5b81356001600160e01b031981168114611b3057600080fd5b600080600060608486031215611e3d57600080fd5b505081359360208301359350604090920135919050565b600060208284031215611e6657600080fd5b5035919050565b80356001600160a01b0381168114611e8457600080fd5b919050565b60008060408385031215611e9c57600080fd5b82359150611eac60208401611e6d565b90509250929050565b600060208284031215611ec757600080fd5b611b3082611e6d565b8015158114611a3757600080fd5b60008060408385031215611ef157600080fd5b823591506020830135611f0381611ed0565b809150509250929050565b634e487b7160e01b600052604160045260246000fd5b600082601f830112611f3557600080fd5b813567ffffffffffffffff811115611f4f57611f4f611f0e565b604051601f8201601f19908116603f0116810167ffffffffffffffff81118282101715611f7e57611f7e611f0e565b604052818152838201602001851015611f9657600080fd5b816020850160208301376000918101602001919091529392505050565b60008060008060808587031215611fc957600080fd5b84359350611fd960208601611e6d565b9250604085013567ffffffffffffffff811115611ff557600080fd5b61200187828801611f24565b925050606085013567ffffffffffffffff81111561201e57600080fd5b61202a87828801611f24565b91505092959194509250565b60008060006060848603121561204b57600080fd5b8335925061205b60208501611e6d565b9150604084013567ffffffffffffffff81111561207757600080fd5b61208386828701611f24565b9150509250925092565b602080825282518282018190526000918401906040840190835b818110156120ce5783516001600160a01b03168352602093840193909201916001016120a7565b509095945050505050565b600080604083850312156120ec57600080fd5b6120f583611e6d565b946020939093013593505050565b60005b8381101561211e578181015183820152602001612106565b50506000910152565b6000815180845261213f816020860160208601612103565b601f01601f19169290920160200192915050565b6080815260006121666080830187612127565b82810360208401526121788187612127565b9415156040840152505090151560609091015292915050565b610120815260006121a661012083018c612127565b82810360208401526121b8818c612127565b6001600160a01b039a909a16604084015250506060810196909652608086019490945291151560a0850152151560c084015260e08301526101009091015292915050565b6000806000806080858703121561221257600080fd5b843567ffffffffffffffff81111561222957600080fd5b61223587828801611f24565b945050602085013567ffffffffffffffff81111561225257600080fd5b61225e87828801611f24565b949794965050505060408301359260600135919050565b60208082526015908201527410dbdd5c9cd948191bd95cc81b9bdd08195e1a5cdd605a1b604082015260600190565b6020808252600e908201526d139bdd08185d5d1a1bdc9a5e995960921b604082015260600190565b600181811c908216806122e057607f821691505b60208210810361230057634e487b7160e01b600052602260045260246000fd5b50919050565b608081526000808654612318816122cc565b8060808601526001821660008114612337576001811461235357612387565b60ff19831660a087015260a082151560051b8701019350612387565b89600052602060002060005b8381101561237e57815488820160a0015260019091019060200161235f565b870160a0019450505b5050508515156020840152905060408201939093526060015292915050565b601f8211156107b457806000526020600020601f840160051c810160208510156123cd5750805b601f840160051c820191505b81811015610d1d57600081556001016123d9565b815167ffffffffffffffff81111561240757612407611f0e565b61241b8161241584546122cc565b846123a6565b6020601f82116001811461244f57600083156124375750848201515b600019600385901b1c1916600184901b178455610d1d565b600084815260208120601f198516915b8281101561247f578785015182556020948501946001909201910161245f565b508482101561249d5786840151600019600387901b60f8161c191681555b50505050600190811b01905550565b6001600160a01b03831681526040602082018190526000906124d090830184612127565b949350505050565b6000602082840312156124ea57600080fd5b5051919050565b60006020828403121561250357600080fd5b8151611b3081611ed0565b634e487b7160e01b600052601160045260246000fd5b6000600182016125365761253661250e565b5060010190565b602081526000611b306020830184612127565b7f416363657373436f6e74726f6c3a206163636f756e7420000000000000000000815260008351612588816017850160208801612103565b7001034b99036b4b9b9b4b733903937b6329607d1b60179184019182015283516125b9816028840160208801612103565b01602801949350505050565b808202811582820484141761070a5761070a61250e565b8082018082111561070a5761070a61250e565b634e487b7160e01b600052603260045260246000fd5b6000816126145761261461250e565b50600019019056fe36a5c4aaacb6b388bbd448bf11096b7dafc5652bcc9046084fd0e95b1fb0b2cca49807205ce4d355092ef5a8a18f56e8913cf4a201fbe287825b095693c21775a2646970667358221220e3b08f23c553bd78093af577830ee22abfe0b320813f1d19c22895b70711cd0864736f6c634300081c0033",
  "linkReferences": {},
  "deployedLinkReferences": {}
}