{
  "_format": "hh-sol-artifact-1",
  "contractName": "EduLedger",
  "sourceName": "contracts/EduLedger.sol",
  "abi": [
    {
      "inputs": [
        {
          "internalType": "address",
          "name": "_eduToken",
          "type": "address"
        },
        {
          "internalType": "address",
          "name": "_nft",
          "type": "address"
        },
        {
          "internalType": "address",
          "name": "_feeCollector",
          "type": "address"
        }
      ],
      "stateMutability": "nonpayable",
      "type": "constructor"
    },
    {
      "anonymous": false,
      "inputs": [
        {
          "indexed": true,
          "internalType": "address",
          "name": "student",
          "type": "address"
        },
        {
          "indexed": true,
          "internalType": "uint256",
          "name": "courseId",
          "type": "uint256"
        }
      ],
      "name": "CertificateIssued",
      "type": "event"
    },
    {
      "anonymous": false,
      "inputs": [
        {
          "indexed": true,
          "internalType": "address",
          "name": "student",
          "type": "address"
        },
        {
          "indexed": true,
          "internalType": "uint256",
          "name": "courseId",
          "type": "uint256"
        }
      ],
      "name": "CertificateRevoked",
      "type": "event"
    },
    {
      "anonymous": false,
      "inputs": [
        {
          "indexed": true,
          "internalType": "address",
          "name": "student",
          "type": "address"
        },
        {
          "indexed": true,
          "internalType": "uint256",
          "name": "courseId",
          "type": "uint256"
        }
      ],
      "name": "CourseCompleted",
      "type": "event"
    },
    {
      "anonymous": false,
      "inputs": [
        {
          "indexed": true,
          "internalType": "uint256",
          "name": "courseId",
          "type": "uint256"
        },
        {
          "indexed": false,
          "internalType": "string",
          "name": "title",
          "type": "string"
        }
      ],
      "name": "CourseCreated",
      "type": "event"
    },
    {
      "anonymous": false,
      "inputs": [
        {
          "indexed": true,
          "internalType": "uint256",
          "name": "courseId",
          "type": "uint256"
        },
        {
          "indexed": false,
          "internalType": "bool",
          "name": "active",
          "type": "bool"
        }
      ],
      "name": "CourseUpdated",
      "type": "event"
    },
    {
      "anonymous": false,
      "inputs": [
        {
          "indexed": true,
          "internalType": "address",
          "name": "student",
          "type": "address"
        },
        {
          "indexed": true,
          "internalType": "uint256",
          "name": "courseId",
          "type": "uint256"
        },
        {
          "indexed": false,
          "internalType": "uint256",
          "name": "amount",
          "type": "uint256"
        },
        {
          "indexed": false,
          "internalType": "string",
          "name": "paymentType",
          "type": "string"
        }
      ],
      "name": "PaymentReceived",
      "type": "event"
    },
    {
      "anonymous": false,
      "inputs": [
        {
          "indexed": true,
          "internalType": "bytes32",
          "name": "role",
          "type": "bytes32"
        },
        {
          "indexed": true,
          "internalType": "bytes32",
          "name": "previousAdminRole",
          "type": "bytes32"
        },
        {
          "indexed": true,
          "internalType": "bytes32",
          "name": "newAdminRole",
          "type": "bytes32"
        }
      ],
      "name": "RoleAdminChanged",
      "type": "event"
    },
    {
      "anonymous": false,
      "inputs": [
        {
          "indexed": true,
          "internalType": "bytes32",
          "name": "role",
          "type": "bytes32"
        },
        {
          "indexed": true,
          "internalType": "address",
          "name": "account",
          "type": "address"
        },
        {
          "indexed": true,
          "internalType": "address",
          "name": "sender",
          "type": "address"
        }
      ],
      "name": "RoleGranted",
      "type": "event"
    },
    {
      "anonymous": false,
      "inputs": [
        {
          "indexed": true,
          "internalType": "bytes32",
          "name": "role",
          "type": "bytes32"
        },
        {
          "indexed": true,
          "internalType": "address",
          "name": "account",
          "type": "address"
        },
        {
          "indexed": true,
          "internalType": "address",
          "name": "sender",
          "type": "address"
        }
      ],
      "name": "RoleRevoked",
      "type": "event"
    },
    {
      "anonymous": false,
      "inputs": [
        {
          "indexed": true,
          "internalType": "address",
          "name": "student",
          "type": "address"
        },
        {
          "indexed": true,
          "internalType": "uint256",
          "name": "courseId",
          "type": "uint256"
        }
      ],
      "name": "StudentEnrolled",
      "type": "event"
    },
    {
      "inputs": [],
      "name": "ADMIN_ROLE",
      "outputs": [
        {
          "internalType": "bytes32",
          "name": "",
          "type": "bytes32"
        }
      ],
      "stateMutability": "view",
      "type": "function"
    },
    {
      "inputs": [],
      "name": "DEFAULT_ADMIN_ROLE",
      "outputs": [
        {
          "internalType": "bytes32",
          "name": "",
          "type": "bytes32"
        }
      ],
      "stateMutability": "view",
      "type": "function"
    },
    {
      "inputs": [],
      "name": "STUDENT_ROLE",
      "outputs": [
        {
          "internalType": "bytes32",
          "name": "",
          "type": "bytes32"
        }
      ],
      "stateMutability": "view",
      "type": "function"
    },
    {
      "inputs": [],
      "name": "TEACHER_ROLE",
      "outputs": [
        {
          "internalType": "bytes32",
          "name": "",
          "type": "bytes32"
        }
      ],
      "stateMutability": "view",
      "type": "function"
    },
    {
      "inputs": [
        {
          "internalType": "uint256",
          "name": "courseId",
          "type": "uint256"
        },
        {
          "internalType": "address",
          "name": "student",
          "type": "address"
        },
        {
          "internalType": "string",
          "name": "grade",
          "type": "string"
        },
        {
          "internalType": "string",
          "name": "note",
          "type": "string"
        }
      ],
      "name": "addRecord",
      "outputs": [],
      "stateMutability": "nonpayable",
      "type": "function"
    },
    {
      "inputs": [],
      "name": "certificateNFT",
      "outputs": [
        {
          "internalType": "contract IEduCertificateNFT",
          "name": "",
          "type": "address"
        }
      ],
      "stateMutability": "view",
      "type": "function"
    },
    {
      "inputs": [],
      "name": "courseCounter",
      "outputs": [
        {
          "internalType": "uint256",
          "name": "",
          "type": "uint256"
        }
      ],
      "stateMutability": "view",
      "type": "function"
    },
    {
      "inputs": [
        {
          "internalType": "uint256",
          "name": "",
          "type": "uint256"
        },
        {
          "internalType": "uint256",
          "name": "",
          "type": "uint256"
        }
      ],
      "name": "courseStudents",
      "outputs": [
        {
          "internalType": "address",
          "name": "",
          "type": "address"
        }
      ],
      "stateMutability": "view",
      "type": "function"
    },
    {
      "inputs": [
        {
          "internalType": "uint256",
          "name": "",
          "type": "uint256"
        }
      ],
      "name": "courses",
      "outputs": [
        {
          "internalType": "string",
          "name": "title",
          "type": "string"
        },
        {
          "internalType": "string",
          "name": "description",
          "type": "string"
        },
        {
          "internalType": "address",
          "name": "teacher",
          "type": "address"
        },
        {
          "internalType": "uint256",
          "name": "feeHBAR",
          "type": "uint256"
        },
        {
          "internalType": "uint256",
          "name": "feeToken",
          "type": "uint256"
        },
        {
          "internalType": "bool",
          "name": "exists",
          "type": "bool"
        },
        {
          "internalType": "bool",
          "name": "active",
          "type": "bool"
        }
      ],
      "stateMutability": "view",
      "type": "function"
    },
    {
      "inputs": [
        {
          "internalType": "string",
          "name": "_title",
          "type": "string"
        },
        {
          "internalType": "string",
          "name": "_description",
          "type": "string"
        },
        {
          "internalType": "uint256",
          "name": "_feeHBAR",
          "type": "uint256"
        },
        {
          "internalType": "uint256",
          "name": "_feeToken",
          "type": "uint256"
        }
      ],
      "name": "createCourse",
      "outputs": [],
      "stateMutability": "nonpayable",
      "type": "function"
    },
    {
      "inputs": [],
      "name": "eduToken",
      "outputs": [
        {
          "internalType": "contract IERC20",
          "name": "",
          "type": "address"
        }
      ],
      "stateMutability": "view",
      "type": "function"
    },
    {
      "inputs": [
        {
          "internalType": "uint256",
          "name": "courseId",
          "type": "uint256"
        }
      ],
      "name": "enrollHBAR",
      "outputs": [],
      "stateMutability": "payable",
      "type": "function"
    },
    {
      "inputs": [
        {
          "internalType": "uint256",
          "name": "courseId",
          "type": "uint256"
        }
      ],
      "name": "enrollToken",
      "outputs": [],
      "stateMutability": "nonpayable",
      "type": "function"
    },
    {
      "inputs": [],
      "name": "feeCollector",
      "outputs": [
        {
          "internalType": "address",
          "name": "",
          "type": "address"
        }
      ],
      "stateMutability": "view",
      "type": "function"
    },
    {
      "inputs": [
        {
          "internalType": "bytes32",
          "name": "role",
          "type": "bytes32"
        }
      ],
      "name": "getRoleAdmin",
      "outputs": [
        {
          "internalType": "bytes32",
          "name": "",
          "type": "bytes32"
        }
      ],
      "stateMutability": "view",
      "type": "function"
    },
    {
      "inputs": [
        {
          "internalType": "uint256",
          "name": "courseId",
          "type": "uint256"
        }
      ],
      "name": "getStudents",
      "outputs": [
        {
          "internalType": "address[]",
          "name": "",
          "type": "address[]"
        }
      ],
      "stateMutability": "view",
      "type": "function"
    },
    {
      "inputs": [
        {
          "internalType": "bytes32",
          "name": "role",
          "type": "bytes32"
        },
        {
          "internalType": "address",
          "name": "account",
          "type": "address"
        }
      ],
      "name": "grantRole",
      "outputs": [],
      "stateMutability": "nonpayable",
      "type": "function"
    },
    {
      "inputs": [
        {
          "internalType": "address",
          "name": "student",
          "type": "address"
        }
      ],
      "name": "grantStudent",
      "outputs": [],
      "stateMutability": "nonpayable",
      "type": "function"
    },
    {
      "inputs": [
        {
          "internalType": "address",
          "name": "teacher",
          "type": "address"
        }
      ],
      "name": "grantTeacher",
      "outputs": [],
      "stateMutability": "nonpayable",
      "type": "function"
    },
    {
      "inputs": [
        {
          "internalType": "bytes32",
          "name": "role",
          "type": "bytes32"
        },
        {
          "internalType": "address",
          "name": "account",
          "type": "address"
        }
      ],
      "name": "hasRole",
      "outputs": [
        {
          "internalType": "bool",
          "name": "",
          "type": "bool"
        }
      ],
      "stateMutability": "view",
      "type": "function"
    },
    {
      "inputs": [
        {
          "internalType": "uint256",
          "name": "",
          "type": "uint256"
        },
        {
          "internalType": "address",
          "name": "",
          "type": "address"
        }
      ],
      "name": "isStudentEnrolled",
      "outputs": [
        {
          "internalType": "bool",
          "name": "",
          "type": "bool"
        }
      ],
      "stateMutability": "view",
      "type": "function"
    },
    {
      "inputs": [
        {
          "internalType": "uint256",
          "name": "courseId",
          "type": "uint256"
        },
        {
          "internalType": "address",
          "name": "student",
          "type": "address"
        },
        {
          "internalType": "string",
          "name": "certURI",
          "type": "string"
        }
      ],
      "name": "markCourseCompleted",
      "outputs": [],
      "stateMutability": "nonpayable",
      "type": "function"
    },
    {
      "inputs": [
        {
          "internalType": "bytes32",
          "name": "role",
          "type": "bytes32"
        },
        {
          "internalType": "address",
          "name": "account",
          "type": "address"
        }
      ],
      "name": "renounceRole",
      "outputs": [],
      "stateMutability": "nonpayable",
      "type": "function"
    },
    {
      "inputs": [
        {
          "internalType": "uint256",
          "name": "courseId",
          "type": "uint256"
        },
        {
          "internalType": "address",
          "name": "student",
          "type": "address"
        }
      ],
      "name": "revokeCertificate",
      "outputs": [],
      "stateMutability": "nonpayable",
      "type": "function"
    },
    {
      "inputs": [
        {
          "internalType": "bytes32",
          "name": "role",
          "type": "bytes32"
        },
        {
          "internalType": "address",
          "name": "account",
          "type": "address"
        }
      ],
      "name": "revokeRole",
      "outputs": [],
      "stateMutability": "nonpayable",
      "type": "function"
    },
    {
      "inputs": [
        {
          "internalType": "address",
          "name": "_collector",
          "type": "address"
        }
      ],
      "name": "setFeeCollector",
      "outputs": [],
      "stateMutability": "nonpayable",
      "type": "function"
    },
    {
      "inputs": [
        {
          "internalType": "address",
          "name": "",
          "type": "address"
        },
        {
          "internalType": "uint256",
          "name": "",
          "type": "uint256"
        }
      ],
      "name": "studentRecords",
      "outputs": [
        {
          "internalType": "string",
          "name": "grade",
          "type": "string"
        },
        {
          "internalType": "string",
          "name": "note",
          "type": "string"
        },
        {
          "internalType": "bool",
          "name": "completed",
          "type": "bool"
        },
        {
          "internalType": "bool",
          "name": "certified",
          "type": "bool"
        }
      ],
      "stateMutability": "view",
      "type": "function"
    },
    {
      "inputs": [
        {
          "internalType": "bytes4",
          "name": "interfaceId",
          "type": "bytes4"
        }
      ],
      "name": "supportsInterface",
      "outputs": [
        {
          "internalType": "bool",
          "name": "",
          "type": "bool"
        }
      ],
      "stateMutability": "view",
      "type": "function"
    },
    {
      "inputs": [
        {
          "internalType": "uint256",
          "name": "courseId",
          "type": "uint256"
        },
        {
          "internalType": "bool",
          "name": "active",
          "type": "bool"
        }
      ],
      "name": "toggleCourseStatus",
      "outputs": [],
      "stateMutability": "nonpayable",
      "type": "function"
    },
    {
      "inputs": [],
      "name": "withdrawHBAR",
      "outputs": [],
      "stateMutability": "nonpayable",
      "type": "function"
    },
    {
      "inputs": [],
      "name": "withdrawToken",
      "outputs": [],
      "stateMutability": "nonpayable",
      "type": "function"
    }
  ],
  "bytecode": "0x608060405234801561001057600080fd5b5060405161257d38038061257d83398101604081905261002f91610161565b61003a6000336100a6565b6100647fa49807205ce4d355092ef5a8a18f56e8913cf4a201fbe287825b095693c21775336100a6565b600180546001600160a01b039485166001600160a01b0319918216179091556002805493851693821693909317909255600380549190931691161790556101a4565b6000828152602081815260408083206001600160a01b038516845290915290205460ff16610141576000828152602081815260408083206001600160a01b03851684529091529020805460ff191660011790556101003390565b6001600160a01b0316816001600160a01b0316837f2f8788117e7eff1d82e926ec794901d17c78024a50270940304540a733656f0d60405160405180910390a45b5050565b80516001600160a01b038116811461015c57600080fd5b919050565b60008060006060848603121561017657600080fd5b61017f84610145565b925061018d60208501610145565b915061019b60408501610145565b90509250925092565b6123ca806101b36000396000f3fe6080604052600436106101d85760003560e01c80638a954a0311610102578063b7bd803111610095578063d547741f11610064578063d547741f146105b3578063e7299840146105d3578063f59d3abe146105f3578063f7be43fb1461061357600080fd5b8063b7bd80311461053e578063c415b95c1461055e578063ca628c781461057e578063d4c4ecfa1461059357600080fd5b806396f979d2116100d157806396f979d2146104c35780639b3fc219146104f6578063a217fddf14610509578063a42dce801461051e57600080fd5b80638a954a03146104285780638d8788891461046357806391aec72a1461048357806391d14854146104a357600080fd5b8063446286a21161017a57806375c2f8f01161014957806375c2f8f0146103815780637b656ada146103ae57806382216fbd146103de57806386e5c15a146103f457600080fd5b8063446286a2146102f25780636bea7b52146103125780636e274a341461032757806375b238fc1461035f57600080fd5b8063313efd2f116101b6578063313efd2f1461027257806336568abe146102925780633eea06f5146102b257806343b5742b146102d257600080fd5b806301ffc9a7146101dd578063248a9ca3146102125780632f2ff15d14610250575b600080fd5b3480156101e957600080fd5b506101fd6101f8366004611bee565b610635565b60405190151581526020015b60405180910390f35b34801561021e57600080fd5b5061024261022d366004611c18565b60009081526020819052604090206001015490565b604051908152602001610209565b34801561025c57600080fd5b5061027061026b366004611c4d565b61066c565b005b34801561027e57600080fd5b5061027061028d366004611c79565b610696565b34801561029e57600080fd5b506102706102ad366004611c4d565b6106ca565b3480156102be57600080fd5b506102706102cd366004611ca2565b610749565b3480156102de57600080fd5b506102706102ed366004611d77565b61081d565b3480156102fe57600080fd5b5061027061030d366004611dfa565b610939565b34801561031e57600080fd5b50610270610b8b565b34801561033357600080fd5b50610347610342366004611e51565b610bdc565b6040516001600160a01b039091168152602001610209565b34801561036b57600080fd5b5061024260008051602061237583398151915281565b34801561038d57600080fd5b506103a161039c366004611c18565b610c14565b6040516102099190611e73565b3480156103ba57600080fd5b506103ce6103c9366004611ebf565b610c80565b6040516102099493929190611f39565b3480156103ea57600080fd5b5061024260045481565b34801561040057600080fd5b506102427fd16e204b8a42a15ab0ea6bb8ec1ecdfbe69f38074fc865323af19efe7d9573d981565b34801561043457600080fd5b506101fd610443366004611c4d565b600860209081526000928352604080842090915290825290205460ff1681565b34801561046f57600080fd5b50600154610347906001600160a01b031681565b34801561048f57600080fd5b50600254610347906001600160a01b031681565b3480156104af57600080fd5b506101fd6104be366004611c4d565b610dc9565b3480156104cf57600080fd5b506104e36104de366004611c18565b610df2565b6040516102099796959493929190611f77565b610270610504366004611c18565b610f4d565b34801561051557600080fd5b50610242600081565b34801561052a57600080fd5b50610270610539366004611c79565b61119a565b34801561054a57600080fd5b50610270610559366004611c18565b6111d5565b34801561056a57600080fd5b50600354610347906001600160a01b031681565b34801561058a57600080fd5b5061027061146e565b34801561059f57600080fd5b506102706105ae366004611fd4565b6115f4565b3480156105bf57600080fd5b506102706105ce366004611c4d565b611751565b3480156105df57600080fd5b506102706105ee366004611c4d565b611776565b3480156105ff57600080fd5b5061027061060e366004611c79565b6118a8565b34801561061f57600080fd5b5061024260008051602061235583398151915281565b60006001600160e01b03198216637965db0b60e01b148061066657506301ffc9a760e01b6001600160e01b03198316145b92915050565b600082815260208190526040902060010154610687816118ea565b61069183836118f7565b505050565b6000805160206123758339815191526106ae816118ea565b6106c6600080516020612355833981519152836118f7565b5050565b6001600160a01b038116331461073f5760405162461bcd60e51b815260206004820152602f60248201527f416363657373436f6e74726f6c3a2063616e206f6e6c792072656e6f756e636560448201526e103937b632b9903337b91039b2b63360891b60648201526084015b60405180910390fd5b6106c6828261197b565b60008281526005602081905260409091200154829060ff1661077d5760405162461bcd60e51b81526004016107369061204d565b6000818152600560205260409020600201546001600160a01b031633146107b65760405162461bcd60e51b81526004016107369061207c565b6000838152600560208190526040918290200180548415156101000261ff00199091161790555183907f5c37a26acf63b8a3c003a9f59e9266a4cc57defe1589338e67c674ec977b0f0f9061081090851515815260200190565b60405180910390a2505050565b60008481526005602081905260409091200154849060ff166108515760405162461bcd60e51b81526004016107369061204d565b6000818152600560205260409020600201546001600160a01b0316331461088a5760405162461bcd60e51b81526004016107369061207c565b60008581526008602090815260408083206001600160a01b038816845290915290205460ff166108f35760405162461bcd60e51b815260206004820152601460248201527314dd1d59195b9d081b9bdd08195b9c9bdb1b195960621b6044820152606401610736565b6001600160a01b03841660009081526007602090815260408083208884529091529020806109218582612125565b50600181016109308482612125565b50505050505050565b60008381526005602081905260409091200154839060ff1661096d5760405162461bcd60e51b81526004016107369061204d565b6000818152600560205260409020600201546001600160a01b031633146109a65760405162461bcd60e51b81526004016107369061207c565b60008481526008602090815260408083206001600160a01b038716845290915290205460ff16610a075760405162461bcd60e51b815260206004820152600c60248201526b139bdd08195b9c9bdb1b195960a21b6044820152606401610736565b6001600160a01b03831660009081526007602090815260408083208784529091529020600281015460ff1615610a705760405162461bcd60e51b815260206004820152600e60248201526d105b1c9958591e481b585c9ad95960921b6044820152606401610736565b60028101805460ff1916600117905560405185906001600160a01b038616907f4b85f119a65c9ab344d9a4d007a895c9a738e08054fee095494567187c45ea8690600090a36002810154610100900460ff16610b8457600254604051630712249f60e01b81526001600160a01b0390911690630712249f90610af890879087906004016121e4565b6020604051808303816000875af1158015610b17573d6000803e3d6000fd5b505050506040513d601f19601f82011682018060405250810190610b3b9190612210565b5060028101805461ff00191661010017905560405185906001600160a01b038616907ffec61b9ec0e29047dbeea981617649d79f187d172cfd492695a3d0bfee28883e90600090a35b5050505050565b600080516020612375833981519152610ba3816118ea565b6003546040516001600160a01b03909116904780156108fc02916000818181858888f193505050501580156106c6573d6000803e3d6000fd5b60066020528160005260406000208181548110610bf857600080fd5b6000918252602090912001546001600160a01b03169150829050565b600081815260066020908152604091829020805483518184028101840190945280845260609392830182828015610c7457602002820191906000526020600020905b81546001600160a01b03168152600190910190602001808311610c56575b50505050509050919050565b6007602090815260009283526040808420909152908252902080548190610ca6906120a4565b80601f0160208091040260200160405190810160405280929190818152602001828054610cd2906120a4565b8015610d1f5780601f10610cf457610100808354040283529160200191610d1f565b820191906000526020600020905b815481529060010190602001808311610d0257829003601f168201915b505050505090806001018054610d34906120a4565b80601f0160208091040260200160405190810160405280929190818152602001828054610d60906120a4565b8015610dad5780601f10610d8257610100808354040283529160200191610dad565b820191906000526020600020905b815481529060010190602001808311610d9057829003601f168201915b5050506002909301549192505060ff8082169161010090041684565b6000918252602082815260408084206001600160a01b0393909316845291905290205460ff1690565b600560205260009081526040902080548190610e0d906120a4565b80601f0160208091040260200160405190810160405280929190818152602001828054610e39906120a4565b8015610e865780601f10610e5b57610100808354040283529160200191610e86565b820191906000526020600020905b815481529060010190602001808311610e6957829003601f168201915b505050505090806001018054610e9b906120a4565b80601f0160208091040260200160405190810160405280929190818152602001828054610ec7906120a4565b8015610f145780601f10610ee957610100808354040283529160200191610f14565b820191906000526020600020905b815481529060010190602001808311610ef757829003601f168201915b5050505060028301546003840154600485015460059095015493946001600160a01b039092169390925060ff8082169161010090041687565b600080516020612355833981519152610f65816118ea565b60008281526005602081905260409091209081015460ff168015610f9257506005810154610100900460ff165b610fde5760405162461bcd60e51b815260206004820152601e60248201527f496e616374697665206f72206e6f6e6578697374656e7420636f7572736500006044820152606401610736565b600083815260086020908152604080832033845290915290205460ff161561103b5760405162461bcd60e51b815260206004820152601060248201526f105b1c9958591e48195b9c9bdb1b195960821b6044820152606401610736565b80600301543410156110835760405162461bcd60e51b815260206004820152601160248201527024b739bab33334b1b4b2b73a10242120a960791b6044820152606401610736565b60008381526006602090815260408083208054600181810183559185528385200180546001600160a01b0319163390811790915587855260088452828520818652909352818420805460ff191690911790555185927f55db50c1751fc3b040692644cad74784bdb2e7c170933754b1fd14ccf38f530a91a382336001600160a01b03167f237b94339b1dc667f5a951cf2ee33f00228f658a6ab811cc6afa6caaa4b80cfa3460405161115391815260406020820181905260049082015263242120a960e11b606082015260800190565b60405180910390a36003546040516001600160a01b03909116903480156108fc02916000818181858888f19350505050158015611194573d6000803e3d6000fd5b50505050565b6000805160206123758339815191526111b2816118ea565b50600380546001600160a01b0319166001600160a01b0392909216919091179055565b6000805160206123558339815191526111ed816118ea565b60008281526005602081905260409091209081015460ff16801561121a57506005810154610100900460ff165b6112665760405162461bcd60e51b815260206004820152601e60248201527f496e616374697665206f72206e6f6e6578697374656e7420636f7572736500006044820152606401610736565b600083815260086020908152604080832033845290915290205460ff16156112c35760405162461bcd60e51b815260206004820152601060248201526f105b1c9958591e48195b9c9bdb1b195960821b6044820152606401610736565b6001546003546004838101546040516323b872dd60e01b815233928101929092526001600160a01b03928316602483015260448201529116906323b872dd906064016020604051808303816000875af1158015611324573d6000803e3d6000fd5b505050506040513d601f19601f820116820180604052508101906113489190612229565b61138c5760405162461bcd60e51b8152602060048201526015602482015274151bdad95b881d1c985b9cd9995c8819985a5b1959605a1b6044820152606401610736565b60008381526006602090815260408083208054600181810183559185528385200180546001600160a01b0319163390811790915587855260088452828520818652909352818420805460ff191690911790555185927f55db50c1751fc3b040692644cad74784bdb2e7c170933754b1fd14ccf38f530a91a382336001600160a01b03167f237b94339b1dc667f5a951cf2ee33f00228f658a6ab811cc6afa6caaa4b80cfa8360040154604051611461918152604060208201819052600590820152642a27a5a2a760d91b606082015260800190565b60405180910390a3505050565b600080516020612375833981519152611486816118ea565b6001546040516370a0823160e01b81523060048201526000916001600160a01b0316906370a0823190602401602060405180830381865afa1580156114cf573d6000803e3d6000fd5b505050506040513d601f19601f820116820180604052508101906114f39190612210565b90506000811161153d5760405162461bcd60e51b81526020600482015260156024820152744e6f20746f6b656e7320746f20776974686472617760581b6044820152606401610736565b60015460035460405163a9059cbb60e01b81526001600160a01b0391821660048201526024810184905291169063a9059cbb906044016020604051808303816000875af1158015611592573d6000803e3d6000fd5b505050506040513d601f19601f820116820180604052508101906115b69190612229565b6106c65760405162461bcd60e51b815260206004820152600f60248201526e151c985b9cd9995c8819985a5b1959608a1b6044820152606401610736565b7fd16e204b8a42a15ab0ea6bb8ec1ecdfbe69f38074fc865323af19efe7d9573d961161e816118ea565b600060046000815461162f9061225c565b91829055506040805160e081018252888152602080820189905233828401526060820188905260808201879052600160a0830181905260c0830152600084815260059091529190912081519293509091819061168b9082612125565b50602082015160018201906116a09082612125565b506040828101516002830180546001600160a01b0319166001600160a01b03909216919091179055606083015160038301556080830151600483015560a08301516005909201805460c09094015161ffff1990941692151561ff00191692909217610100931515939093029290921790555181907fc2c844c5f6c72fe99b99de0942ba619e99957d3e8f7e614263ecfe40de952e5890611741908990612275565b60405180910390a2505050505050565b60008281526020819052604090206001015461176c816118ea565b610691838361197b565b60008281526005602081905260409091200154829060ff166117aa5760405162461bcd60e51b81526004016107369061204d565b6000818152600560205260409020600201546001600160a01b031633146117e35760405162461bcd60e51b81526004016107369061207c565b6001600160a01b038216600090815260076020908152604080832086845290915290206002810154610100900460ff1661185f5760405162461bcd60e51b815260206004820152601860248201527f4e6f20636572746966696361746520746f207265766f6b6500000000000000006044820152606401610736565b60028101805461ff001916905560405184906001600160a01b038516907f4eccfa1b61f5d33b8d9c8f3ec5a92e8cd7ae963d459827b036e42bef0df4cf4490600090a350505050565b6000805160206123758339815191526118c0816118ea565b6106c67fd16e204b8a42a15ab0ea6bb8ec1ecdfbe69f38074fc865323af19efe7d9573d9836118f7565b6118f481336119e0565b50565b6119018282610dc9565b6106c6576000828152602081815260408083206001600160a01b03851684529091529020805460ff191660011790556119373390565b6001600160a01b0316816001600160a01b0316837f2f8788117e7eff1d82e926ec794901d17c78024a50270940304540a733656f0d60405160405180910390a45050565b6119858282610dc9565b156106c6576000828152602081815260408083206001600160a01b0385168085529252808320805460ff1916905551339285917ff6391f5c32d9c69d2a47ea670b442974b53935d1edc7fd64eb21e047a839171b9190a45050565b6119ea8282610dc9565b6106c6576119f781611a39565b611a02836020611a4b565b604051602001611a13929190612288565b60408051601f198184030181529082905262461bcd60e51b825261073691600401612275565b60606106666001600160a01b03831660145b60606000611a5a8360026122fd565b611a65906002612314565b67ffffffffffffffff811115611a7d57611a7d611cd2565b6040519080825280601f01601f191660200182016040528015611aa7576020820181803683370190505b509050600360fc1b81600081518110611ac257611ac2612327565b60200101906001600160f81b031916908160001a905350600f60fb1b81600181518110611af157611af1612327565b60200101906001600160f81b031916908160001a9053506000611b158460026122fd565b611b20906001612314565b90505b6001811115611b98576f181899199a1a9b1b9c1cb0b131b232b360811b85600f1660108110611b5457611b54612327565b1a60f81b828281518110611b6a57611b6a612327565b60200101906001600160f81b031916908160001a90535060049490941c93611b918161233d565b9050611b23565b508315611be75760405162461bcd60e51b815260206004820181905260248201527f537472696e67733a20686578206c656e67746820696e73756666696369656e746044820152606401610736565b9392505050565b600060208284031215611c0057600080fd5b81356001600160e01b031981168114611be757600080fd5b600060208284031215611c2a57600080fd5b5035919050565b80356001600160a01b0381168114611c4857600080fd5b919050565b60008060408385031215611c6057600080fd5b82359150611c7060208401611c31565b90509250929050565b600060208284031215611c8b57600080fd5b611be782611c31565b80151581146118f457600080fd5b60008060408385031215611cb557600080fd5b823591506020830135611cc781611c94565b809150509250929050565b634e487b7160e01b600052604160045260246000fd5b600082601f830112611cf957600080fd5b813567ffffffffffffffff811115611d1357611d13611cd2565b604051601f8201601f19908116603f0116810167ffffffffffffffff81118282101715611d4257611d42611cd2565b604052818152838201602001851015611d5a57600080fd5b816020850160208301376000918101602001919091529392505050565b60008060008060808587031215611d8d57600080fd5b84359350611d9d60208601611c31565b9250604085013567ffffffffffffffff811115611db957600080fd5b611dc587828801611ce8565b925050606085013567ffffffffffffffff811115611de257600080fd5b611dee87828801611ce8565b91505092959194509250565b600080600060608486031215611e0f57600080fd5b83359250611e1f60208501611c31565b9150604084013567ffffffffffffffff811115611e3b57600080fd5b611e4786828701611ce8565b9150509250925092565b60008060408385031215611e6457600080fd5b50508035926020909101359150565b602080825282518282018190526000918401906040840190835b81811015611eb45783516001600160a01b0316835260209384019390920191600101611e8d565b509095945050505050565b60008060408385031215611ed257600080fd5b611edb83611c31565b946020939093013593505050565b60005b83811015611f04578181015183820152602001611eec565b50506000910152565b60008151808452611f25816020860160208601611ee9565b601f01601f19169290920160200192915050565b608081526000611f4c6080830187611f0d565b8281036020840152611f5e8187611f0d565b9415156040840152505090151560609091015292915050565b60e081526000611f8a60e083018a611f0d565b8281036020840152611f9c818a611f0d565b6001600160a01b03989098166040840152505060608101949094526080840192909252151560a0830152151560c09091015292915050565b60008060008060808587031215611fea57600080fd5b843567ffffffffffffffff81111561200157600080fd5b61200d87828801611ce8565b945050602085013567ffffffffffffffff81111561202a57600080fd5b61203687828801611ce8565b949794965050505060408301359260600135919050565b60208082526015908201527410dbdd5c9cd948191bd95cc81b9bdd08195e1a5cdd605a1b604082015260600190565b6020808252600e908201526d139bdd08185d5d1a1bdc9a5e995960921b604082015260600190565b600181811c908216806120b857607f821691505b6020821081036120d857634e487b7160e01b600052602260045260246000fd5b50919050565b601f82111561069157806000526020600020601f840160051c810160208510156121055750805b601f840160051c820191505b81811015610b845760008155600101612111565b815167ffffffffffffffff81111561213f5761213f611cd2565b6121538161214d84546120a4565b846120de565b6020601f821160018114612187576000831561216f5750848201515b600019600385901b1c1916600184901b178455610b84565b600084815260208120601f198516915b828110156121b75787850151825560209485019460019092019101612197565b50848210156121d55786840151600019600387901b60f8161c191681555b50505050600190811b01905550565b6001600160a01b038316815260406020820181905260009061220890830184611f0d565b949350505050565b60006020828403121561222257600080fd5b5051919050565b60006020828403121561223b57600080fd5b8151611be781611c94565b634e487b7160e01b600052601160045260246000fd5b60006001820161226e5761226e612246565b5060010190565b602081526000611be76020830184611f0d565b7f416363657373436f6e74726f6c3a206163636f756e74200000000000000000008152600083516122c0816017850160208801611ee9565b7001034b99036b4b9b9b4b733903937b6329607d1b60179184019182015283516122f1816028840160208801611ee9565b01602801949350505050565b808202811582820484141761066657610666612246565b8082018082111561066657610666612246565b634e487b7160e01b600052603260045260246000fd5b60008161234c5761234c612246565b50600019019056fe36a5c4aaacb6b388bbd448bf11096b7dafc5652bcc9046084fd0e95b1fb0b2cca49807205ce4d355092ef5a8a18f56e8913cf4a201fbe287825b095693c21775a26469706673582212209bb84cf31009499be7987596bef2b1e59671b5b0c2664bb7423d426019cd8f0764736f6c634300081c0033",
  "linkReferences": {},
  "deployedLinkReferences": {}
}